{
  "_format": "hh-sol-artifact-1",
  "contractName": "FutNFTMatch",
  "sourceName": "contracts/FutNFTMatch.sol",
  "abi": [
    {
      "inputs": [],
      "stateMutability": "nonpayable",
      "type": "constructor"
    },
    {
      "anonymous": false,
      "inputs": [
        {
          "indexed": true,
          "internalType": "address",
          "name": "owner",
          "type": "address"
        },
        {
          "indexed": true,
          "internalType": "address",
          "name": "approved",
          "type": "address"
        },
        {
          "indexed": true,
          "internalType": "uint256",
          "name": "tokenId",
          "type": "uint256"
        }
      ],
      "name": "Approval",
      "type": "event"
    },
    {
      "anonymous": false,
      "inputs": [
        {
          "indexed": true,
          "internalType": "address",
          "name": "owner",
          "type": "address"
        },
        {
          "indexed": true,
          "internalType": "address",
          "name": "operator",
          "type": "address"
        },
        {
          "indexed": false,
          "internalType": "bool",
          "name": "approved",
          "type": "bool"
        }
      ],
      "name": "ApprovalForAll",
      "type": "event"
    },
    {
      "anonymous": false,
      "inputs": [
        {
          "indexed": false,
          "internalType": "uint256",
          "name": "playerId",
          "type": "uint256"
        }
      ],
      "name": "LevelUp",
      "type": "event"
    },
    {
      "anonymous": false,
      "inputs": [
        {
          "indexed": false,
          "internalType": "uint256",
          "name": "playerId",
          "type": "uint256"
        }
      ],
      "name": "Listed",
      "type": "event"
    },
    {
      "anonymous": false,
      "inputs": [
        {
          "indexed": true,
          "internalType": "address",
          "name": "previousOwner",
          "type": "address"
        },
        {
          "indexed": true,
          "internalType": "address",
          "name": "newOwner",
          "type": "address"
        }
      ],
      "name": "OwnershipTransferred",
      "type": "event"
    },
    {
      "anonymous": false,
      "inputs": [
        {
          "indexed": false,
          "internalType": "uint256",
          "name": "playerId",
          "type": "uint256"
        }
      ],
      "name": "PlayerAdded",
      "type": "event"
    },
    {
      "anonymous": false,
      "inputs": [
        {
          "indexed": true,
          "internalType": "address",
          "name": "from",
          "type": "address"
        },
        {
          "indexed": true,
          "internalType": "address",
          "name": "to",
          "type": "address"
        },
        {
          "indexed": true,
          "internalType": "uint256",
          "name": "tokenId",
          "type": "uint256"
        }
      ],
      "name": "Transfer",
      "type": "event"
    },
    {
      "anonymous": false,
      "inputs": [
        {
          "indexed": false,
          "internalType": "uint256",
          "name": "playerId",
          "type": "uint256"
        }
      ],
      "name": "Unlisted",
      "type": "event"
    },
    {
      "inputs": [
        {
          "internalType": "string",
          "name": "formation",
          "type": "string"
        },
        {
          "internalType": "string[]",
          "name": "positions",
          "type": "string[]"
        }
      ],
      "name": "addFormation",
      "outputs": [],
      "stateMutability": "nonpayable",
      "type": "function"
    },
    {
      "inputs": [
        {
          "internalType": "uint256",
          "name": "",
          "type": "uint256"
        }
      ],
      "name": "allPositions",
      "outputs": [
        {
          "internalType": "string",
          "name": "",
          "type": "string"
        }
      ],
      "stateMutability": "view",
      "type": "function"
    },
    {
      "inputs": [
        {
          "internalType": "address",
          "name": "to",
          "type": "address"
        },
        {
          "internalType": "uint256",
          "name": "tokenId",
          "type": "uint256"
        }
      ],
      "name": "approve",
      "outputs": [],
      "stateMutability": "nonpayable",
      "type": "function"
    },
    {
      "inputs": [
        {
          "internalType": "address",
          "name": "owner",
          "type": "address"
        }
      ],
      "name": "balanceOf",
      "outputs": [
        {
          "internalType": "uint256",
          "name": "",
          "type": "uint256"
        }
      ],
      "stateMutability": "view",
      "type": "function"
    },
    {
      "inputs": [],
      "name": "cooldown",
      "outputs": [
        {
          "internalType": "uint256",
          "name": "",
          "type": "uint256"
        }
      ],
      "stateMutability": "view",
      "type": "function"
    },
    {
      "inputs": [],
      "name": "earnedThroughTraining",
      "outputs": [
        {
          "internalType": "uint256",
          "name": "",
          "type": "uint256"
        }
      ],
      "stateMutability": "view",
      "type": "function"
    },
    {
      "inputs": [],
      "name": "fee",
      "outputs": [
        {
          "internalType": "uint256",
          "name": "",
          "type": "uint256"
        }
      ],
      "stateMutability": "view",
      "type": "function"
    },
    {
      "inputs": [
        {
          "internalType": "string",
          "name": "",
          "type": "string"
        },
        {
          "internalType": "uint256",
          "name": "",
          "type": "uint256"
        }
      ],
      "name": "formationToPositions",
      "outputs": [
        {
          "internalType": "string",
          "name": "",
          "type": "string"
        }
      ],
      "stateMutability": "view",
      "type": "function"
    },
    {
      "inputs": [
        {
          "internalType": "uint256",
          "name": "",
          "type": "uint256"
        }
      ],
      "name": "formations",
      "outputs": [
        {
          "internalType": "string",
          "name": "",
          "type": "string"
        }
      ],
      "stateMutability": "view",
      "type": "function"
    },
    {
      "inputs": [],
      "name": "getAllFormations",
      "outputs": [
        {
          "internalType": "string[]",
          "name": "",
          "type": "string[]"
        }
      ],
      "stateMutability": "view",
      "type": "function"
    },
    {
      "inputs": [],
      "name": "getAllPositions",
      "outputs": [
        {
          "internalType": "string[]",
          "name": "",
          "type": "string[]"
        }
      ],
      "stateMutability": "view",
      "type": "function"
    },
    {
      "inputs": [
        {
          "internalType": "uint256",
          "name": "tokenId",
          "type": "uint256"
        }
      ],
      "name": "getApproved",
      "outputs": [
        {
          "internalType": "address",
          "name": "",
          "type": "address"
        }
      ],
      "stateMutability": "view",
      "type": "function"
    },
    {
      "inputs": [],
      "name": "getBalance",
      "outputs": [
        {
          "internalType": "uint256",
          "name": "",
          "type": "uint256"
        }
      ],
      "stateMutability": "view",
      "type": "function"
    },
    {
      "inputs": [
        {
          "internalType": "address",
          "name": "_owner",
          "type": "address"
        }
      ],
      "name": "getLineup",
      "outputs": [
        {
          "components": [
            {
              "internalType": "uint256[11]",
              "name": "playerIds",
              "type": "uint256[11]"
            },
            {
              "internalType": "string[11]",
              "name": "positions",
              "type": "string[11]"
            },
            {
              "internalType": "string",
              "name": "formation",
              "type": "string"
            },
            {
              "internalType": "bool",
              "name": "isValid",
              "type": "bool"
            }
          ],
          "internalType": "struct FutNFT.LineUp",
          "name": "",
          "type": "tuple"
        }
      ],
      "stateMutability": "view",
      "type": "function"
    },
    {
      "inputs": [],
      "name": "getListedPlayers",
      "outputs": [
        {
          "internalType": "uint256[]",
          "name": "",
          "type": "uint256[]"
        }
      ],
      "stateMutability": "view",
      "type": "function"
    },
    {
      "inputs": [],
      "name": "getOpponent",
      "outputs": [
        {
          "internalType": "address",
          "name": "",
          "type": "address"
        }
      ],
      "stateMutability": "nonpayable",
      "type": "function"
    },
    {
      "inputs": [
        {
          "internalType": "uint256",
          "name": "_id",
          "type": "uint256"
        }
      ],
      "name": "getPlayer",
      "outputs": [
        {
          "components": [
            {
              "internalType": "string",
              "name": "name",
              "type": "string"
            },
            {
              "internalType": "string",
              "name": "preferredPosition",
              "type": "string"
            },
            {
              "internalType": "uint256",
              "name": "id",
              "type": "uint256"
            },
            {
              "internalType": "uint8",
              "name": "age",
              "type": "uint8"
            },
            {
              "internalType": "uint8",
              "name": "level",
              "type": "uint8"
            },
            {
              "internalType": "uint64",
              "name": "lastUpgrade",
              "type": "uint64"
            },
            {
              "internalType": "string[]",
              "name": "suitablePositions",
              "type": "string[]"
            },
            {
              "internalType": "string",
              "name": "imageURI",
              "type": "string"
            }
          ],
          "internalType": "struct FutNFT.Player",
          "name": "",
          "type": "tuple"
        }
      ],
      "stateMutability": "view",
      "type": "function"
    },
    {
      "inputs": [
        {
          "internalType": "uint256",
          "name": "_id",
          "type": "uint256"
        }
      ],
      "name": "getPlayerExists",
      "outputs": [
        {
          "internalType": "bool",
          "name": "",
          "type": "bool"
        }
      ],
      "stateMutability": "view",
      "type": "function"
    },
    {
      "inputs": [
        {
          "internalType": "address",
          "name": "_owner",
          "type": "address"
        }
      ],
      "name": "getPlayersByOwner",
      "outputs": [
        {
          "internalType": "uint256[]",
          "name": "",
          "type": "uint256[]"
        }
      ],
      "stateMutability": "view",
      "type": "function"
    },
    {
      "inputs": [
        {
          "internalType": "string",
          "name": "formation",
          "type": "string"
        }
      ],
      "name": "getPositionsFromFormation",
      "outputs": [
        {
          "internalType": "string[]",
          "name": "",
          "type": "string[]"
        }
      ],
      "stateMutability": "view",
      "type": "function"
    },
    {
      "inputs": [],
      "name": "getRandomNumber",
      "outputs": [
        {
          "internalType": "bytes32",
          "name": "requestId",
          "type": "bytes32"
        }
      ],
      "stateMutability": "nonpayable",
      "type": "function"
    },
    {
      "inputs": [
        {
          "internalType": "address",
          "name": "owner",
          "type": "address"
        },
        {
          "internalType": "address",
          "name": "operator",
          "type": "address"
        }
      ],
      "name": "isApprovedForAll",
      "outputs": [
        {
          "internalType": "bool",
          "name": "",
          "type": "bool"
        }
      ],
      "stateMutability": "view",
      "type": "function"
    },
    {
      "inputs": [],
      "name": "levelPercentNoPosition",
      "outputs": [
        {
          "internalType": "uint256",
          "name": "",
          "type": "uint256"
        }
      ],
      "stateMutability": "view",
      "type": "function"
    },
    {
      "inputs": [],
      "name": "levelPercentSuitablePosition",
      "outputs": [
        {
          "internalType": "uint256",
          "name": "",
          "type": "uint256"
        }
      ],
      "stateMutability": "view",
      "type": "function"
    },
    {
      "inputs": [
        {
          "internalType": "address",
          "name": "",
          "type": "address"
        }
      ],
      "name": "lineUps",
      "outputs": [
        {
          "internalType": "string",
          "name": "formation",
          "type": "string"
        },
        {
          "internalType": "bool",
          "name": "isValid",
          "type": "bool"
        }
      ],
      "stateMutability": "view",
      "type": "function"
    },
    {
      "inputs": [],
      "name": "lineupFee",
      "outputs": [
        {
          "internalType": "uint256",
          "name": "",
          "type": "uint256"
        }
      ],
      "stateMutability": "view",
      "type": "function"
    },
    {
      "inputs": [
        {
          "internalType": "uint256",
          "name": "",
          "type": "uint256"
        }
      ],
      "name": "lineupSet",
      "outputs": [
        {
          "internalType": "address",
          "name": "",
          "type": "address"
        }
      ],
      "stateMutability": "view",
      "type": "function"
    },
    {
      "inputs": [
        {
          "internalType": "uint256",
          "name": "_playerId",
          "type": "uint256"
        },
        {
          "internalType": "uint256",
          "name": "_price",
          "type": "uint256"
        }
      ],
      "name": "list",
      "outputs": [],
      "stateMutability": "nonpayable",
      "type": "function"
    },
    {
      "inputs": [
        {
          "internalType": "uint256",
          "name": "",
          "type": "uint256"
        }
      ],
      "name": "listedPlayers",
      "outputs": [
        {
          "internalType": "uint256",
          "name": "",
          "type": "uint256"
        }
      ],
      "stateMutability": "view",
      "type": "function"
    },
    {
      "inputs": [
        {
          "internalType": "uint256",
          "name": "",
          "type": "uint256"
        }
      ],
      "name": "listedPlayersPrices",
      "outputs": [
        {
          "internalType": "uint256",
          "name": "",
          "type": "uint256"
        }
      ],
      "stateMutability": "view",
      "type": "function"
    },
    {
      "inputs": [],
      "name": "matchFee",
      "outputs": [
        {
          "internalType": "uint256",
          "name": "",
          "type": "uint256"
        }
      ],
      "stateMutability": "view",
      "type": "function"
    },
    {
      "inputs": [],
      "name": "maxLevel",
      "outputs": [
        {
          "internalType": "uint256",
          "name": "",
          "type": "uint256"
        }
      ],
      "stateMutability": "view",
      "type": "function"
    },
    {
      "inputs": [
        {
          "components": [
            {
              "internalType": "string",
              "name": "name",
              "type": "string"
            },
            {
              "internalType": "string",
              "name": "preferredPosition",
              "type": "string"
            },
            {
              "internalType": "uint256",
              "name": "id",
              "type": "uint256"
            },
            {
              "internalType": "uint8",
              "name": "age",
              "type": "uint8"
            },
            {
              "internalType": "uint8",
              "name": "level",
              "type": "uint8"
            },
            {
              "internalType": "uint64",
              "name": "lastUpgrade",
              "type": "uint64"
            },
            {
              "internalType": "string[]",
              "name": "suitablePositions",
              "type": "string[]"
            },
            {
              "internalType": "string",
              "name": "imageURI",
              "type": "string"
            }
          ],
          "internalType": "struct FutNFT.Player",
          "name": "_player",
          "type": "tuple"
        }
      ],
      "name": "mint",
      "outputs": [],
      "stateMutability": "nonpayable",
      "type": "function"
    },
    {
      "inputs": [],
      "name": "name",
      "outputs": [
        {
          "internalType": "string",
          "name": "",
          "type": "string"
        }
      ],
      "stateMutability": "view",
      "type": "function"
    },
    {
      "inputs": [],
      "name": "owner",
      "outputs": [
        {
          "internalType": "address",
          "name": "",
          "type": "address"
        }
      ],
      "stateMutability": "view",
      "type": "function"
    },
    {
      "inputs": [
        {
          "internalType": "uint256",
          "name": "tokenId",
          "type": "uint256"
        }
      ],
      "name": "ownerOf",
      "outputs": [
        {
          "internalType": "address",
          "name": "",
          "type": "address"
        }
      ],
      "stateMutability": "view",
      "type": "function"
    },
    {
      "inputs": [],
      "name": "play",
      "outputs": [],
      "stateMutability": "payable",
      "type": "function"
    },
    {
      "inputs": [
        {
          "internalType": "uint256",
          "name": "",
          "type": "uint256"
        }
      ],
      "name": "playerToOwner",
      "outputs": [
        {
          "internalType": "address",
          "name": "",
          "type": "address"
        }
      ],
      "stateMutability": "view",
      "type": "function"
    },
    {
      "inputs": [],
      "name": "randomResult",
      "outputs": [
        {
          "internalType": "uint256",
          "name": "",
          "type": "uint256"
        }
      ],
      "stateMutability": "view",
      "type": "function"
    },
    {
      "inputs": [
        {
          "internalType": "bytes32",
          "name": "requestId",
          "type": "bytes32"
        },
        {
          "internalType": "uint256",
          "name": "randomness",
          "type": "uint256"
        }
      ],
      "name": "rawFulfillRandomness",
      "outputs": [],
      "stateMutability": "nonpayable",
      "type": "function"
    },
    {
      "inputs": [],
      "name": "renounceOwnership",
      "outputs": [],
      "stateMutability": "nonpayable",
      "type": "function"
    },
    {
      "inputs": [
        {
          "internalType": "address",
          "name": "from",
          "type": "address"
        },
        {
          "internalType": "address",
          "name": "to",
          "type": "address"
        },
        {
          "internalType": "uint256",
          "name": "tokenId",
          "type": "uint256"
        }
      ],
      "name": "safeTransferFrom",
      "outputs": [],
      "stateMutability": "nonpayable",
      "type": "function"
    },
    {
      "inputs": [
        {
          "internalType": "address",
          "name": "from",
          "type": "address"
        },
        {
          "internalType": "address",
          "name": "to",
          "type": "address"
        },
        {
          "internalType": "uint256",
          "name": "tokenId",
          "type": "uint256"
        },
        {
          "internalType": "bytes",
          "name": "_data",
          "type": "bytes"
        }
      ],
      "name": "safeTransferFrom",
      "outputs": [],
      "stateMutability": "nonpayable",
      "type": "function"
    },
    {
      "inputs": [
        {
          "internalType": "address",
          "name": "operator",
          "type": "address"
        },
        {
          "internalType": "bool",
          "name": "approved",
          "type": "bool"
        }
      ],
      "name": "setApprovalForAll",
      "outputs": [],
      "stateMutability": "nonpayable",
      "type": "function"
    },
    {
      "inputs": [
        {
          "internalType": "uint256",
          "name": "_cooldown",
          "type": "uint256"
        }
      ],
      "name": "setCooldown",
      "outputs": [],
      "stateMutability": "nonpayable",
      "type": "function"
    },
    {
      "inputs": [
        {
          "internalType": "uint256",
          "name": "_size",
          "type": "uint256"
        }
      ],
      "name": "setDefaultArraySize",
      "outputs": [],
      "stateMutability": "nonpayable",
      "type": "function"
    },
    {
      "inputs": [
        {
          "internalType": "uint256",
          "name": "_fee",
          "type": "uint256"
        }
      ],
      "name": "setFee",
      "outputs": [],
      "stateMutability": "nonpayable",
      "type": "function"
    },
    {
      "inputs": [
        {
          "internalType": "uint256",
          "name": "_percent",
          "type": "uint256"
        }
      ],
      "name": "setLevelPercentNoPosition",
      "outputs": [],
      "stateMutability": "nonpayable",
      "type": "function"
    },
    {
      "inputs": [
        {
          "internalType": "uint256",
          "name": "_percent",
          "type": "uint256"
        }
      ],
      "name": "setLevelPercentSuitablePosition",
      "outputs": [],
      "stateMutability": "nonpayable",
      "type": "function"
    },
    {
      "inputs": [
        {
          "internalType": "uint256[11]",
          "name": "_playerIds",
          "type": "uint256[11]"
        },
        {
          "internalType": "string[11]",
          "name": "_positions",
          "type": "string[11]"
        },
        {
          "internalType": "string",
          "name": "_formation",
          "type": "string"
        }
      ],
      "name": "setLineUp",
      "outputs": [
        {
          "internalType": "uint256",
          "name": "",
          "type": "uint256"
        }
      ],
      "stateMutability": "payable",
      "type": "function"
    },
    {
      "inputs": [
        {
          "internalType": "uint256",
          "name": "_fee",
          "type": "uint256"
        }
      ],
      "name": "setLineupFee",
      "outputs": [],
      "stateMutability": "nonpayable",
      "type": "function"
    },
    {
      "inputs": [
        {
          "internalType": "uint256",
          "name": "_fee",
          "type": "uint256"
        }
      ],
      "name": "setMatchFee",
      "outputs": [],
      "stateMutability": "nonpayable",
      "type": "function"
    },
    {
      "inputs": [
        {
          "internalType": "uint256",
          "name": "_level",
          "type": "uint256"
        }
      ],
      "name": "setMaxLevel",
      "outputs": [],
      "stateMutability": "nonpayable",
      "type": "function"
    },
    {
      "inputs": [
        {
          "internalType": "bytes4",
          "name": "interfaceId",
          "type": "bytes4"
        }
      ],
      "name": "supportsInterface",
      "outputs": [
        {
          "internalType": "bool",
          "name": "",
          "type": "bool"
        }
      ],
      "stateMutability": "view",
      "type": "function"
    },
    {
      "inputs": [],
      "name": "symbol",
      "outputs": [
        {
          "internalType": "string",
          "name": "",
          "type": "string"
        }
      ],
      "stateMutability": "view",
      "type": "function"
    },
    {
      "inputs": [
        {
          "internalType": "uint256",
          "name": "index",
          "type": "uint256"
        }
      ],
      "name": "tokenByIndex",
      "outputs": [
        {
          "internalType": "uint256",
          "name": "",
          "type": "uint256"
        }
      ],
      "stateMutability": "view",
      "type": "function"
    },
    {
      "inputs": [
        {
          "internalType": "address",
          "name": "owner",
          "type": "address"
        },
        {
          "internalType": "uint256",
          "name": "index",
          "type": "uint256"
        }
      ],
      "name": "tokenOfOwnerByIndex",
      "outputs": [
        {
          "internalType": "uint256",
          "name": "",
          "type": "uint256"
        }
      ],
      "stateMutability": "view",
      "type": "function"
    },
    {
      "inputs": [
        {
          "internalType": "uint256",
          "name": "tokenId",
          "type": "uint256"
        }
      ],
      "name": "tokenURI",
      "outputs": [
        {
          "internalType": "string",
          "name": "",
          "type": "string"
        }
      ],
      "stateMutability": "view",
      "type": "function"
    },
    {
      "inputs": [],
      "name": "totalSupply",
      "outputs": [
        {
          "internalType": "uint256",
          "name": "",
          "type": "uint256"
        }
      ],
      "stateMutability": "view",
      "type": "function"
    },
    {
      "inputs": [
        {
          "internalType": "uint256",
          "name": "_playerId",
          "type": "uint256"
        }
      ],
      "name": "train",
      "outputs": [],
      "stateMutability": "payable",
      "type": "function"
    },
    {
      "inputs": [
        {
          "internalType": "address",
          "name": "from",
          "type": "address"
        },
        {
          "internalType": "address",
          "name": "to",
          "type": "address"
        },
        {
          "internalType": "uint256",
          "name": "tokenId",
          "type": "uint256"
        }
      ],
      "name": "transferFrom",
      "outputs": [],
      "stateMutability": "nonpayable",
      "type": "function"
    },
    {
      "inputs": [
        {
          "internalType": "address",
          "name": "newOwner",
          "type": "address"
        }
      ],
      "name": "transferOwnership",
      "outputs": [],
      "stateMutability": "nonpayable",
      "type": "function"
    },
    {
      "inputs": [
        {
          "internalType": "uint256",
          "name": "_playerId",
          "type": "uint256"
        }
      ],
      "name": "transferPlayer",
      "outputs": [],
      "stateMutability": "payable",
      "type": "function"
    },
    {
      "inputs": [
        {
          "internalType": "uint256",
          "name": "_playerId",
          "type": "uint256"
        }
      ],
      "name": "unlist",
      "outputs": [],
      "stateMutability": "nonpayable",
      "type": "function"
    },
    {
      "inputs": [
        {
          "internalType": "uint256",
          "name": "_price",
          "type": "uint256"
        }
      ],
      "name": "withdraw",
      "outputs": [],
      "stateMutability": "nonpayable",
      "type": "function"
    }
  ],
  "bytecode": "0x60c0604052606460135561a8c06014556729a2241af62c0000601555600060165560646017556706f05b59d3b200006021556729a2241af62c00006022553480156200004a57600080fd5b506040805180820182526006815265119d5d13919560d21b6020808301918252835180850190945260048452631193919560e21b908401528151738c7382f9d8f56b33781fe506e897a4f1e2d172559373326c977e6efc84e512bb9c30f76e30c160ed06fb93929091620000c19160009162000706565b508051620000d790600190602084019062000706565b505050620000f4620000ee620006b060201b60201c565b620006b4565b6001600160a01b0391821660a052166080527f6e75b569a01ef56d18cab6a8e71e6600d6ce853834d4a5748b720d06f878b3a460195567016345785d8a0000601a55601f805460018101825560009190915260408051808201909152600580825264342d332d3360d81b602092909201918252620001859260008051602062005a7283398151915201919062000706565b5060405180610160016040528060405180604001604052806002815260200161474b60f01b815250815260200160405180604001604052806002815260200161262160f11b81525081526020016040518060400160405280600281526020016121a160f11b81525081526020016040518060400160405280600281526020016121a160f11b815250815260200160405180604001604052806002815260200161292160f11b81525081526020016040518060400160405280600381526020016221a6a360e91b81525081526020016040518060400160405280600381526020016221a6a360e91b81525081526020016040518060400160405280600381526020016221a6a360e91b815250815260200160405180604001604052806003815260200162262ba360e91b81525081526020016040518060400160405280600281526020016114d560f21b815250815260200160405180604001604052806003815260200162292ba360e91b815250815250601e604051620003109064342d332d3360d81b815260050190565b9081526040519081900360200190206200032c91600b62000795565b50601f805460018101825560009190915260408051808201909152600c8082526b342d332d332061747461636b60a01b6020909201918252620003829260008051602062005a7283398151915201919062000706565b5060405180610160016040528060405180604001604052806002815260200161474b60f01b815250815260200160405180604001604052806002815260200161262160f11b81525081526020016040518060400160405280600281526020016121a160f11b81525081526020016040518060400160405280600281526020016121a160f11b815250815260200160405180604001604052806002815260200161292160f11b81525081526020016040518060400160405280600381526020016221a6a360e91b81525081526020016040518060400160405280600381526020016220a6a360e91b81525081526020016040518060400160405280600381526020016221a6a360e91b815250815260200160405180604001604052806003815260200162292ba360e91b81525081526020016040518060400160405280600281526020016114d560f21b815250815260200160405180604001604052806003815260200162262ba360e91b815250815250601e60405162000514906b342d332d332061747461636b60a01b8152600c0190565b9081526040519081900360200190206200053091600b62000795565b50604080516101e08101825260036101a0820181815262262ba360e91b6101c084015282528251808401845260028082526114d560f21b602083810191909152808501929092528451808601865283815262292ba360e91b8184015284860152845180860186528181526121a360f11b818401526060850152845180860186528381526220a6a360e91b818401526080850152845180860186528381526221a6a360e91b8184015260a085015284518086018652838152622226a360e91b8184015260c085015284518086018652838152622626a360e91b8184015260e085015284518086018652928352622926a360e91b838301526101008401929092528351808501855282815261292160f11b818301526101208401528351808501855282815261262160f11b81830152610140840152835180850185528281526121a160f11b81830152610160840152835180850190945290835261474b60f01b83820152610180820192909252620006a99190600d620007f5565b50620008fe565b3390565b600a80546001600160a01b038381166001600160a01b0319831681179093556040519116919082907f8be0079c531659141344cd1fd0a4f28419497f9722a3daafe3b4186f6b6457e090600090a35050565b8280546200071490620008c1565b90600052602060002090601f01602090048101928262000738576000855562000783565b82601f106200075357805160ff191683800117855562000783565b8280016001018555821562000783579182015b828111156200078357825182559160200191906001019062000766565b506200079192915062000847565b5090565b828054828255906000526020600020908101928215620007e7579160200282015b82811115620007e75782518051620007d691849160209091019062000706565b5091602001919060010190620007b6565b50620007919291506200085e565b828054828255906000526020600020908101928215620007e7579160200282015b82811115620007e757825180516200083691849160209091019062000706565b509160200191906001019062000816565b5b8082111562000791576000815560010162000848565b80821115620007915760006200087582826200087f565b506001016200085e565b5080546200088d90620008c1565b6000825580601f106200089e575050565b601f016020900490600052602060002090810190620008be919062000847565b50565b600181811c90821680620008d657607f821691505b60208210811415620008f857634e487b7160e01b600052602260045260246000fd5b50919050565b60805160a051615140620009326000396000818161208b015261393b0152600081816125f9015261390c01526151406000f3fe6080604052600436106103ce5760003560e01c8063787a08a6116101fd578063c87b56dd11610118578063e55ae4e8116100ab578063e985e9c51161007a578063e985e9c514610b03578063eef2fc1f14610b4c578063f2eeb53614610b6c578063f2fde38b14610b8c578063fd32f91814610bac57600080fd5b8063e55ae4e814610a69578063e5f7322f14610a96578063e6b27a8414610ac3578063e871396514610ae357600080fd5b8063d6c0ecc8116100e7578063d6c0ecc814610a08578063dbdff2c114610a28578063ddca3f4314610a3d578063e1a51a6214610a5357600080fd5b8063c87b56dd1461099c578063cc06c359146109bc578063cdbac3b5146109d2578063d444bfc7146109f257600080fd5b8063975b1cd211610190578063bac0764e1161015f578063bac0764e1461091c578063bd820bd61461093c578063bf5a4dd31461095c578063c7c9cbe11461097c57600080fd5b8063975b1cd21461089c578063a22cb465146108bc578063b1bcaec2146108dc578063b88d4fde146108fc57600080fd5b8063923e5c6a116101cc578063923e5c6a1461083f57806393e84cd91461085f57806394985ddd1461086757806395d89b411461088757600080fd5b8063787a08a6146107df578063862da878146107f55780638da5cb5b1461080b5780638f07423b1461082957600080fd5b806339580054116102ed57806354359fd41161028057806367d80c521161024f57806367d80c521461077757806369fe0e2d1461078a57806370a08231146107aa578063715018a6146107ca57600080fd5b806354359fd4146106d2578063580adaa3146106f25780636352211e1461072a578063643322851461074a57600080fd5b80634bdf51f7116102bc5780634bdf51f71461065d5780634f6ccce7146106725780634fc3f41a1461069257806350fd7367146106b257600080fd5b806339580054146105f25780633eec23f71461060757806342619f661461062757806342842e0e1461063d57600080fd5b806318f56a0a116103655780632f4c3a84116103345780632f4c3a841461058c5780632f745c591461059f578063344f1ba5146105bf578063368004ed146105df57600080fd5b806318f56a0a146104f457806319b90d271461051657806323b872dd1461054c5780632e1a7d4d1461056c57600080fd5b8063095ea7b3116103a1578063095ea7b3146104845780630a4d78e3146104a657806312065fe0146104ca57806318160ddd146104df57600080fd5b806301ffc9a7146103d357806305901e891461040857806306fdde031461042a578063081812fc1461044c575b600080fd5b3480156103df57600080fd5b506103f36103ee366004614362565b610bda565b60405190151581526020015b60405180910390f35b34801561041457600080fd5b5061041d610beb565b6040516103ff919061437f565b34801561043657600080fd5b5061043f610c43565b6040516103ff919061441b565b34801561045857600080fd5b5061046c61046736600461442e565b610ccc565b6040516001600160a01b0390911681526020016103ff565b34801561049057600080fd5b506104a461049f366004614463565b610d66565b005b3480156104b257600080fd5b506104bc60215481565b6040519081526020016103ff565b3480156104d657600080fd5b506104bc610e7c565b3480156104eb57600080fd5b506008546104bc565b34801561050057600080fd5b50610509610eae565b6040516103ff919061448d565b34801561052257600080fd5b5061046c61053136600461442e565b600d602052600090815260409020546001600160a01b031681565b34801561055857600080fd5b506104a46105673660046144ef565b610f87565b34801561057857600080fd5b506104a461058736600461442e565b610fb8565b6104a461059a36600461442e565b6110ea565b3480156105ab57600080fd5b506104bc6105ba366004614463565b61120a565b3480156105cb57600080fd5b506104a46105da36600461442e565b6112a0565b6104a46105ed36600461442e565b6112cf565b3480156105fe57600080fd5b5061046c611548565b34801561061357600080fd5b5061043f610622366004614634565b6116af565b34801561063357600080fd5b506104bc601b5481565b34801561064957600080fd5b506104a46106583660046144ef565b611777565b34801561066957600080fd5b50610509611792565b34801561067e57600080fd5b506104bc61068d36600461442e565b611862565b34801561069e57600080fd5b506104a46106ad36600461442e565b6118f5565b3480156106be57600080fd5b506104a46106cd366004614678565b611924565b3480156106de57600080fd5b506104a46106ed36600461442e565b611b35565b3480156106fe57600080fd5b506103f361070d36600461442e565b6000908152600d60205260409020546001600160a01b0316151590565b34801561073657600080fd5b5061046c61074536600461442e565b611b64565b34801561075657600080fd5b506104bc61076536600461442e565b600f6020526000908152604090205481565b6104bc61078536600461470d565b611b6f565b34801561079657600080fd5b506104a46107a536600461442e565b611cf4565b3480156107b657600080fd5b506104bc6107c53660046147bd565b611d23565b3480156107d657600080fd5b506104a4611daa565b3480156107eb57600080fd5b506104bc60145481565b34801561080157600080fd5b506104bc60225481565b34801561081757600080fd5b50600a546001600160a01b031661046c565b34801561083557600080fd5b506104bc601c5481565b34801561084b57600080fd5b506104bc61085a36600461442e565b611de0565b6104a4611e01565b34801561087357600080fd5b506104a4610882366004614678565b612080565b34801561089357600080fd5b5061043f6120fe565b3480156108a857600080fd5b5061046c6108b736600461442e565b61210d565b3480156108c857600080fd5b506104a46108d73660046147e6565b612137565b3480156108e857600080fd5b506104a46108f736600461442e565b612142565b34801561090857600080fd5b506104a461091736600461481d565b612171565b34801561092857600080fd5b5061043f61093736600461442e565b6121a3565b34801561094857600080fd5b50610509610957366004614898565b6121ce565b34801561096857600080fd5b506104a461097736600461442e565b6122c5565b34801561098857600080fd5b506104a461099736600461496a565b6123ef565b3480156109a857600080fd5b5061043f6109b736600461442e565b61248f565b3480156109c857600080fd5b506104bc60175481565b3480156109de57600080fd5b506104a46109ed36600461442e565b612577565b3480156109fe57600080fd5b506104bc601d5481565b348015610a1457600080fd5b506104a4610a2336600461442e565b6125a6565b348015610a3457600080fd5b506104bc6125d5565b348015610a4957600080fd5b506104bc60155481565b348015610a5f57600080fd5b506104bc60165481565b348015610a7557600080fd5b50610a89610a8436600461442e565b6126d9565b6040516103ff9190614a22565b348015610aa257600080fd5b50610ab6610ab13660046147bd565b612a22565b6040516103ff9190614adf565b348015610acf57600080fd5b506104a4610ade36600461442e565b612bec565b348015610aef57600080fd5b5061043f610afe36600461442e565b612c1b565b348015610b0f57600080fd5b506103f3610b1e366004614ba1565b6001600160a01b03918216600090815260056020908152604080832093909416825291909152205460ff1690565b348015610b5857600080fd5b5061041d610b673660046147bd565b612c2b565b348015610b7857600080fd5b506104a4610b87366004614bfc565b612d6f565b348015610b9857600080fd5b506104a4610ba73660046147bd565b612f76565b348015610bb857600080fd5b50610bcc610bc73660046147bd565b613011565b6040516103ff929190614d12565b6000610be5826130ba565b92915050565b60606011805480602002602001604051908101604052809291908181526020018280548015610c3957602002820191906000526020600020905b815481526020019060010190808311610c25575b5050505050905090565b606060008054610c5290614d36565b80601f0160208091040260200160405190810160405280929190818152602001828054610c7e90614d36565b8015610c395780601f10610ca057610100808354040283529160200191610c39565b820191906000526020600020905b815481529060010190602001808311610cae57509395945050505050565b6000818152600260205260408120546001600160a01b0316610d4a5760405162461bcd60e51b815260206004820152602c60248201527f4552433732313a20617070726f76656420717565727920666f72206e6f6e657860448201526b34b9ba32b73a103a37b5b2b760a11b60648201526084015b60405180910390fd5b506000908152600460205260409020546001600160a01b031690565b6000610d71826130df565b9050806001600160a01b0316836001600160a01b03161415610ddf5760405162461bcd60e51b815260206004820152602160248201527f4552433732313a20617070726f76616c20746f2063757272656e74206f776e656044820152603960f91b6064820152608401610d41565b336001600160a01b0382161480610dfb5750610dfb8133610b1e565b610e6d5760405162461bcd60e51b815260206004820152603860248201527f4552433732313a20617070726f76652063616c6c6572206973206e6f74206f7760448201527f6e6572206e6f7220617070726f76656420666f7220616c6c00000000000000006064820152608401610d41565b610e778383613156565b505050565b600a546000906001600160a01b03163314610ea95760405162461bcd60e51b8152600401610d4190614d6b565b504790565b60606020805480602002602001604051908101604052809291908181526020016000905b82821015610f7e578382906000526020600020018054610ef190614d36565b80601f0160208091040260200160405190810160405280929190818152602001828054610f1d90614d36565b8015610f6a5780601f10610f3f57610100808354040283529160200191610f6a565b820191906000526020600020905b815481529060010190602001808311610f4d57829003601f168201915b505050505081526020019060010190610ed2565b50505050905090565b610f9133826131c4565b610fad5760405162461bcd60e51b8152600401610d4190614da0565b610e778383836132bb565b600a546001600160a01b03163314610fe25760405162461bcd60e51b8152600401610d4190614d6b565b80471161103c5760405162461bcd60e51b815260206004820152602260248201527f5468652070726963652069732067726561746572207468616e2062616c616e63604482015261652160f01b6064820152608401610d41565b604051600090339083908381818185875af1925050503d806000811461107e576040519150601f19603f3d011682016040523d82523d6000602084013e611083565b606091505b50509050806110e65760405162461bcd60e51b815260206004820152602960248201527f5472616e73616374696f6e206661696c65642c20636f756c64206e6f742073656044820152686e642066756e64732160b81b6064820152608401610d41565b5050565b6000818152600e602052604090205481906111175760405162461bcd60e51b8152600401610d4190614df1565b6000828152600f6020526040902054341461113157600080fd5b600061113c83611b64565b90506000816001600160a01b03163460405160006040518083038185875af1925050503d806000811461118b576040519150601f19603f3d011682016040523d82523d6000602084013e611190565b606091505b50509050806111d25760405162461bcd60e51b815260206004820152600e60248201526d11985a5b1959081d1bc81cd95b9960921b6044820152606401610d41565b6111dd8233866132bb565b6000848152600d6020526040902080546001600160a01b03191633179055611204846122c5565b50505050565b600061121583611d23565b82106112775760405162461bcd60e51b815260206004820152602b60248201527f455243373231456e756d657261626c653a206f776e657220696e646578206f7560448201526a74206f6620626f756e647360a81b6064820152608401610d41565b506001600160a01b03919091166000908152600660209081526040808320938352929052205490565b600a546001600160a01b031633146112ca5760405162461bcd60e51b8152600401610d4190614d6b565b601755565b6014546000828152600c602052604090206003015482919042906113039083906201000090046001600160401b0316614e4f565b11156113515760405162461bcd60e51b815260206004820152601c60248201527f436f6f6c646f776e20706572696f64206973206e6f74206f76657221000000006044820152606401610d41565b6017546000848152600c60205260409020600301548490610100900460ff1682116113be5760405162461bcd60e51b815260206004820152601d60248201527f506c61796572206861732072656163686564206d6178206c6576656c210000006044820152606401610d41565b6000858152600d602052604090205485906001600160a01b03166113f45760405162461bcd60e51b8152600401610d4190614e67565b6113fd81611b64565b6001600160a01b0316336001600160a01b03161461142d5760405162461bcd60e51b8152600401610d4190614e96565b60155434101561147f5760405162461bcd60e51b815260206004820152601960248201527f526571756972656420666565206973206e6f742073656e7421000000000000006044820152606401610d41565b6000868152600c602052604090206003018054610100900460ff169060016114a683614ebe565b82546101009290920a60ff818102199093169190921691909102179055506000868152600c60205260408120600301805469ffffffffffffffff0000191662010000426001600160401b03160217905560168054349290611508908490614e4f565b90915550506040518681527f6a1b6f91db361bdf7356d3942ed64f2ee2fea430979dbba7ea23f44e8b2110079060200160405180910390a1505050505050565b3360008181526010602052604081206017015490919060ff1661157d5760405162461bcd60e51b8152600401610d4190614ede565b6023546001106115c85760405162461bcd60e51b8152602060048201526016602482015275506c6179657273206e6f7420617661696c61626c652160501b6044820152606401610d41565b6115d06125d5565b50602354601b546115e19190614f1b565b6115ec906001614e4f565b601b81905560009060239061160390600190614f2f565b8154811061161357611613614f46565b6000918252602090912001546001600160a01b03169050338114156116a857602354601b54141561167b5760236002601b5461164f9190614f2f565b8154811061165f5761165f614f46565b6000918252602090912001546001600160a01b031690506116a8565b6023601b548154811061169057611690614f46565b6000918252602090912001546001600160a01b031690505b91505b5090565b8151602081840181018051601e8252928201918501919091209190528054829081106116da57600080fd5b906000526020600020016000915091505080546116f690614d36565b80601f016020809104026020016040519081016040528092919081815260200182805461172290614d36565b801561176f5780601f106117445761010080835404028352916020019161176f565b820191906000526020600020905b81548152906001019060200180831161175257829003601f168201915b505050505081565b610e7783838360405180602001604052806000815250612171565b6060601f805480602002602001604051908101604052809291908181526020016000905b82821015610f7e5783829060005260206000200180546117d590614d36565b80601f016020809104026020016040519081016040528092919081815260200182805461180190614d36565b801561184e5780601f106118235761010080835404028352916020019161184e565b820191906000526020600020905b81548152906001019060200180831161183157829003601f168201915b5050505050815260200190600101906117b6565b600061186d60085490565b82106118d05760405162461bcd60e51b815260206004820152602c60248201527f455243373231456e756d657261626c653a20676c6f62616c20696e646578206f60448201526b7574206f6620626f756e647360a01b6064820152608401610d41565b600882815481106118e3576118e3614f46565b90600052602060002001549050919050565b600a546001600160a01b0316331461191f5760405162461bcd60e51b8152600401610d4190614d6b565b601455565b6000828152600d602052604090205482906001600160a01b031661195a5760405162461bcd60e51b8152600401610d4190614e67565b61196381611b64565b6001600160a01b0316336001600160a01b0316146119935760405162461bcd60e51b8152600401610d4190614e96565b6000838152600e6020526040902054839015611a065760405162461bcd60e51b815260206004820152602c60248201527f5468697320706c6179657220697320616c7265616479206c6973746564206f6e60448201526b20746865206d61726b65742160a01b6064820152608401610d41565b60005b600b811015611aa75733600090815260106020526040812082600b8110611a3257611a32614f46565b0154905085811415611a945760405162461bcd60e51b815260206004820152602560248201527f506c6179657220697320696e20746865206c696e6575702c2063616e6e6f74206044820152646c6973742160d81b6064820152608401610d41565b5080611a9f81614f5c565b915050611a09565b50601180546001810182557f31ecc21a745e3968a04e9570e4425bc18fa8019c68028196b546d1669c200c68018590556000858152600f602090815260408083208790559254600e9091529082902055517ff3ecdc9ffda52c5ad69793c567cb456f83bba2d14f196542e0be80c919a8bda390611b279086815260200190565b60405180910390a150505050565b600a546001600160a01b03163314611b5f5760405162461bcd60e51b8152600401610d4190614d6b565b602255565b6000610be5826130df565b60008360005b600b811015611bc35733611b9e8383600b8110611b9457611b94614f46565b6020020151611b64565b6001600160a01b031614611bb157600080fd5b80611bbb81614f5c565b915050611b75565b506021543414611c0e5760405162461bcd60e51b8152602060048201526016602482015275526571756972656420666565206e6f742073656e742160501b6044820152606401610d41565b604080516080810182528681526020808201879052818301869052600160608301523360009081526010909152919091208151611c4e908290600b61411f565b506020820151611c6490600b8084019190614159565b5060408201518051611c809160168401916020909101906141a5565b50606091909101516017909101805460ff1916911515919091179055602380546001810182556000919091527fd57b2b5166478fd4318d2acc6cc2c704584312bdd8781b32d5d06abda57f4230018054336001600160a01b03199091168117909155611ceb90613462565b95945050505050565b600a546001600160a01b03163314611d1e5760405162461bcd60e51b8152600401610d4190614d6b565b601555565b60006001600160a01b038216611d8e5760405162461bcd60e51b815260206004820152602a60248201527f4552433732313a2062616c616e636520717565727920666f7220746865207a65604482015269726f206164647265737360b01b6064820152608401610d41565b506001600160a01b031660009081526003602052604090205490565b600a546001600160a01b03163314611dd45760405162461bcd60e51b8152600401610d4190614d6b565b611dde60006136b7565b565b60118181548110611df057600080fd5b600091825260209091200154905081565b3360008181526010602052604090206017015460ff16611e335760405162461bcd60e51b8152600401610d4190614ede565b6022543414611e7d5760405162461bcd60e51b8152602060048201526016602482015275526571756972656420666565206e6f742073656e742160501b6044820152606401610d41565b6000611e87611548565b90506000611e9433613462565b90506000611ea183613462565b9050603281831115611ed457611eb78284614f2f565b611ec2906003614f77565b611ecd906032614e4f565b9050611ef7565b611ede8383614f2f565b611ee9906003614f77565b611ef4906032614f2f565b90505b611eff6125d5565b506064601b54611f0f9190614f1b565b611f1a906001614e4f565b601b8190556000908210611f7c57336000908152600b60205260408120805491611f4383614f5c565b90915550506001600160a01b0385166000908152600b60205260408120600101805491611f6f83614f5c565b9190505550339050611fcc565b336000908152600b60205260408120600101805491611f9a83614f5c565b90915550506001600160a01b0385166000908152600b60205260408120805491611fc383614f5c565b91905055508490505b6000816001600160a01b0316673e7336287142000060405160006040518083038185875af1925050503d8060008114612021576040519150601f19603f3d011682016040523d82523d6000602084013e612026565b606091505b50509050806120775760405162461bcd60e51b815260206004820152601f60248201527f436f756c64206e6f7420636f6d706c657465207472616e73616374696f6e21006044820152606401610d41565b50505050505050565b336001600160a01b037f000000000000000000000000000000000000000000000000000000000000000016146120f85760405162461bcd60e51b815260206004820152601f60248201527f4f6e6c7920565246436f6f7264696e61746f722063616e2066756c66696c6c006044820152606401610d41565b601b5550565b606060018054610c5290614d36565b6023818154811061211d57600080fd5b6000918252602090912001546001600160a01b0316905081565b6110e6338383613709565b600a546001600160a01b0316331461216c5760405162461bcd60e51b8152600401610d4190614d6b565b601355565b61217b33836131c4565b6121975760405162461bcd60e51b8152600401610d4190614da0565b611204848484846137d8565b602081815481106121b357600080fd5b9060005260206000200160009150905080546116f690614d36565b6060601e826040516121e09190614f96565b9081526020016040518091039020805480602002602001604051908101604052809291908181526020016000905b828210156122ba57838290600052602060002001805461222d90614d36565b80601f016020809104026020016040519081016040528092919081815260200182805461225990614d36565b80156122a65780601f1061227b576101008083540402835291602001916122a6565b820191906000526020600020905b81548152906001019060200180831161228957829003601f168201915b50505050508152602001906001019061220e565b505050509050919050565b6000818152600d602052604090205481906001600160a01b03166122fb5760405162461bcd60e51b8152600401610d4190614e67565b61230481611b64565b6001600160a01b0316336001600160a01b0316146123345760405162461bcd60e51b8152600401610d4190614e96565b6000828152600e602052604090205482906123615760405162461bcd60e51b8152600401610d4190614df1565b6000838152600e602052604090205460119061237f90600190614f2f565b8154811061238f5761238f614f46565b6000918252602080832091909101829055848252600e81526040808320839055600f82528083209290925590518481527f6318005f6dc5a71d3e4ad5b4d1fe455ef3402d62b64573777af55bb6bfe3daab910160405180910390a1505050565b600a546001600160a01b031633146124195760405162461bcd60e51b8152600401610d4190614d6b565b80601e8360405161242a9190614f96565b9081526020016040518091039020908051906020019061244b929190614218565b50601f80546001810182556000919091528251610e77917fa03837a25210ee280c2113ff4b77ca23440b19d4866cca721c801278fd08d807019060208501906141a5565b6000818152600260205260409020546060906001600160a01b031661250e5760405162461bcd60e51b815260206004820152602f60248201527f4552433732314d657461646174613a2055524920717565727920666f72206e6f60448201526e3732bc34b9ba32b73a103a37b5b2b760891b6064820152608401610d41565b600061252560408051602081019091526000815290565b905060008151116125455760405180602001604052806000815250612570565b8061254f8461380b565b604051602001612560929190614fb2565b6040516020818303038152906040525b9392505050565b600a546001600160a01b031633146125a15760405162461bcd60e51b8152600401610d4190614d6b565b602155565b600a546001600160a01b031633146125d05760405162461bcd60e51b8152600401610d4190614d6b565b601d55565b601a546040516370a0823160e01b8152306004820152600091906001600160a01b037f000000000000000000000000000000000000000000000000000000000000000016906370a0823190602401602060405180830381865afa158015612640573d6000803e3d6000fd5b505050506040513d601f19601f820116820180604052508101906126649190614fe1565b10156126c65760405162461bcd60e51b815260206004820152602b60248201527f4e6f7420656e6f756768204c494e4b202d2066696c6c20636f6e74726163742060448201526a1dda5d1a0819985d58d95d60aa1b6064820152608401610d41565b6126d4601954601a54613908565b905090565b612730604051806101000160405280606081526020016060815260200160008152602001600060ff168152602001600060ff16815260200160006001600160401b0316815260200160608152602001606081525090565b6000828152600c6020526040908190208151610100810190925280548290829061275990614d36565b80601f016020809104026020016040519081016040528092919081815260200182805461278590614d36565b80156127d25780601f106127a7576101008083540402835291602001916127d2565b820191906000526020600020905b8154815290600101906020018083116127b557829003601f168201915b505050505081526020016001820180546127eb90614d36565b80601f016020809104026020016040519081016040528092919081815260200182805461281790614d36565b80156128645780601f1061283957610100808354040283529160200191612864565b820191906000526020600020905b81548152906001019060200180831161284757829003601f168201915b50505091835250506002820154602080830191909152600383015460ff80821660408086019190915261010083049091166060850152620100009091046001600160401b0316608084015260048401805482518185028101850190935280835260a090940193919290919060009084015b828210156129815783829060005260206000200180546128f490614d36565b80601f016020809104026020016040519081016040528092919081815260200182805461292090614d36565b801561296d5780601f106129425761010080835404028352916020019161296d565b820191906000526020600020905b81548152906001019060200180831161295057829003601f168201915b5050505050815260200190600101906128d5565b50505050815260200160058201805461299990614d36565b80601f01602080910402602001604051908101604052809291908181526020018280546129c590614d36565b8015612a125780601f106129e757610100808354040283529160200191612a12565b820191906000526020600020905b8154815290600101906020018083116129f557829003601f168201915b5050505050815250509050919050565b612a2a614265565b6001600160a01b0382166000908152601060205260409081902081516101e08101909252816080810182600b8282826020028201915b815481526020019060010190808311612a605750505050508152602001600b8201600b80602002604051908101604052809291906000905b82821015612b3b578382018054612aae90614d36565b80601f0160208091040260200160405190810160405280929190818152602001828054612ada90614d36565b8015612b275780601f10612afc57610100808354040283529160200191612b27565b820191906000526020600020905b815481529060010190602001808311612b0a57829003601f168201915b505050505081526020019060010190612a98565b505050508152602001601682018054612b5390614d36565b80601f0160208091040260200160405190810160405280929190818152602001828054612b7f90614d36565b8015612bcc5780601f10612ba157610100808354040283529160200191612bcc565b820191906000526020600020905b815481529060010190602001808311612baf57829003601f168201915b50505091835250506017919091015460ff16151560209091015292915050565b600a546001600160a01b03163314612c165760405162461bcd60e51b8152600401610d4190614d6b565b601c55565b601f81815481106121b357600080fd5b606060006013546001600160401b03811115612c4957612c4961452b565b604051908082528060200260200182016040528015612c72578160200160208202803683370190505b5090506000805b601254811015612d6657846001600160a01b0316600d600060128481548110612ca457612ca4614f46565b600091825260208083209091015483528201929092526040019020546001600160a01b0316148015612d065750600e600060128381548110612ce857612ce8614f46565b90600052602060002001548152602001908152602001600020546000145b15612d545760128181548110612d1e57612d1e614f46565b9060005260206000200154838381518110612d3b57612d3b614f46565b602090810291909101015281612d5081614f5c565b9250505b80612d5e81614f5c565b915050612c79565b50909392505050565b600a546001600160a01b03163314612d995760405162461bcd60e51b8152600401610d4190614d6b565b6040808201516000908152600d60205220546001600160a01b031615612df25760405162461bcd60e51b815260206004820152600e60248201526d506c61796572204578697374732160901b6044820152606401610d41565b6040808201516000908152600c6020908152919020825180518493612e1b9284929101906141a5565b506020828101518051612e3492600185019201906141a5565b50604082015160028201556060820151600382018054608085015160a08601516001600160401b0316620100000269ffffffffffffffff00001960ff9283166101000261ffff199094169290951691909117919091179290921691909117905560c08201518051612eaf916004840191602090910190614218565b5060e08201518051612ecb9160058401916020909101906141a5565b505050604080820180516012805460018101825560009182527fbb8a6a4669ba250d26cd7a459eca9d215f8307e33aebe50379bc5a3617ec3444019190915581518152600d6020529190912080546001600160a01b031916339081179091559051612f369190613a84565b7f5af403e238a3f8f7d43c05ff2fac53c833e031e8fb8ec011b3c8e073d870ad7b8160400151604051612f6b91815260200190565b60405180910390a150565b600a546001600160a01b03163314612fa05760405162461bcd60e51b8152600401610d4190614d6b565b6001600160a01b0381166130055760405162461bcd60e51b815260206004820152602660248201527f4f776e61626c653a206e6577206f776e657220697320746865207a65726f206160448201526564647265737360d01b6064820152608401610d41565b61300e816136b7565b50565b601060205260009081526040902060168101805461302e90614d36565b80601f016020809104026020016040519081016040528092919081815260200182805461305a90614d36565b80156130a75780601f1061307c576101008083540402835291602001916130a7565b820191906000526020600020905b81548152906001019060200180831161308a57829003601f168201915b5050506017909301549192505060ff1682565b60006001600160e01b0319821663780e9d6360e01b1480610be55750610be582613bd2565b6000818152600260205260408120546001600160a01b031680610be55760405162461bcd60e51b815260206004820152602960248201527f4552433732313a206f776e657220717565727920666f72206e6f6e657869737460448201526832b73a103a37b5b2b760b91b6064820152608401610d41565b600081815260046020526040902080546001600160a01b0319166001600160a01b038416908117909155819061318b826130df565b6001600160a01b03167f8c5be1e5ebec7d5bd14f71427d1e84f3dd0314c0f7b2291e5b200ac8c7c3b92560405160405180910390a45050565b6000818152600260205260408120546001600160a01b031661323d5760405162461bcd60e51b815260206004820152602c60248201527f4552433732313a206f70657261746f7220717565727920666f72206e6f6e657860448201526b34b9ba32b73a103a37b5b2b760a11b6064820152608401610d41565b6000613248836130df565b9050806001600160a01b0316846001600160a01b031614806132835750836001600160a01b031661327884610ccc565b6001600160a01b0316145b806132b357506001600160a01b0380821660009081526005602090815260408083209388168352929052205460ff165b949350505050565b826001600160a01b03166132ce826130df565b6001600160a01b0316146133325760405162461bcd60e51b815260206004820152602560248201527f4552433732313a207472616e736665722066726f6d20696e636f72726563742060448201526437bbb732b960d91b6064820152608401610d41565b6001600160a01b0382166133945760405162461bcd60e51b8152602060048201526024808201527f4552433732313a207472616e7366657220746f20746865207a65726f206164646044820152637265737360e01b6064820152608401610d41565b61339f838383613c22565b6133aa600082613156565b6001600160a01b03831660009081526003602052604081208054600192906133d3908490614f2f565b90915550506001600160a01b0382166000908152600360205260408120805460019290613401908490614e4f565b909155505060008181526002602052604080822080546001600160a01b0319166001600160a01b0386811691821790925591518493918716917fddf252ad1be2c89b69c2b068fc378daa952ba7f163c4a11628f55a4df523b3ef91a4505050565b6001600160a01b038116600090815260106020526040812060170154829060ff1661349f5760405162461bcd60e51b8152600401610d4190614ede565b6001600160a01b03831660009081526010602052604080822081516101e08101909252816080810182600b8282826020028201915b8154815260200190600101908083116134d45750505050508152602001600b8201600b80602002604051908101604052809291906000905b828210156135af57838201805461352290614d36565b80601f016020809104026020016040519081016040528092919081815260200182805461354e90614d36565b801561359b5780601f106135705761010080835404028352916020019161359b565b820191906000526020600020905b81548152906001019060200180831161357e57829003601f168201915b50505050508152602001906001019061350c565b5050505081526020016016820180546135c790614d36565b80601f01602080910402602001604051908101604052809291908181526020018280546135f390614d36565b80156136405780601f1061361557610100808354040283529160200191613640565b820191906000526020600020905b81548152906001019060200180831161362357829003601f168201915b50505091835250506017919091015460ff1615156020909101529050600080805b600b8110156136a0576136748482613c2d565b61367e9084614e4f565b92508161368a81614f5c565b925050808061369890614f5c565b915050613661565b506136ab8183614ffa565b94505050505b50919050565b600a80546001600160a01b038381166001600160a01b0319831681179093556040519116919082907f8be0079c531659141344cd1fd0a4f28419497f9722a3daafe3b4186f6b6457e090600090a35050565b816001600160a01b0316836001600160a01b0316141561376b5760405162461bcd60e51b815260206004820152601960248201527f4552433732313a20617070726f766520746f2063616c6c6572000000000000006044820152606401610d41565b6001600160a01b03838116600081815260056020908152604080832094871680845294825291829020805460ff191686151590811790915591519182527f17307eab39ab6107e8899845ad3d59bd9653f200f220920489ca2b5937696c31910160405180910390a3505050565b6137e38484846132bb565b6137ef84848484613cf0565b6112045760405162461bcd60e51b8152600401610d419061500e565b60608161382f5750506040805180820190915260018152600360fc1b602082015290565b8160005b8115613859578061384381614f5c565b91506138529050600a83614ffa565b9150613833565b6000816001600160401b038111156138735761387361452b565b6040519080825280601f01601f19166020018201604052801561389d576020820181803683370190505b5090505b84156132b3576138b2600183614f2f565b91506138bf600a86614f1b565b6138ca906030614e4f565b60f81b8183815181106138df576138df614f46565b60200101906001600160f81b031916908160001a905350613901600a86614ffa565b94506138a1565b60007f00000000000000000000000000000000000000000000000000000000000000006001600160a01b0316634000aea07f000000000000000000000000000000000000000000000000000000000000000084866000604051602001613978929190918252602082015260400190565b6040516020818303038152906040526040518463ffffffff1660e01b81526004016139a593929190615060565b6020604051808303816000875af11580156139c4573d6000803e3d6000fd5b505050506040513d601f19601f820116820180604052508101906139e89190615087565b50600083815260186020818152604080842054815180840189905280830186905230606082015260808082018390528351808303909101815260a090910190925281519183019190912093879052919052613a44906001614e4f565b6000858152601860205260409020556132b38482604080516020808201949094528082019290925280518083038201815260609092019052805191012090565b6001600160a01b038216613ada5760405162461bcd60e51b815260206004820181905260248201527f4552433732313a206d696e7420746f20746865207a65726f20616464726573736044820152606401610d41565b6000818152600260205260409020546001600160a01b031615613b3f5760405162461bcd60e51b815260206004820152601c60248201527f4552433732313a20746f6b656e20616c7265616479206d696e746564000000006044820152606401610d41565b613b4b60008383613c22565b6001600160a01b0382166000908152600360205260408120805460019290613b74908490614e4f565b909155505060008181526002602052604080822080546001600160a01b0319166001600160a01b03861690811790915590518392907fddf252ad1be2c89b69c2b068fc378daa952ba7f163c4a11628f55a4df523b3ef908290a45050565b60006001600160e01b031982166380ac58cd60e01b1480613c0357506001600160e01b03198216635b5e139f60e01b145b80610be557506301ffc9a760e01b6001600160e01b0319831614610be5565b610e77838383613dee565b600080613c53846000015184600b8110613c4957613c49614f46565b60200201516126d9565b90506000846020015184600b8110613c6d57613c6d614f46565b60200201519050600081604051602001613c879190614f96565b604051602081830303815290604052805190602001208360200151604051602001613cb29190614f96565b604051602081830303815290604052805190602001201415613cdc5750608082015160ff16611ceb565b613ce68383613ea6565b9695505050505050565b60006001600160a01b0384163b15613de357604051630a85bd0160e11b81526001600160a01b0385169063150b7a0290613d349033908990889088906004016150a4565b6020604051808303816000875af1925050508015613d6f575060408051601f3d908101601f19168201909252613d6c918101906150d7565b60015b613dc9573d808015613d9d576040519150601f19603f3d011682016040523d82523d6000602084013e613da2565b606091505b508051613dc15760405162461bcd60e51b8152600401610d419061500e565b805181602001fd5b6001600160e01b031916630a85bd0160e11b1490506132b3565b506001949350505050565b6001600160a01b038316613e4957613e4481600880546000838152600960205260408120829055600182018355919091527ff3f7a9fe364faab93b216da50a3214154f22a0a2b415b23a84c8169e8b636ee30155565b613e6c565b816001600160a01b0316836001600160a01b031614613e6c57613e6c8382613f8f565b6001600160a01b038216613e8357610e778161402c565b826001600160a01b0316826001600160a01b031614610e7757610e7782826140db565b6000806064601d54856080015160ff16613ec09190614f77565b613eca9190614ffa565b905060005b8460c0015151811015613f875783604051602001613eed9190614f96565b604051602081830303815290604052805190602001208560c001518281518110613f1957613f19614f46565b6020026020010151604051602001613f319190614f96565b604051602081830303815290604052805190602001201415613f75576064601c54866080015160ff16613f649190614f77565b613f6e9190614ffa565b9150613f87565b80613f7f81614f5c565b915050613ecf565b509392505050565b60006001613f9c84611d23565b613fa69190614f2f565b600083815260076020526040902054909150808214613ff9576001600160a01b03841660009081526006602090815260408083208584528252808320548484528184208190558352600790915290208190555b5060009182526007602090815260408084208490556001600160a01b039094168352600681528383209183525290812055565b60085460009061403e90600190614f2f565b6000838152600960205260408120546008805493945090928490811061406657614066614f46565b90600052602060002001549050806008838154811061408757614087614f46565b60009182526020808320909101929092558281526009909152604080822084905585825281205560088054806140bf576140bf6150f4565b6001900381819060005260206000200160009055905550505050565b60006140e683611d23565b6001600160a01b039093166000908152600660209081526040808320868452825280832085905593825260079052919091209190915550565b82600b810192821561414d579160200282015b8281111561414d578251825591602001919060010190614132565b506116ab929150614299565b82600b8101928215614199579160200282015b8281111561419957825180516141899184916020909101906141a5565b509160200191906001019061416c565b506116ab9291506142ae565b8280546141b190614d36565b90600052602060002090601f0160209004810192826141d3576000855561414d565b82601f106141ec57805160ff191683800117855561414d565b8280016001018555821561414d579182018281111561414d578251825591602001919060010190614132565b828054828255906000526020600020908101928215614199579160200282015b8281111561419957825180516142559184916020909101906141a5565b5091602001919060010190614238565b60405180608001604052806142786142cb565b81526020016142856142ea565b815260606020820152600060409091015290565b5b808211156116ab576000815560010161429a565b808211156116ab5760006142c28282614312565b506001016142ae565b604051806101600160405280600b906020820280368337509192915050565b604051806101600160405280600b905b60608152602001906001900390816142fa5790505090565b50805461431e90614d36565b6000825580601f1061432e575050565b601f01602090049060005260206000209081019061300e9190614299565b6001600160e01b03198116811461300e57600080fd5b60006020828403121561437457600080fd5b81356125708161434c565b6020808252825182820181905260009190848201906040850190845b818110156143b75783518352928401929184019160010161439b565b50909695505050505050565b60005b838110156143de5781810151838201526020016143c6565b838111156112045750506000910152565b600081518084526144078160208601602086016143c3565b601f01601f19169290920160200192915050565b60208152600061257060208301846143ef565b60006020828403121561444057600080fd5b5035919050565b80356001600160a01b038116811461445e57600080fd5b919050565b6000806040838503121561447657600080fd5b61447f83614447565b946020939093013593505050565b6000602080830181845280855180835260408601915060408160051b870101925083870160005b828110156144e257603f198886030184526144d08583516143ef565b945092850192908501906001016144b4565b5092979650505050505050565b60008060006060848603121561450457600080fd5b61450d84614447565b925061451b60208501614447565b9150604084013590509250925092565b634e487b7160e01b600052604160045260246000fd5b60405161010081016001600160401b03811182821017156145645761456461452b565b60405290565b60405161016081016001600160401b03811182821017156145645761456461452b565b604051601f8201601f191681016001600160401b03811182821017156145b5576145b561452b565b604052919050565b60006001600160401b038311156145d6576145d661452b565b6145e9601f8401601f191660200161458d565b90508281528383830111156145fd57600080fd5b828260208301376000602084830101529392505050565b600082601f83011261462557600080fd5b612570838335602085016145bd565b6000806040838503121561464757600080fd5b82356001600160401b0381111561465d57600080fd5b61466985828601614614565b95602094909401359450505050565b6000806040838503121561468b57600080fd5b50508035926020909101359150565b600082601f8301126146ab57600080fd5b6146b361456a565b806101608401858111156146c657600080fd5b845b818110156147025780356001600160401b038111156146e75760008081fd5b6146f388828901614614565b855250602093840193016146c8565b509095945050505050565b60008060006101a0848603121561472357600080fd5b84601f85011261473257600080fd5b61473a61456a565b8061016086018781111561474d57600080fd5b865b8181101561476757803584526020938401930161474f565b509094503590506001600160401b038082111561478357600080fd5b61478f8783880161469a565b93506101808601359150808211156147a657600080fd5b506147b386828701614614565b9150509250925092565b6000602082840312156147cf57600080fd5b61257082614447565b801515811461300e57600080fd5b600080604083850312156147f957600080fd5b61480283614447565b91506020830135614812816147d8565b809150509250929050565b6000806000806080858703121561483357600080fd5b61483c85614447565b935061484a60208601614447565b92506040850135915060608501356001600160401b0381111561486c57600080fd5b8501601f8101871361487d57600080fd5b61488c878235602084016145bd565b91505092959194509250565b6000602082840312156148aa57600080fd5b81356001600160401b038111156148c057600080fd5b6132b384828501614614565b600082601f8301126148dd57600080fd5b813560206001600160401b03808311156148f9576148f961452b565b8260051b61490883820161458d565b938452858101830193838101908886111561492257600080fd5b84880192505b8583101561495e578235848111156149405760008081fd5b61494e8a87838c0101614614565b8352509184019190840190614928565b98975050505050505050565b6000806040838503121561497d57600080fd5b82356001600160401b038082111561499457600080fd5b6149a086838701614614565b935060208501359150808211156149b657600080fd5b506149c3858286016148cc565b9150509250929050565b600081518084526020808501808196508360051b8101915082860160005b85811015614a15578284038952614a038483516143ef565b988501989350908401906001016149eb565b5091979650505050505050565b6020815260008251610100806020850152614a416101208501836143ef565b91506020850151601f1980868503016040870152614a5f84836143ef565b93506040870151606087015260608701519150614a81608087018360ff169052565b608087015160ff811660a0880152915060a08701516001600160401b03811660c0880152915060c08701519150808685030160e0870152614ac284836149cd565b935060e0870151915080868503018387015250613ce683826143ef565b60208082528251600091906101e08401838584015b600b821015614b13578351815292840192600191909101908401614af4565b5050858301516101c0610180870181905290925061034086019160005b600b811015614b60576101df19888503018252614b4e8486516143ef565b94860194935090850190600101614b30565b50506040870151868303601f19016101a08801529350614b8082856143ef565b935060608701519250614b968187018415159052565b509195945050505050565b60008060408385031215614bb457600080fd5b614bbd83614447565b9150614bcb60208401614447565b90509250929050565b803560ff8116811461445e57600080fd5b80356001600160401b038116811461445e57600080fd5b600060208284031215614c0e57600080fd5b81356001600160401b0380821115614c2557600080fd5b908301906101008286031215614c3a57600080fd5b614c42614541565b823582811115614c5157600080fd5b614c5d87828601614614565b825250602083013582811115614c7257600080fd5b614c7e87828601614614565b60208301525060408301356040820152614c9a60608401614bd4565b6060820152614cab60808401614bd4565b6080820152614cbc60a08401614be5565b60a082015260c083013582811115614cd357600080fd5b614cdf878286016148cc565b60c08301525060e083013582811115614cf757600080fd5b614d0387828601614614565b60e08301525095945050505050565b604081526000614d2560408301856143ef565b905082151560208301529392505050565b600181811c90821680614d4a57607f821691505b602082108114156136b157634e487b7160e01b600052602260045260246000fd5b6020808252818101527f4f776e61626c653a2063616c6c6572206973206e6f7420746865206f776e6572604082015260600190565b60208082526031908201527f4552433732313a207472616e736665722063616c6c6572206973206e6f74206f6040820152701ddb995c881b9bdc88185c1c1c9bdd9959607a1b606082015260800190565b60208082526028908201527f5468697320706c61796572206973206e6f74206c6973746564206f6e20746865604082015267206d61726b65742160c01b606082015260800190565b634e487b7160e01b600052601160045260246000fd5b60008219821115614e6257614e62614e39565b500190565b602080825260159082015274141b185e595c88191bd95cc81b9bdd08195e1a5cdd605a1b604082015260600190565b6020808252600e908201526d4e6f7420746865206f776e65722160901b604082015260600190565b600060ff821660ff811415614ed557614ed5614e39565b60010192915050565b6020808252600d908201526c131a5b9d5c081b9bdd081cd95d609a1b604082015260600190565b634e487b7160e01b600052601260045260246000fd5b600082614f2a57614f2a614f05565b500690565b600082821015614f4157614f41614e39565b500390565b634e487b7160e01b600052603260045260246000fd5b6000600019821415614f7057614f70614e39565b5060010190565b6000816000190483118215151615614f9157614f91614e39565b500290565b60008251614fa88184602087016143c3565b9190910192915050565b60008351614fc48184602088016143c3565b835190830190614fd88183602088016143c3565b01949350505050565b600060208284031215614ff357600080fd5b5051919050565b60008261500957615009614f05565b500490565b60208082526032908201527f4552433732313a207472616e7366657220746f206e6f6e20455243373231526560408201527131b2b4bb32b91034b6b83632b6b2b73a32b960711b606082015260800190565b60018060a01b0384168152826020820152606060408201526000611ceb60608301846143ef565b60006020828403121561509957600080fd5b8151612570816147d8565b6001600160a01b0385811682528416602082015260408101839052608060608201819052600090613ce6908301846143ef565b6000602082840312156150e957600080fd5b81516125708161434c565b634e487b7160e01b600052603160045260246000fdfea26469706673582212209f3fdc00811486e3ef92bab62f5522fa3d22359e628e0ca6687334c6b596e47e64736f6c634300080c0033a03837a25210ee280c2113ff4b77ca23440b19d4866cca721c801278fd08d807",
  "linkReferences": {},
  "deployedLinkReferences": {}
}