{
  "_format": "hh-sol-artifact-1",
  "contractName": "FutNFTTransfer",
  "sourceName": "contracts/FutNFTTransfer.sol",
  "abi": [
    {
      "anonymous": false,
      "inputs": [
        {
          "indexed": true,
          "internalType": "address",
          "name": "owner",
          "type": "address"
        },
        {
          "indexed": true,
          "internalType": "address",
          "name": "approved",
          "type": "address"
        },
        {
          "indexed": true,
          "internalType": "uint256",
          "name": "tokenId",
          "type": "uint256"
        }
      ],
      "name": "Approval",
      "type": "event"
    },
    {
      "anonymous": false,
      "inputs": [
        {
          "indexed": true,
          "internalType": "address",
          "name": "owner",
          "type": "address"
        },
        {
          "indexed": true,
          "internalType": "address",
          "name": "operator",
          "type": "address"
        },
        {
          "indexed": false,
          "internalType": "bool",
          "name": "approved",
          "type": "bool"
        }
      ],
      "name": "ApprovalForAll",
      "type": "event"
    },
    {
      "anonymous": false,
      "inputs": [
        {
          "indexed": false,
          "internalType": "uint256",
          "name": "playerId",
          "type": "uint256"
        }
      ],
      "name": "LevelUp",
      "type": "event"
    },
    {
      "anonymous": false,
      "inputs": [
        {
          "indexed": false,
          "internalType": "uint256",
          "name": "playerId",
          "type": "uint256"
        }
      ],
      "name": "Listed",
      "type": "event"
    },
    {
      "anonymous": false,
      "inputs": [
        {
          "indexed": true,
          "internalType": "address",
          "name": "previousOwner",
          "type": "address"
        },
        {
          "indexed": true,
          "internalType": "address",
          "name": "newOwner",
          "type": "address"
        }
      ],
      "name": "OwnershipTransferred",
      "type": "event"
    },
    {
      "anonymous": false,
      "inputs": [
        {
          "indexed": false,
          "internalType": "uint256",
          "name": "playerId",
          "type": "uint256"
        }
      ],
      "name": "PlayerAdded",
      "type": "event"
    },
    {
      "anonymous": false,
      "inputs": [
        {
          "indexed": true,
          "internalType": "address",
          "name": "from",
          "type": "address"
        },
        {
          "indexed": true,
          "internalType": "address",
          "name": "to",
          "type": "address"
        },
        {
          "indexed": true,
          "internalType": "uint256",
          "name": "tokenId",
          "type": "uint256"
        }
      ],
      "name": "Transfer",
      "type": "event"
    },
    {
      "anonymous": false,
      "inputs": [
        {
          "indexed": false,
          "internalType": "uint256",
          "name": "playerId",
          "type": "uint256"
        }
      ],
      "name": "Unlisted",
      "type": "event"
    },
    {
      "inputs": [
        {
          "internalType": "address",
          "name": "to",
          "type": "address"
        },
        {
          "internalType": "uint256",
          "name": "tokenId",
          "type": "uint256"
        }
      ],
      "name": "approve",
      "outputs": [],
      "stateMutability": "nonpayable",
      "type": "function"
    },
    {
      "inputs": [
        {
          "internalType": "address",
          "name": "owner",
          "type": "address"
        }
      ],
      "name": "balanceOf",
      "outputs": [
        {
          "internalType": "uint256",
          "name": "",
          "type": "uint256"
        }
      ],
      "stateMutability": "view",
      "type": "function"
    },
    {
      "inputs": [],
      "name": "cooldown",
      "outputs": [
        {
          "internalType": "uint256",
          "name": "",
          "type": "uint256"
        }
      ],
      "stateMutability": "view",
      "type": "function"
    },
    {
      "inputs": [],
      "name": "earnedThroughTraining",
      "outputs": [
        {
          "internalType": "uint256",
          "name": "",
          "type": "uint256"
        }
      ],
      "stateMutability": "view",
      "type": "function"
    },
    {
      "inputs": [],
      "name": "fee",
      "outputs": [
        {
          "internalType": "uint256",
          "name": "",
          "type": "uint256"
        }
      ],
      "stateMutability": "view",
      "type": "function"
    },
    {
      "inputs": [
        {
          "internalType": "uint256",
          "name": "tokenId",
          "type": "uint256"
        }
      ],
      "name": "getApproved",
      "outputs": [
        {
          "internalType": "address",
          "name": "",
          "type": "address"
        }
      ],
      "stateMutability": "view",
      "type": "function"
    },
    {
      "inputs": [],
      "name": "getBalance",
      "outputs": [
        {
          "internalType": "uint256",
          "name": "",
          "type": "uint256"
        }
      ],
      "stateMutability": "view",
      "type": "function"
    },
    {
      "inputs": [],
      "name": "getListedPlayers",
      "outputs": [
        {
          "internalType": "uint256[]",
          "name": "",
          "type": "uint256[]"
        }
      ],
      "stateMutability": "view",
      "type": "function"
    },
    {
      "inputs": [
        {
          "internalType": "uint256",
          "name": "_id",
          "type": "uint256"
        }
      ],
      "name": "getPlayer",
      "outputs": [
        {
          "components": [
            {
              "internalType": "string",
              "name": "name",
              "type": "string"
            },
            {
              "internalType": "string",
              "name": "preferredPosition",
              "type": "string"
            },
            {
              "internalType": "uint256",
              "name": "id",
              "type": "uint256"
            },
            {
              "internalType": "uint8",
              "name": "age",
              "type": "uint8"
            },
            {
              "internalType": "uint8",
              "name": "level",
              "type": "uint8"
            },
            {
              "internalType": "uint64",
              "name": "lastUpgrade",
              "type": "uint64"
            },
            {
              "internalType": "string[]",
              "name": "suitablePositions",
              "type": "string[]"
            },
            {
              "internalType": "string",
              "name": "imageURI",
              "type": "string"
            }
          ],
          "internalType": "struct FutNFT.Player",
          "name": "",
          "type": "tuple"
        }
      ],
      "stateMutability": "view",
      "type": "function"
    },
    {
      "inputs": [
        {
          "internalType": "uint256",
          "name": "_id",
          "type": "uint256"
        }
      ],
      "name": "getPlayerExists",
      "outputs": [
        {
          "internalType": "bool",
          "name": "",
          "type": "bool"
        }
      ],
      "stateMutability": "view",
      "type": "function"
    },
    {
      "inputs": [
        {
          "internalType": "address",
          "name": "_owner",
          "type": "address"
        }
      ],
      "name": "getPlayersByOwner",
      "outputs": [
        {
          "internalType": "uint256[]",
          "name": "",
          "type": "uint256[]"
        }
      ],
      "stateMutability": "view",
      "type": "function"
    },
    {
      "inputs": [
        {
          "internalType": "address",
          "name": "owner",
          "type": "address"
        },
        {
          "internalType": "address",
          "name": "operator",
          "type": "address"
        }
      ],
      "name": "isApprovedForAll",
      "outputs": [
        {
          "internalType": "bool",
          "name": "",
          "type": "bool"
        }
      ],
      "stateMutability": "view",
      "type": "function"
    },
    {
      "inputs": [
        {
          "internalType": "address",
          "name": "",
          "type": "address"
        }
      ],
      "name": "lineUps",
      "outputs": [
        {
          "internalType": "string",
          "name": "formation",
          "type": "string"
        },
        {
          "internalType": "bool",
          "name": "isValid",
          "type": "bool"
        }
      ],
      "stateMutability": "view",
      "type": "function"
    },
    {
      "inputs": [
        {
          "internalType": "uint256",
          "name": "_playerId",
          "type": "uint256"
        },
        {
          "internalType": "uint256",
          "name": "_price",
          "type": "uint256"
        }
      ],
      "name": "list",
      "outputs": [],
      "stateMutability": "nonpayable",
      "type": "function"
    },
    {
      "inputs": [
        {
          "internalType": "uint256",
          "name": "",
          "type": "uint256"
        }
      ],
      "name": "listedPlayers",
      "outputs": [
        {
          "internalType": "uint256",
          "name": "",
          "type": "uint256"
        }
      ],
      "stateMutability": "view",
      "type": "function"
    },
    {
      "inputs": [
        {
          "internalType": "uint256",
          "name": "",
          "type": "uint256"
        }
      ],
      "name": "listedPlayersPrices",
      "outputs": [
        {
          "internalType": "uint256",
          "name": "",
          "type": "uint256"
        }
      ],
      "stateMutability": "view",
      "type": "function"
    },
    {
      "inputs": [],
      "name": "maxLevel",
      "outputs": [
        {
          "internalType": "uint256",
          "name": "",
          "type": "uint256"
        }
      ],
      "stateMutability": "view",
      "type": "function"
    },
    {
      "inputs": [
        {
          "components": [
            {
              "internalType": "string",
              "name": "name",
              "type": "string"
            },
            {
              "internalType": "string",
              "name": "preferredPosition",
              "type": "string"
            },
            {
              "internalType": "uint256",
              "name": "id",
              "type": "uint256"
            },
            {
              "internalType": "uint8",
              "name": "age",
              "type": "uint8"
            },
            {
              "internalType": "uint8",
              "name": "level",
              "type": "uint8"
            },
            {
              "internalType": "uint64",
              "name": "lastUpgrade",
              "type": "uint64"
            },
            {
              "internalType": "string[]",
              "name": "suitablePositions",
              "type": "string[]"
            },
            {
              "internalType": "string",
              "name": "imageURI",
              "type": "string"
            }
          ],
          "internalType": "struct FutNFT.Player",
          "name": "_player",
          "type": "tuple"
        }
      ],
      "name": "mint",
      "outputs": [],
      "stateMutability": "nonpayable",
      "type": "function"
    },
    {
      "inputs": [],
      "name": "name",
      "outputs": [
        {
          "internalType": "string",
          "name": "",
          "type": "string"
        }
      ],
      "stateMutability": "view",
      "type": "function"
    },
    {
      "inputs": [],
      "name": "owner",
      "outputs": [
        {
          "internalType": "address",
          "name": "",
          "type": "address"
        }
      ],
      "stateMutability": "view",
      "type": "function"
    },
    {
      "inputs": [
        {
          "internalType": "uint256",
          "name": "tokenId",
          "type": "uint256"
        }
      ],
      "name": "ownerOf",
      "outputs": [
        {
          "internalType": "address",
          "name": "",
          "type": "address"
        }
      ],
      "stateMutability": "view",
      "type": "function"
    },
    {
      "inputs": [
        {
          "internalType": "uint256",
          "name": "",
          "type": "uint256"
        }
      ],
      "name": "playerToOwner",
      "outputs": [
        {
          "internalType": "address",
          "name": "",
          "type": "address"
        }
      ],
      "stateMutability": "view",
      "type": "function"
    },
    {
      "inputs": [],
      "name": "renounceOwnership",
      "outputs": [],
      "stateMutability": "nonpayable",
      "type": "function"
    },
    {
      "inputs": [
        {
          "internalType": "address",
          "name": "from",
          "type": "address"
        },
        {
          "internalType": "address",
          "name": "to",
          "type": "address"
        },
        {
          "internalType": "uint256",
          "name": "tokenId",
          "type": "uint256"
        }
      ],
      "name": "safeTransferFrom",
      "outputs": [],
      "stateMutability": "nonpayable",
      "type": "function"
    },
    {
      "inputs": [
        {
          "internalType": "address",
          "name": "from",
          "type": "address"
        },
        {
          "internalType": "address",
          "name": "to",
          "type": "address"
        },
        {
          "internalType": "uint256",
          "name": "tokenId",
          "type": "uint256"
        },
        {
          "internalType": "bytes",
          "name": "_data",
          "type": "bytes"
        }
      ],
      "name": "safeTransferFrom",
      "outputs": [],
      "stateMutability": "nonpayable",
      "type": "function"
    },
    {
      "inputs": [
        {
          "internalType": "address",
          "name": "operator",
          "type": "address"
        },
        {
          "internalType": "bool",
          "name": "approved",
          "type": "bool"
        }
      ],
      "name": "setApprovalForAll",
      "outputs": [],
      "stateMutability": "nonpayable",
      "type": "function"
    },
    {
      "inputs": [
        {
          "internalType": "uint256",
          "name": "_cooldown",
          "type": "uint256"
        }
      ],
      "name": "setCooldown",
      "outputs": [],
      "stateMutability": "nonpayable",
      "type": "function"
    },
    {
      "inputs": [
        {
          "internalType": "uint256",
          "name": "_size",
          "type": "uint256"
        }
      ],
      "name": "setDefaultArraySize",
      "outputs": [],
      "stateMutability": "nonpayable",
      "type": "function"
    },
    {
      "inputs": [
        {
          "internalType": "uint256",
          "name": "_fee",
          "type": "uint256"
        }
      ],
      "name": "setFee",
      "outputs": [],
      "stateMutability": "nonpayable",
      "type": "function"
    },
    {
      "inputs": [
        {
          "internalType": "uint256",
          "name": "_level",
          "type": "uint256"
        }
      ],
      "name": "setMaxLevel",
      "outputs": [],
      "stateMutability": "nonpayable",
      "type": "function"
    },
    {
      "inputs": [
        {
          "internalType": "bytes4",
          "name": "interfaceId",
          "type": "bytes4"
        }
      ],
      "name": "supportsInterface",
      "outputs": [
        {
          "internalType": "bool",
          "name": "",
          "type": "bool"
        }
      ],
      "stateMutability": "view",
      "type": "function"
    },
    {
      "inputs": [],
      "name": "symbol",
      "outputs": [
        {
          "internalType": "string",
          "name": "",
          "type": "string"
        }
      ],
      "stateMutability": "view",
      "type": "function"
    },
    {
      "inputs": [
        {
          "internalType": "uint256",
          "name": "index",
          "type": "uint256"
        }
      ],
      "name": "tokenByIndex",
      "outputs": [
        {
          "internalType": "uint256",
          "name": "",
          "type": "uint256"
        }
      ],
      "stateMutability": "view",
      "type": "function"
    },
    {
      "inputs": [
        {
          "internalType": "address",
          "name": "owner",
          "type": "address"
        },
        {
          "internalType": "uint256",
          "name": "index",
          "type": "uint256"
        }
      ],
      "name": "tokenOfOwnerByIndex",
      "outputs": [
        {
          "internalType": "uint256",
          "name": "",
          "type": "uint256"
        }
      ],
      "stateMutability": "view",
      "type": "function"
    },
    {
      "inputs": [
        {
          "internalType": "uint256",
          "name": "tokenId",
          "type": "uint256"
        }
      ],
      "name": "tokenURI",
      "outputs": [
        {
          "internalType": "string",
          "name": "",
          "type": "string"
        }
      ],
      "stateMutability": "view",
      "type": "function"
    },
    {
      "inputs": [],
      "name": "totalSupply",
      "outputs": [
        {
          "internalType": "uint256",
          "name": "",
          "type": "uint256"
        }
      ],
      "stateMutability": "view",
      "type": "function"
    },
    {
      "inputs": [
        {
          "internalType": "uint256",
          "name": "_playerId",
          "type": "uint256"
        }
      ],
      "name": "train",
      "outputs": [],
      "stateMutability": "payable",
      "type": "function"
    },
    {
      "inputs": [
        {
          "internalType": "address",
          "name": "from",
          "type": "address"
        },
        {
          "internalType": "address",
          "name": "to",
          "type": "address"
        },
        {
          "internalType": "uint256",
          "name": "tokenId",
          "type": "uint256"
        }
      ],
      "name": "transferFrom",
      "outputs": [],
      "stateMutability": "nonpayable",
      "type": "function"
    },
    {
      "inputs": [
        {
          "internalType": "address",
          "name": "newOwner",
          "type": "address"
        }
      ],
      "name": "transferOwnership",
      "outputs": [],
      "stateMutability": "nonpayable",
      "type": "function"
    },
    {
      "inputs": [
        {
          "internalType": "uint256",
          "name": "_playerId",
          "type": "uint256"
        }
      ],
      "name": "transferPlayer",
      "outputs": [],
      "stateMutability": "payable",
      "type": "function"
    },
    {
      "inputs": [
        {
          "internalType": "uint256",
          "name": "_playerId",
          "type": "uint256"
        }
      ],
      "name": "unlist",
      "outputs": [],
      "stateMutability": "nonpayable",
      "type": "function"
    },
    {
      "inputs": [
        {
          "internalType": "uint256",
          "name": "_price",
          "type": "uint256"
        }
      ],
      "name": "withdraw",
      "outputs": [],
      "stateMutability": "nonpayable",
      "type": "function"
    }
  ],
  "bytecode": "0x6080604052606460135561a8c06014556729a2241af62c0000601555600060165560646017553480156200003257600080fd5b506040805180820182526006815265119d5d13919560d21b6020808301918252835180850190945260048452631193919560e21b9084015281519192916200007d916000916200010c565b508051620000939060019060208401906200010c565b505050620000b0620000aa620000b660201b60201c565b620000ba565b620001ef565b3390565b600a80546001600160a01b038381166001600160a01b0319831681179093556040519116919082907f8be0079c531659141344cd1fd0a4f28419497f9722a3daafe3b4186f6b6457e090600090a35050565b8280546200011a90620001b2565b90600052602060002090601f0160209004810192826200013e576000855562000189565b82601f106200015957805160ff191683800117855562000189565b8280016001018555821562000189579182015b82811115620001895782518255916020019190600101906200016c565b50620001979291506200019b565b5090565b5b808211156200019757600081556001016200019c565b600181811c90821680620001c757607f821691505b60208210811415620001e957634e487b7160e01b600052602260045260246000fd5b50919050565b61350e80620001ff6000396000f3fe6080604052600436106102515760003560e01c806369fe0e2d11610139578063bf5a4dd3116100b6578063e55ae4e81161007a578063e55ae4e8146106e2578063e985e9c51461070f578063eef2fc1f14610758578063f2eeb53614610778578063f2fde38b14610798578063fd32f918146107b857600080fd5b8063bf5a4dd314610660578063c87b56dd14610680578063cc06c359146106a0578063ddca3f43146106b6578063e1a51a62146106cc57600080fd5b8063923e5c6a116100fd578063923e5c6a146105cb57806395d89b41146105eb578063a22cb46514610600578063b1bcaec214610620578063b88d4fde1461064057600080fd5b806369fe0e2d1461054257806370a0823114610562578063715018a614610582578063787a08a6146105975780638da5cb5b146105ad57600080fd5b80632f4c3a84116101d25780634f6ccce7116101965780634f6ccce71461045d5780634fc3f41a1461047d57806350fd73671461049d578063580adaa3146104bd5780636352211e146104f5578063643322851461051557600080fd5b80632f4c3a84146103d75780632f745c59146103ea578063344f1ba51461040a578063368004ed1461042a57806342842e0e1461043d57600080fd5b806312065fe01161021957806312065fe01461032957806318160ddd1461034c57806319b90d271461036157806323b872dd146103975780632e1a7d4d146103b757600080fd5b806301ffc9a71461025657806305901e891461028b57806306fdde03146102ad578063081812fc146102cf578063095ea7b314610307575b600080fd5b34801561026257600080fd5b50610276610271366004612b2d565b6107e6565b60405190151581526020015b60405180910390f35b34801561029757600080fd5b506102a06107f7565b6040516102829190612b4a565b3480156102b957600080fd5b506102c261084f565b6040516102829190612be6565b3480156102db57600080fd5b506102ef6102ea366004612bf9565b6108d8565b6040516001600160a01b039091168152602001610282565b34801561031357600080fd5b50610327610322366004612c2e565b610972565b005b34801561033557600080fd5b5061033e610a88565b604051908152602001610282565b34801561035857600080fd5b5060085461033e565b34801561036d57600080fd5b506102ef61037c366004612bf9565b600d602052600090815260409020546001600160a01b031681565b3480156103a357600080fd5b506103276103b2366004612c58565b610aba565b3480156103c357600080fd5b506103276103d2366004612bf9565b610aeb565b6103276103e5366004612bf9565b610c1d565b3480156103f657600080fd5b5061033e610405366004612c2e565b610d3d565b34801561041657600080fd5b50610327610425366004612bf9565b610dd3565b610327610438366004612bf9565b610e02565b34801561044957600080fd5b50610327610458366004612c58565b61107b565b34801561046957600080fd5b5061033e610478366004612bf9565b611096565b34801561048957600080fd5b50610327610498366004612bf9565b611129565b3480156104a957600080fd5b506103276104b8366004612c94565b611158565b3480156104c957600080fd5b506102766104d8366004612bf9565b6000908152600d60205260409020546001600160a01b0316151590565b34801561050157600080fd5b506102ef610510366004612bf9565b611369565b34801561052157600080fd5b5061033e610530366004612bf9565b600f6020526000908152604090205481565b34801561054e57600080fd5b5061032761055d366004612bf9565b611374565b34801561056e57600080fd5b5061033e61057d366004612cb6565b6113a3565b34801561058e57600080fd5b5061032761142a565b3480156105a357600080fd5b5061033e60145481565b3480156105b957600080fd5b50600a546001600160a01b03166102ef565b3480156105d757600080fd5b5061033e6105e6366004612bf9565b611460565b3480156105f757600080fd5b506102c2611481565b34801561060c57600080fd5b5061032761061b366004612cd1565b611490565b34801561062c57600080fd5b5061032761063b366004612bf9565b61149b565b34801561064c57600080fd5b5061032761065b366004612dd3565b6114ca565b34801561066c57600080fd5b5061032761067b366004612bf9565b6114fc565b34801561068c57600080fd5b506102c261069b366004612bf9565b611626565b3480156106ac57600080fd5b5061033e60175481565b3480156106c257600080fd5b5061033e60155481565b3480156106d857600080fd5b5061033e60165481565b3480156106ee57600080fd5b506107026106fd366004612bf9565b61170e565b6040516102829190612ea3565b34801561071b57600080fd5b5061027661072a366004612f6a565b6001600160a01b03918216600090815260056020908152604080832093909416825291909152205460ff1690565b34801561076457600080fd5b506102a0610773366004612cb6565b611a57565b34801561078457600080fd5b50610327610793366004613083565b611b9b565b3480156107a457600080fd5b506103276107b3366004612cb6565b611da2565b3480156107c457600080fd5b506107d86107d3366004612cb6565b611e3d565b604051610282929190613199565b60006107f182611ee6565b92915050565b6060601180548060200260200160405190810160405280929190818152602001828054801561084557602002820191906000526020600020905b815481526020019060010190808311610831575b5050505050905090565b60606000805461085e906131bd565b80601f016020809104026020016040519081016040528092919081815260200182805461088a906131bd565b80156108455780601f106108ac57610100808354040283529160200191610845565b820191906000526020600020905b8154815290600101906020018083116108ba57509395945050505050565b6000818152600260205260408120546001600160a01b03166109565760405162461bcd60e51b815260206004820152602c60248201527f4552433732313a20617070726f76656420717565727920666f72206e6f6e657860448201526b34b9ba32b73a103a37b5b2b760a11b60648201526084015b60405180910390fd5b506000908152600460205260409020546001600160a01b031690565b600061097d82611f0b565b9050806001600160a01b0316836001600160a01b031614156109eb5760405162461bcd60e51b815260206004820152602160248201527f4552433732313a20617070726f76616c20746f2063757272656e74206f776e656044820152603960f91b606482015260840161094d565b336001600160a01b0382161480610a075750610a07813361072a565b610a795760405162461bcd60e51b815260206004820152603860248201527f4552433732313a20617070726f76652063616c6c6572206973206e6f74206f7760448201527f6e6572206e6f7220617070726f76656420666f7220616c6c0000000000000000606482015260840161094d565b610a838383611f82565b505050565b600a546000906001600160a01b03163314610ab55760405162461bcd60e51b815260040161094d906131f8565b504790565b610ac43382611ff0565b610ae05760405162461bcd60e51b815260040161094d9061322d565b610a838383836120e7565b600a546001600160a01b03163314610b155760405162461bcd60e51b815260040161094d906131f8565b804711610b6f5760405162461bcd60e51b815260206004820152602260248201527f5468652070726963652069732067726561746572207468616e2062616c616e63604482015261652160f01b606482015260840161094d565b604051600090339083908381818185875af1925050503d8060008114610bb1576040519150601f19603f3d011682016040523d82523d6000602084013e610bb6565b606091505b5050905080610c195760405162461bcd60e51b815260206004820152602960248201527f5472616e73616374696f6e206661696c65642c20636f756c64206e6f742073656044820152686e642066756e64732160b81b606482015260840161094d565b5050565b6000818152600e60205260409020548190610c4a5760405162461bcd60e51b815260040161094d9061327e565b6000828152600f60205260409020543414610c6457600080fd5b6000610c6f83611369565b90506000816001600160a01b03163460405160006040518083038185875af1925050503d8060008114610cbe576040519150601f19603f3d011682016040523d82523d6000602084013e610cc3565b606091505b5050905080610d055760405162461bcd60e51b815260206004820152600e60248201526d11985a5b1959081d1bc81cd95b9960921b604482015260640161094d565b610d108233866120e7565b6000848152600d6020526040902080546001600160a01b03191633179055610d37846114fc565b50505050565b6000610d48836113a3565b8210610daa5760405162461bcd60e51b815260206004820152602b60248201527f455243373231456e756d657261626c653a206f776e657220696e646578206f7560448201526a74206f6620626f756e647360a81b606482015260840161094d565b506001600160a01b03919091166000908152600660209081526040808320938352929052205490565b600a546001600160a01b03163314610dfd5760405162461bcd60e51b815260040161094d906131f8565b601755565b6014546000828152600c60205260409020600301548291904290610e369083906201000090046001600160401b03166132dc565b1115610e845760405162461bcd60e51b815260206004820152601c60248201527f436f6f6c646f776e20706572696f64206973206e6f74206f7665722100000000604482015260640161094d565b6017546000848152600c60205260409020600301548490610100900460ff168211610ef15760405162461bcd60e51b815260206004820152601d60248201527f506c61796572206861732072656163686564206d6178206c6576656c21000000604482015260640161094d565b6000858152600d602052604090205485906001600160a01b0316610f275760405162461bcd60e51b815260040161094d906132f4565b610f3081611369565b6001600160a01b0316336001600160a01b031614610f605760405162461bcd60e51b815260040161094d90613323565b601554341015610fb25760405162461bcd60e51b815260206004820152601960248201527f526571756972656420666565206973206e6f742073656e742100000000000000604482015260640161094d565b6000868152600c602052604090206003018054610100900460ff16906001610fd98361334b565b82546101009290920a60ff818102199093169190921691909102179055506000868152600c60205260408120600301805469ffffffffffffffff0000191662010000426001600160401b0316021790556016805434929061103b9084906132dc565b90915550506040518681527f6a1b6f91db361bdf7356d3942ed64f2ee2fea430979dbba7ea23f44e8b2110079060200160405180910390a1505050505050565b610a83838383604051806020016040528060008152506114ca565b60006110a160085490565b82106111045760405162461bcd60e51b815260206004820152602c60248201527f455243373231456e756d657261626c653a20676c6f62616c20696e646578206f60448201526b7574206f6620626f756e647360a01b606482015260840161094d565b600882815481106111175761111761336b565b90600052602060002001549050919050565b600a546001600160a01b031633146111535760405162461bcd60e51b815260040161094d906131f8565b601455565b6000828152600d602052604090205482906001600160a01b031661118e5760405162461bcd60e51b815260040161094d906132f4565b61119781611369565b6001600160a01b0316336001600160a01b0316146111c75760405162461bcd60e51b815260040161094d90613323565b6000838152600e602052604090205483901561123a5760405162461bcd60e51b815260206004820152602c60248201527f5468697320706c6179657220697320616c7265616479206c6973746564206f6e60448201526b20746865206d61726b65742160a01b606482015260840161094d565b60005b600b8110156112db5733600090815260106020526040812082600b81106112665761126661336b565b01549050858114156112c85760405162461bcd60e51b815260206004820152602560248201527f506c6179657220697320696e20746865206c696e6575702c2063616e6e6f74206044820152646c6973742160d81b606482015260840161094d565b50806112d381613381565b91505061123d565b50601180546001810182557f31ecc21a745e3968a04e9570e4425bc18fa8019c68028196b546d1669c200c68018590556000858152600f602090815260408083208790559254600e9091529082902055517ff3ecdc9ffda52c5ad69793c567cb456f83bba2d14f196542e0be80c919a8bda39061135b9086815260200190565b60405180910390a150505050565b60006107f182611f0b565b600a546001600160a01b0316331461139e5760405162461bcd60e51b815260040161094d906131f8565b601555565b60006001600160a01b03821661140e5760405162461bcd60e51b815260206004820152602a60248201527f4552433732313a2062616c616e636520717565727920666f7220746865207a65604482015269726f206164647265737360b01b606482015260840161094d565b506001600160a01b031660009081526003602052604090205490565b600a546001600160a01b031633146114545760405162461bcd60e51b815260040161094d906131f8565b61145e600061228e565b565b6011818154811061147057600080fd5b600091825260209091200154905081565b60606001805461085e906131bd565b610c193383836122e0565b600a546001600160a01b031633146114c55760405162461bcd60e51b815260040161094d906131f8565b601355565b6114d43383611ff0565b6114f05760405162461bcd60e51b815260040161094d9061322d565b610d37848484846123af565b6000818152600d602052604090205481906001600160a01b03166115325760405162461bcd60e51b815260040161094d906132f4565b61153b81611369565b6001600160a01b0316336001600160a01b03161461156b5760405162461bcd60e51b815260040161094d90613323565b6000828152600e602052604090205482906115985760405162461bcd60e51b815260040161094d9061327e565b6000838152600e60205260409020546011906115b69060019061339c565b815481106115c6576115c661336b565b6000918252602080832091909101829055848252600e81526040808320839055600f82528083209290925590518481527f6318005f6dc5a71d3e4ad5b4d1fe455ef3402d62b64573777af55bb6bfe3daab910160405180910390a1505050565b6000818152600260205260409020546060906001600160a01b03166116a55760405162461bcd60e51b815260206004820152602f60248201527f4552433732314d657461646174613a2055524920717565727920666f72206e6f60448201526e3732bc34b9ba32b73a103a37b5b2b760891b606482015260840161094d565b60006116bc60408051602081019091526000815290565b905060008151116116dc5760405180602001604052806000815250611707565b806116e6846123e2565b6040516020016116f79291906133b3565b6040516020818303038152906040525b9392505050565b611765604051806101000160405280606081526020016060815260200160008152602001600060ff168152602001600060ff16815260200160006001600160401b0316815260200160608152602001606081525090565b6000828152600c6020526040908190208151610100810190925280548290829061178e906131bd565b80601f01602080910402602001604051908101604052809291908181526020018280546117ba906131bd565b80156118075780601f106117dc57610100808354040283529160200191611807565b820191906000526020600020905b8154815290600101906020018083116117ea57829003601f168201915b50505050508152602001600182018054611820906131bd565b80601f016020809104026020016040519081016040528092919081815260200182805461184c906131bd565b80156118995780601f1061186e57610100808354040283529160200191611899565b820191906000526020600020905b81548152906001019060200180831161187c57829003601f168201915b50505091835250506002820154602080830191909152600383015460ff80821660408086019190915261010083049091166060850152620100009091046001600160401b0316608084015260048401805482518185028101850190935280835260a090940193919290919060009084015b828210156119b6578382906000526020600020018054611929906131bd565b80601f0160208091040260200160405190810160405280929190818152602001828054611955906131bd565b80156119a25780601f10611977576101008083540402835291602001916119a2565b820191906000526020600020905b81548152906001019060200180831161198557829003601f168201915b50505050508152602001906001019061190a565b5050505081526020016005820180546119ce906131bd565b80601f01602080910402602001604051908101604052809291908181526020018280546119fa906131bd565b8015611a475780601f10611a1c57610100808354040283529160200191611a47565b820191906000526020600020905b815481529060010190602001808311611a2a57829003601f168201915b5050505050815250509050919050565b606060006013546001600160401b03811115611a7557611a75612d0d565b604051908082528060200260200182016040528015611a9e578160200160208202803683370190505b5090506000805b601254811015611b9257846001600160a01b0316600d600060128481548110611ad057611ad061336b565b600091825260208083209091015483528201929092526040019020546001600160a01b0316148015611b325750600e600060128381548110611b1457611b1461336b565b90600052602060002001548152602001908152602001600020546000145b15611b805760128181548110611b4a57611b4a61336b565b9060005260206000200154838381518110611b6757611b6761336b565b602090810291909101015281611b7c81613381565b9250505b80611b8a81613381565b915050611aa5565b50909392505050565b600a546001600160a01b03163314611bc55760405162461bcd60e51b815260040161094d906131f8565b6040808201516000908152600d60205220546001600160a01b031615611c1e5760405162461bcd60e51b815260206004820152600e60248201526d506c61796572204578697374732160901b604482015260640161094d565b6040808201516000908152600c6020908152919020825180518493611c479284929101906129ce565b506020828101518051611c6092600185019201906129ce565b50604082015160028201556060820151600382018054608085015160a08601516001600160401b0316620100000269ffffffffffffffff00001960ff9283166101000261ffff199094169290951691909117919091179290921691909117905560c08201518051611cdb916004840191602090910190612a52565b5060e08201518051611cf79160058401916020909101906129ce565b505050604080820180516012805460018101825560009182527fbb8a6a4669ba250d26cd7a459eca9d215f8307e33aebe50379bc5a3617ec3444019190915581518152600d6020529190912080546001600160a01b031916339081179091559051611d6291906124df565b7f5af403e238a3f8f7d43c05ff2fac53c833e031e8fb8ec011b3c8e073d870ad7b8160400151604051611d9791815260200190565b60405180910390a150565b600a546001600160a01b03163314611dcc5760405162461bcd60e51b815260040161094d906131f8565b6001600160a01b038116611e315760405162461bcd60e51b815260206004820152602660248201527f4f776e61626c653a206e6577206f776e657220697320746865207a65726f206160448201526564647265737360d01b606482015260840161094d565b611e3a8161228e565b50565b6010602052600090815260409020601681018054611e5a906131bd565b80601f0160208091040260200160405190810160405280929190818152602001828054611e86906131bd565b8015611ed35780601f10611ea857610100808354040283529160200191611ed3565b820191906000526020600020905b815481529060010190602001808311611eb657829003601f168201915b5050506017909301549192505060ff1682565b60006001600160e01b0319821663780e9d6360e01b14806107f157506107f18261262d565b6000818152600260205260408120546001600160a01b0316806107f15760405162461bcd60e51b815260206004820152602960248201527f4552433732313a206f776e657220717565727920666f72206e6f6e657869737460448201526832b73a103a37b5b2b760b91b606482015260840161094d565b600081815260046020526040902080546001600160a01b0319166001600160a01b0384169081179091558190611fb782611f0b565b6001600160a01b03167f8c5be1e5ebec7d5bd14f71427d1e84f3dd0314c0f7b2291e5b200ac8c7c3b92560405160405180910390a45050565b6000818152600260205260408120546001600160a01b03166120695760405162461bcd60e51b815260206004820152602c60248201527f4552433732313a206f70657261746f7220717565727920666f72206e6f6e657860448201526b34b9ba32b73a103a37b5b2b760a11b606482015260840161094d565b600061207483611f0b565b9050806001600160a01b0316846001600160a01b031614806120af5750836001600160a01b03166120a4846108d8565b6001600160a01b0316145b806120df57506001600160a01b0380821660009081526005602090815260408083209388168352929052205460ff165b949350505050565b826001600160a01b03166120fa82611f0b565b6001600160a01b03161461215e5760405162461bcd60e51b815260206004820152602560248201527f4552433732313a207472616e736665722066726f6d20696e636f72726563742060448201526437bbb732b960d91b606482015260840161094d565b6001600160a01b0382166121c05760405162461bcd60e51b8152602060048201526024808201527f4552433732313a207472616e7366657220746f20746865207a65726f206164646044820152637265737360e01b606482015260840161094d565b6121cb83838361267d565b6121d6600082611f82565b6001600160a01b03831660009081526003602052604081208054600192906121ff90849061339c565b90915550506001600160a01b038216600090815260036020526040812080546001929061222d9084906132dc565b909155505060008181526002602052604080822080546001600160a01b0319166001600160a01b0386811691821790925591518493918716917fddf252ad1be2c89b69c2b068fc378daa952ba7f163c4a11628f55a4df523b3ef91a4505050565b600a80546001600160a01b038381166001600160a01b0319831681179093556040519116919082907f8be0079c531659141344cd1fd0a4f28419497f9722a3daafe3b4186f6b6457e090600090a35050565b816001600160a01b0316836001600160a01b031614156123425760405162461bcd60e51b815260206004820152601960248201527f4552433732313a20617070726f766520746f2063616c6c657200000000000000604482015260640161094d565b6001600160a01b03838116600081815260056020908152604080832094871680845294825291829020805460ff191686151590811790915591519182527f17307eab39ab6107e8899845ad3d59bd9653f200f220920489ca2b5937696c31910160405180910390a3505050565b6123ba8484846120e7565b6123c684848484612688565b610d375760405162461bcd60e51b815260040161094d906133e2565b6060816124065750506040805180820190915260018152600360fc1b602082015290565b8160005b8115612430578061241a81613381565b91506124299050600a8361344a565b915061240a565b6000816001600160401b0381111561244a5761244a612d0d565b6040519080825280601f01601f191660200182016040528015612474576020820181803683370190505b5090505b84156120df5761248960018361339c565b9150612496600a8661345e565b6124a19060306132dc565b60f81b8183815181106124b6576124b661336b565b60200101906001600160f81b031916908160001a9053506124d8600a8661344a565b9450612478565b6001600160a01b0382166125355760405162461bcd60e51b815260206004820181905260248201527f4552433732313a206d696e7420746f20746865207a65726f2061646472657373604482015260640161094d565b6000818152600260205260409020546001600160a01b03161561259a5760405162461bcd60e51b815260206004820152601c60248201527f4552433732313a20746f6b656e20616c7265616479206d696e74656400000000604482015260640161094d565b6125a66000838361267d565b6001600160a01b03821660009081526003602052604081208054600192906125cf9084906132dc565b909155505060008181526002602052604080822080546001600160a01b0319166001600160a01b03861690811790915590518392907fddf252ad1be2c89b69c2b068fc378daa952ba7f163c4a11628f55a4df523b3ef908290a45050565b60006001600160e01b031982166380ac58cd60e01b148061265e57506001600160e01b03198216635b5e139f60e01b145b806107f157506301ffc9a760e01b6001600160e01b03198316146107f1565b610a83838383612786565b60006001600160a01b0384163b1561277b57604051630a85bd0160e11b81526001600160a01b0385169063150b7a02906126cc903390899088908890600401613472565b6020604051808303816000875af1925050508015612707575060408051601f3d908101601f19168201909252612704918101906134a5565b60015b612761573d808015612735576040519150601f19603f3d011682016040523d82523d6000602084013e61273a565b606091505b5080516127595760405162461bcd60e51b815260040161094d906133e2565b805181602001fd5b6001600160e01b031916630a85bd0160e11b1490506120df565b506001949350505050565b6001600160a01b0383166127e1576127dc81600880546000838152600960205260408120829055600182018355919091527ff3f7a9fe364faab93b216da50a3214154f22a0a2b415b23a84c8169e8b636ee30155565b612804565b816001600160a01b0316836001600160a01b03161461280457612804838261283e565b6001600160a01b03821661281b57610a83816128db565b826001600160a01b0316826001600160a01b031614610a8357610a83828261298a565b6000600161284b846113a3565b612855919061339c565b6000838152600760205260409020549091508082146128a8576001600160a01b03841660009081526006602090815260408083208584528252808320548484528184208190558352600790915290208190555b5060009182526007602090815260408084208490556001600160a01b039094168352600681528383209183525290812055565b6008546000906128ed9060019061339c565b600083815260096020526040812054600880549394509092849081106129155761291561336b565b9060005260206000200154905080600883815481106129365761293661336b565b600091825260208083209091019290925582815260099091526040808220849055858252812055600880548061296e5761296e6134c2565b6001900381819060005260206000200160009055905550505050565b6000612995836113a3565b6001600160a01b039093166000908152600660209081526040808320868452825280832085905593825260079052919091209190915550565b8280546129da906131bd565b90600052602060002090601f0160209004810192826129fc5760008555612a42565b82601f10612a1557805160ff1916838001178555612a42565b82800160010185558215612a42579182015b82811115612a42578251825591602001919060010190612a27565b50612a4e929150612aab565b5090565b828054828255906000526020600020908101928215612a9f579160200282015b82811115612a9f5782518051612a8f9184916020909101906129ce565b5091602001919060010190612a72565b50612a4e929150612ac0565b5b80821115612a4e5760008155600101612aac565b80821115612a4e576000612ad48282612add565b50600101612ac0565b508054612ae9906131bd565b6000825580601f10612af9575050565b601f016020900490600052602060002090810190611e3a9190612aab565b6001600160e01b031981168114611e3a57600080fd5b600060208284031215612b3f57600080fd5b813561170781612b17565b6020808252825182820181905260009190848201906040850190845b81811015612b8257835183529284019291840191600101612b66565b50909695505050505050565b60005b83811015612ba9578181015183820152602001612b91565b83811115610d375750506000910152565b60008151808452612bd2816020860160208601612b8e565b601f01601f19169290920160200192915050565b6020815260006117076020830184612bba565b600060208284031215612c0b57600080fd5b5035919050565b80356001600160a01b0381168114612c2957600080fd5b919050565b60008060408385031215612c4157600080fd5b612c4a83612c12565b946020939093013593505050565b600080600060608486031215612c6d57600080fd5b612c7684612c12565b9250612c8460208501612c12565b9150604084013590509250925092565b60008060408385031215612ca757600080fd5b50508035926020909101359150565b600060208284031215612cc857600080fd5b61170782612c12565b60008060408385031215612ce457600080fd5b612ced83612c12565b915060208301358015158114612d0257600080fd5b809150509250929050565b634e487b7160e01b600052604160045260246000fd5b60405161010081016001600160401b0381118282101715612d4657612d46612d0d565b60405290565b604051601f8201601f191681016001600160401b0381118282101715612d7457612d74612d0d565b604052919050565b60006001600160401b03831115612d9557612d95612d0d565b612da8601f8401601f1916602001612d4c565b9050828152838383011115612dbc57600080fd5b828260208301376000602084830101529392505050565b60008060008060808587031215612de957600080fd5b612df285612c12565b9350612e0060208601612c12565b92506040850135915060608501356001600160401b03811115612e2257600080fd5b8501601f81018713612e3357600080fd5b612e4287823560208401612d7c565b91505092959194509250565b600081518084526020808501808196508360051b8101915082860160005b85811015612e96578284038952612e84848351612bba565b98850198935090840190600101612e6c565b5091979650505050505050565b6020815260008251610100806020850152612ec2610120850183612bba565b91506020850151601f1980868503016040870152612ee08483612bba565b93506040870151606087015260608701519150612f02608087018360ff169052565b608087015160ff811660a0880152915060a08701516001600160401b03811660c0880152915060c08701519150808685030160e0870152612f438483612e4e565b935060e0870151915080868503018387015250612f608382612bba565b9695505050505050565b60008060408385031215612f7d57600080fd5b612f8683612c12565b9150612f9460208401612c12565b90509250929050565b600082601f830112612fae57600080fd5b61170783833560208501612d7c565b803560ff81168114612c2957600080fd5b80356001600160401b0381168114612c2957600080fd5b600082601f830112612ff657600080fd5b813560206001600160401b038083111561301257613012612d0d565b8260051b613021838201612d4c565b938452858101830193838101908886111561303b57600080fd5b84880192505b85831015613077578235848111156130595760008081fd5b6130678a87838c0101612f9d565b8352509184019190840190613041565b98975050505050505050565b60006020828403121561309557600080fd5b81356001600160401b03808211156130ac57600080fd5b9083019061010082860312156130c157600080fd5b6130c9612d23565b8235828111156130d857600080fd5b6130e487828601612f9d565b8252506020830135828111156130f957600080fd5b61310587828601612f9d565b6020830152506040830135604082015261312160608401612fbd565b606082015261313260808401612fbd565b608082015261314360a08401612fce565b60a082015260c08301358281111561315a57600080fd5b61316687828601612fe5565b60c08301525060e08301358281111561317e57600080fd5b61318a87828601612f9d565b60e08301525095945050505050565b6040815260006131ac6040830185612bba565b905082151560208301529392505050565b600181811c908216806131d157607f821691505b602082108114156131f257634e487b7160e01b600052602260045260246000fd5b50919050565b6020808252818101527f4f776e61626c653a2063616c6c6572206973206e6f7420746865206f776e6572604082015260600190565b60208082526031908201527f4552433732313a207472616e736665722063616c6c6572206973206e6f74206f6040820152701ddb995c881b9bdc88185c1c1c9bdd9959607a1b606082015260800190565b60208082526028908201527f5468697320706c61796572206973206e6f74206c6973746564206f6e20746865604082015267206d61726b65742160c01b606082015260800190565b634e487b7160e01b600052601160045260246000fd5b600082198211156132ef576132ef6132c6565b500190565b602080825260159082015274141b185e595c88191bd95cc81b9bdd08195e1a5cdd605a1b604082015260600190565b6020808252600e908201526d4e6f7420746865206f776e65722160901b604082015260600190565b600060ff821660ff811415613362576133626132c6565b60010192915050565b634e487b7160e01b600052603260045260246000fd5b6000600019821415613395576133956132c6565b5060010190565b6000828210156133ae576133ae6132c6565b500390565b600083516133c5818460208801612b8e565b8351908301906133d9818360208801612b8e565b01949350505050565b60208082526032908201527f4552433732313a207472616e7366657220746f206e6f6e20455243373231526560408201527131b2b4bb32b91034b6b83632b6b2b73a32b960711b606082015260800190565b634e487b7160e01b600052601260045260246000fd5b60008261345957613459613434565b500490565b60008261346d5761346d613434565b500690565b6001600160a01b0385811682528416602082015260408101839052608060608201819052600090612f6090830184612bba565b6000602082840312156134b757600080fd5b815161170781612b17565b634e487b7160e01b600052603160045260246000fdfea2646970667358221220ea98a267d478b8840d05286083111e1446dfb13fc25182db87dbd38bb9e91dfc64736f6c634300080c0033",
  "linkReferences": {},
  "deployedLinkReferences": {}
}