{
  "_format": "hh-sol-artifact-1",
  "contractName": "FutNFTTransfer",
  "sourceName": "contracts/FutNFTTransfer.sol",
  "abi": [
    {
      "anonymous": false,
      "inputs": [
        {
          "indexed": true,
          "internalType": "address",
          "name": "owner",
          "type": "address"
        },
        {
          "indexed": true,
          "internalType": "address",
          "name": "approved",
          "type": "address"
        },
        {
          "indexed": true,
          "internalType": "uint256",
          "name": "tokenId",
          "type": "uint256"
        }
      ],
      "name": "Approval",
      "type": "event"
    },
    {
      "anonymous": false,
      "inputs": [
        {
          "indexed": true,
          "internalType": "address",
          "name": "owner",
          "type": "address"
        },
        {
          "indexed": true,
          "internalType": "address",
          "name": "operator",
          "type": "address"
        },
        {
          "indexed": false,
          "internalType": "bool",
          "name": "approved",
          "type": "bool"
        }
      ],
      "name": "ApprovalForAll",
      "type": "event"
    },
    {
      "anonymous": false,
      "inputs": [
        {
          "indexed": false,
          "internalType": "uint256",
          "name": "playerId",
          "type": "uint256"
        }
      ],
      "name": "LevelUp",
      "type": "event"
    },
    {
      "anonymous": false,
      "inputs": [
        {
          "indexed": false,
          "internalType": "uint256",
          "name": "playerId",
          "type": "uint256"
        }
      ],
      "name": "Listed",
      "type": "event"
    },
    {
      "anonymous": false,
      "inputs": [
        {
          "indexed": true,
          "internalType": "address",
          "name": "previousOwner",
          "type": "address"
        },
        {
          "indexed": true,
          "internalType": "address",
          "name": "newOwner",
          "type": "address"
        }
      ],
      "name": "OwnershipTransferred",
      "type": "event"
    },
    {
      "anonymous": false,
      "inputs": [
        {
          "indexed": false,
          "internalType": "uint256",
          "name": "playerId",
          "type": "uint256"
        }
      ],
      "name": "PlayerAdded",
      "type": "event"
    },
    {
      "anonymous": false,
      "inputs": [
        {
          "indexed": true,
          "internalType": "address",
          "name": "from",
          "type": "address"
        },
        {
          "indexed": true,
          "internalType": "address",
          "name": "to",
          "type": "address"
        },
        {
          "indexed": true,
          "internalType": "uint256",
          "name": "tokenId",
          "type": "uint256"
        }
      ],
      "name": "Transfer",
      "type": "event"
    },
    {
      "anonymous": false,
      "inputs": [
        {
          "indexed": false,
          "internalType": "uint256",
          "name": "playerId",
          "type": "uint256"
        }
      ],
      "name": "Unlisted",
      "type": "event"
    },
    {
      "inputs": [
        {
          "internalType": "address",
          "name": "to",
          "type": "address"
        },
        {
          "internalType": "uint256",
          "name": "tokenId",
          "type": "uint256"
        }
      ],
      "name": "approve",
      "outputs": [],
      "stateMutability": "nonpayable",
      "type": "function"
    },
    {
      "inputs": [
        {
          "internalType": "address",
          "name": "owner",
          "type": "address"
        }
      ],
      "name": "balanceOf",
      "outputs": [
        {
          "internalType": "uint256",
          "name": "",
          "type": "uint256"
        }
      ],
      "stateMutability": "view",
      "type": "function"
    },
    {
      "inputs": [],
      "name": "cooldown",
      "outputs": [
        {
          "internalType": "uint256",
          "name": "",
          "type": "uint256"
        }
      ],
      "stateMutability": "view",
      "type": "function"
    },
    {
      "inputs": [],
      "name": "earnedThroughTraining",
      "outputs": [
        {
          "internalType": "uint256",
          "name": "",
          "type": "uint256"
        }
      ],
      "stateMutability": "view",
      "type": "function"
    },
    {
      "inputs": [],
      "name": "fee",
      "outputs": [
        {
          "internalType": "uint256",
          "name": "",
          "type": "uint256"
        }
      ],
      "stateMutability": "view",
      "type": "function"
    },
    {
      "inputs": [
        {
          "internalType": "uint256",
          "name": "tokenId",
          "type": "uint256"
        }
      ],
      "name": "getApproved",
      "outputs": [
        {
          "internalType": "address",
          "name": "",
          "type": "address"
        }
      ],
      "stateMutability": "view",
      "type": "function"
    },
    {
      "inputs": [],
      "name": "getBalance",
      "outputs": [
        {
          "internalType": "uint256",
          "name": "",
          "type": "uint256"
        }
      ],
      "stateMutability": "view",
      "type": "function"
    },
    {
      "inputs": [],
      "name": "getListedPlayers",
      "outputs": [
        {
          "internalType": "uint256[]",
          "name": "",
          "type": "uint256[]"
        }
      ],
      "stateMutability": "view",
      "type": "function"
    },
    {
      "inputs": [
        {
          "internalType": "uint256",
          "name": "_id",
          "type": "uint256"
        }
      ],
      "name": "getPlayer",
      "outputs": [
        {
          "components": [
            {
              "internalType": "string",
              "name": "name",
              "type": "string"
            },
            {
              "internalType": "string",
              "name": "preferredPosition",
              "type": "string"
            },
            {
              "internalType": "uint256",
              "name": "id",
              "type": "uint256"
            },
            {
              "internalType": "uint8",
              "name": "age",
              "type": "uint8"
            },
            {
              "internalType": "uint8",
              "name": "level",
              "type": "uint8"
            },
            {
              "internalType": "uint64",
              "name": "lastUpgrade",
              "type": "uint64"
            },
            {
              "internalType": "string[]",
              "name": "suitablePositions",
              "type": "string[]"
            },
            {
              "internalType": "string",
              "name": "imageURI",
              "type": "string"
            }
          ],
          "internalType": "struct FutNFT.Player",
          "name": "",
          "type": "tuple"
        }
      ],
      "stateMutability": "view",
      "type": "function"
    },
    {
      "inputs": [
        {
          "internalType": "uint256",
          "name": "_id",
          "type": "uint256"
        }
      ],
      "name": "getPlayerExists",
      "outputs": [
        {
          "internalType": "bool",
          "name": "",
          "type": "bool"
        }
      ],
      "stateMutability": "view",
      "type": "function"
    },
    {
      "inputs": [
        {
          "internalType": "address",
          "name": "_owner",
          "type": "address"
        }
      ],
      "name": "getPlayersByOwner",
      "outputs": [
        {
          "internalType": "uint256[]",
          "name": "",
          "type": "uint256[]"
        }
      ],
      "stateMutability": "view",
      "type": "function"
    },
    {
      "inputs": [
        {
          "internalType": "address",
          "name": "owner",
          "type": "address"
        },
        {
          "internalType": "address",
          "name": "operator",
          "type": "address"
        }
      ],
      "name": "isApprovedForAll",
      "outputs": [
        {
          "internalType": "bool",
          "name": "",
          "type": "bool"
        }
      ],
      "stateMutability": "view",
      "type": "function"
    },
    {
      "inputs": [
        {
          "internalType": "address",
          "name": "",
          "type": "address"
        }
      ],
      "name": "lineUps",
      "outputs": [
        {
          "internalType": "string",
          "name": "formation",
          "type": "string"
        },
        {
          "internalType": "bool",
          "name": "isValid",
          "type": "bool"
        }
      ],
      "stateMutability": "view",
      "type": "function"
    },
    {
      "inputs": [
        {
          "internalType": "uint256",
          "name": "_playerId",
          "type": "uint256"
        },
        {
          "internalType": "uint256",
          "name": "_price",
          "type": "uint256"
        }
      ],
      "name": "list",
      "outputs": [],
      "stateMutability": "nonpayable",
      "type": "function"
    },
    {
      "inputs": [
        {
          "internalType": "uint256",
          "name": "",
          "type": "uint256"
        }
      ],
      "name": "listedPlayers",
      "outputs": [
        {
          "internalType": "uint256",
          "name": "",
          "type": "uint256"
        }
      ],
      "stateMutability": "view",
      "type": "function"
    },
    {
      "inputs": [
        {
          "internalType": "uint256",
          "name": "",
          "type": "uint256"
        }
      ],
      "name": "listedPlayersPrices",
      "outputs": [
        {
          "internalType": "uint256",
          "name": "",
          "type": "uint256"
        }
      ],
      "stateMutability": "view",
      "type": "function"
    },
    {
      "inputs": [],
      "name": "maxLevel",
      "outputs": [
        {
          "internalType": "uint256",
          "name": "",
          "type": "uint256"
        }
      ],
      "stateMutability": "view",
      "type": "function"
    },
    {
      "inputs": [
        {
          "components": [
            {
              "internalType": "string",
              "name": "name",
              "type": "string"
            },
            {
              "internalType": "string",
              "name": "preferredPosition",
              "type": "string"
            },
            {
              "internalType": "uint256",
              "name": "id",
              "type": "uint256"
            },
            {
              "internalType": "uint8",
              "name": "age",
              "type": "uint8"
            },
            {
              "internalType": "uint8",
              "name": "level",
              "type": "uint8"
            },
            {
              "internalType": "uint64",
              "name": "lastUpgrade",
              "type": "uint64"
            },
            {
              "internalType": "string[]",
              "name": "suitablePositions",
              "type": "string[]"
            },
            {
              "internalType": "string",
              "name": "imageURI",
              "type": "string"
            }
          ],
          "internalType": "struct FutNFT.Player",
          "name": "_player",
          "type": "tuple"
        }
      ],
      "name": "mint",
      "outputs": [],
      "stateMutability": "nonpayable",
      "type": "function"
    },
    {
      "inputs": [],
      "name": "name",
      "outputs": [
        {
          "internalType": "string",
          "name": "",
          "type": "string"
        }
      ],
      "stateMutability": "view",
      "type": "function"
    },
    {
      "inputs": [],
      "name": "owner",
      "outputs": [
        {
          "internalType": "address",
          "name": "",
          "type": "address"
        }
      ],
      "stateMutability": "view",
      "type": "function"
    },
    {
      "inputs": [
        {
          "internalType": "uint256",
          "name": "tokenId",
          "type": "uint256"
        }
      ],
      "name": "ownerOf",
      "outputs": [
        {
          "internalType": "address",
          "name": "",
          "type": "address"
        }
      ],
      "stateMutability": "view",
      "type": "function"
    },
    {
      "inputs": [
        {
          "internalType": "uint256",
          "name": "",
          "type": "uint256"
        }
      ],
      "name": "playerToOwner",
      "outputs": [
        {
          "internalType": "address",
          "name": "",
          "type": "address"
        }
      ],
      "stateMutability": "view",
      "type": "function"
    },
    {
      "inputs": [],
      "name": "renounceOwnership",
      "outputs": [],
      "stateMutability": "nonpayable",
      "type": "function"
    },
    {
      "inputs": [
        {
          "internalType": "address",
          "name": "from",
          "type": "address"
        },
        {
          "internalType": "address",
          "name": "to",
          "type": "address"
        },
        {
          "internalType": "uint256",
          "name": "tokenId",
          "type": "uint256"
        }
      ],
      "name": "safeTransferFrom",
      "outputs": [],
      "stateMutability": "nonpayable",
      "type": "function"
    },
    {
      "inputs": [
        {
          "internalType": "address",
          "name": "from",
          "type": "address"
        },
        {
          "internalType": "address",
          "name": "to",
          "type": "address"
        },
        {
          "internalType": "uint256",
          "name": "tokenId",
          "type": "uint256"
        },
        {
          "internalType": "bytes",
          "name": "_data",
          "type": "bytes"
        }
      ],
      "name": "safeTransferFrom",
      "outputs": [],
      "stateMutability": "nonpayable",
      "type": "function"
    },
    {
      "inputs": [
        {
          "internalType": "address",
          "name": "operator",
          "type": "address"
        },
        {
          "internalType": "bool",
          "name": "approved",
          "type": "bool"
        }
      ],
      "name": "setApprovalForAll",
      "outputs": [],
      "stateMutability": "nonpayable",
      "type": "function"
    },
    {
      "inputs": [
        {
          "internalType": "uint256",
          "name": "_cooldown",
          "type": "uint256"
        }
      ],
      "name": "setCooldown",
      "outputs": [],
      "stateMutability": "nonpayable",
      "type": "function"
    },
    {
      "inputs": [
        {
          "internalType": "uint256",
          "name": "_fee",
          "type": "uint256"
        }
      ],
      "name": "setFee",
      "outputs": [],
      "stateMutability": "nonpayable",
      "type": "function"
    },
    {
      "inputs": [
        {
          "internalType": "uint256",
          "name": "_level",
          "type": "uint256"
        }
      ],
      "name": "setMaxLevel",
      "outputs": [],
      "stateMutability": "nonpayable",
      "type": "function"
    },
    {
      "inputs": [
        {
          "internalType": "bytes4",
          "name": "interfaceId",
          "type": "bytes4"
        }
      ],
      "name": "supportsInterface",
      "outputs": [
        {
          "internalType": "bool",
          "name": "",
          "type": "bool"
        }
      ],
      "stateMutability": "view",
      "type": "function"
    },
    {
      "inputs": [],
      "name": "symbol",
      "outputs": [
        {
          "internalType": "string",
          "name": "",
          "type": "string"
        }
      ],
      "stateMutability": "view",
      "type": "function"
    },
    {
      "inputs": [
        {
          "internalType": "uint256",
          "name": "index",
          "type": "uint256"
        }
      ],
      "name": "tokenByIndex",
      "outputs": [
        {
          "internalType": "uint256",
          "name": "",
          "type": "uint256"
        }
      ],
      "stateMutability": "view",
      "type": "function"
    },
    {
      "inputs": [
        {
          "internalType": "address",
          "name": "owner",
          "type": "address"
        },
        {
          "internalType": "uint256",
          "name": "index",
          "type": "uint256"
        }
      ],
      "name": "tokenOfOwnerByIndex",
      "outputs": [
        {
          "internalType": "uint256",
          "name": "",
          "type": "uint256"
        }
      ],
      "stateMutability": "view",
      "type": "function"
    },
    {
      "inputs": [
        {
          "internalType": "uint256",
          "name": "tokenId",
          "type": "uint256"
        }
      ],
      "name": "tokenURI",
      "outputs": [
        {
          "internalType": "string",
          "name": "",
          "type": "string"
        }
      ],
      "stateMutability": "view",
      "type": "function"
    },
    {
      "inputs": [],
      "name": "totalSupply",
      "outputs": [
        {
          "internalType": "uint256",
          "name": "",
          "type": "uint256"
        }
      ],
      "stateMutability": "view",
      "type": "function"
    },
    {
      "inputs": [
        {
          "internalType": "uint256",
          "name": "_playerId",
          "type": "uint256"
        }
      ],
      "name": "train",
      "outputs": [],
      "stateMutability": "payable",
      "type": "function"
    },
    {
      "inputs": [
        {
          "internalType": "address",
          "name": "from",
          "type": "address"
        },
        {
          "internalType": "address",
          "name": "to",
          "type": "address"
        },
        {
          "internalType": "uint256",
          "name": "tokenId",
          "type": "uint256"
        }
      ],
      "name": "transferFrom",
      "outputs": [],
      "stateMutability": "nonpayable",
      "type": "function"
    },
    {
      "inputs": [
        {
          "internalType": "address",
          "name": "newOwner",
          "type": "address"
        }
      ],
      "name": "transferOwnership",
      "outputs": [],
      "stateMutability": "nonpayable",
      "type": "function"
    },
    {
      "inputs": [
        {
          "internalType": "uint256",
          "name": "_playerId",
          "type": "uint256"
        }
      ],
      "name": "transferPlayer",
      "outputs": [],
      "stateMutability": "payable",
      "type": "function"
    },
    {
      "inputs": [
        {
          "internalType": "uint256",
          "name": "_playerId",
          "type": "uint256"
        }
      ],
      "name": "unlist",
      "outputs": [],
      "stateMutability": "nonpayable",
      "type": "function"
    },
    {
      "inputs": [
        {
          "internalType": "uint256",
          "name": "_price",
          "type": "uint256"
        }
      ],
      "name": "withdraw",
      "outputs": [],
      "stateMutability": "nonpayable",
      "type": "function"
    }
  ],
  "bytecode": "0x608060405261a8c06014556729a2241af62c0000601555600060165560646017553480156200002d57600080fd5b506040805180820182526006815265119d5d13919560d21b6020808301918252835180850190945260048452631193919560e21b908401528151919291620000789160009162000107565b5080516200008e90600190602084019062000107565b505050620000ab620000a5620000b160201b60201c565b620000b5565b620001ea565b3390565b600a80546001600160a01b038381166001600160a01b0319831681179093556040519116919082907f8be0079c531659141344cd1fd0a4f28419497f9722a3daafe3b4186f6b6457e090600090a35050565b8280546200011590620001ad565b90600052602060002090601f01602090048101928262000139576000855562000184565b82601f106200015457805160ff191683800117855562000184565b8280016001018555821562000184579182015b828111156200018457825182559160200191906001019062000167565b506200019292915062000196565b5090565b5b8082111562000192576000815560010162000197565b600181811c90821680620001c257607f821691505b60208210811415620001e457634e487b7160e01b600052602260045260246000fd5b50919050565b61354a80620001fa6000396000f3fe6080604052600436106102465760003560e01c80636433228511610139578063bf5a4dd3116100b6578063e55ae4e81161007a578063e55ae4e8146106b7578063e985e9c5146106e4578063eef2fc1f1461072d578063f2eeb5361461074d578063f2fde38b1461076d578063fd32f9181461078d57600080fd5b8063bf5a4dd314610635578063c87b56dd14610655578063cc06c35914610675578063ddca3f431461068b578063e1a51a62146106a157600080fd5b80638da5cb5b116100fd5780638da5cb5b146105a2578063923e5c6a146105c057806395d89b41146105e0578063a22cb465146105f5578063b88d4fde1461061557600080fd5b8063643322851461050a57806369fe0e2d1461053757806370a0823114610557578063715018a614610577578063787a08a61461058c57600080fd5b80632f4c3a84116101c75780634f6ccce71161018b5780634f6ccce7146104525780634fc3f41a1461047257806350fd736714610492578063580adaa3146104b25780636352211e146104ea57600080fd5b80632f4c3a84146103cc5780632f745c59146103df578063344f1ba5146103ff578063368004ed1461041f57806342842e0e1461043257600080fd5b806312065fe01161020e57806312065fe01461031e57806318160ddd1461034157806319b90d271461035657806323b872dd1461038c5780632e1a7d4d146103ac57600080fd5b806301ffc9a71461024b57806305901e891461028057806306fdde03146102a2578063081812fc146102c4578063095ea7b3146102fc575b600080fd5b34801561025757600080fd5b5061026b610266366004612b52565b6107bb565b60405190151581526020015b60405180910390f35b34801561028c57600080fd5b506102956107cc565b6040516102779190612b6f565b3480156102ae57600080fd5b506102b7610824565b6040516102779190612c0b565b3480156102d057600080fd5b506102e46102df366004612c1e565b6108ad565b6040516001600160a01b039091168152602001610277565b34801561030857600080fd5b5061031c610317366004612c53565b610947565b005b34801561032a57600080fd5b50610333610a5d565b604051908152602001610277565b34801561034d57600080fd5b50600854610333565b34801561036257600080fd5b506102e4610371366004612c1e565b600d602052600090815260409020546001600160a01b031681565b34801561039857600080fd5b5061031c6103a7366004612c7d565b610a8f565b3480156103b857600080fd5b5061031c6103c7366004612c1e565b610ac0565b61031c6103da366004612c1e565b610bf1565b3480156103eb57600080fd5b506103336103fa366004612c53565b610d5a565b34801561040b57600080fd5b5061031c61041a366004612c1e565b610df0565b61031c61042d366004612c1e565b610e1f565b34801561043e57600080fd5b5061031c61044d366004612c7d565b611098565b34801561045e57600080fd5b5061033361046d366004612c1e565b6110b3565b34801561047e57600080fd5b5061031c61048d366004612c1e565b611146565b34801561049e57600080fd5b5061031c6104ad366004612cb9565b611175565b3480156104be57600080fd5b5061026b6104cd366004612c1e565b6000908152600d60205260409020546001600160a01b0316151590565b3480156104f657600080fd5b506102e4610505366004612c1e565b611386565b34801561051657600080fd5b50610333610525366004612c1e565b600f6020526000908152604090205481565b34801561054357600080fd5b5061031c610552366004612c1e565b611391565b34801561056357600080fd5b50610333610572366004612cdb565b6113c0565b34801561058357600080fd5b5061031c611447565b34801561059857600080fd5b5061033360145481565b3480156105ae57600080fd5b50600a546001600160a01b03166102e4565b3480156105cc57600080fd5b506103336105db366004612c1e565b61147d565b3480156105ec57600080fd5b506102b761149e565b34801561060157600080fd5b5061031c610610366004612cf6565b6114ad565b34801561062157600080fd5b5061031c610630366004612df8565b6114bc565b34801561064157600080fd5b5061031c610650366004612c1e565b6114ee565b34801561066157600080fd5b506102b7610670366004612c1e565b611618565b34801561068157600080fd5b5061033360175481565b34801561069757600080fd5b5061033360155481565b3480156106ad57600080fd5b5061033360165481565b3480156106c357600080fd5b506106d76106d2366004612c1e565b611700565b6040516102779190612ec8565b3480156106f057600080fd5b5061026b6106ff366004612f8f565b6001600160a01b03918216600090815260056020908152604080832093909416825291909152205460ff1690565b34801561073957600080fd5b50610295610748366004612cdb565b611a49565b34801561075957600080fd5b5061031c6107683660046130a8565b611ba3565b34801561077957600080fd5b5061031c610788366004612cdb565b611dc7565b34801561079957600080fd5b506107ad6107a8366004612cdb565b611e62565b6040516102779291906131be565b60006107c682611f0b565b92915050565b6060601280548060200260200160405190810160405280929190818152602001828054801561081a57602002820191906000526020600020905b815481526020019060010190808311610806575b5050505050905090565b606060008054610833906131e2565b80601f016020809104026020016040519081016040528092919081815260200182805461085f906131e2565b801561081a5780601f106108815761010080835404028352916020019161081a565b820191906000526020600020905b81548152906001019060200180831161088f57509395945050505050565b6000818152600260205260408120546001600160a01b031661092b5760405162461bcd60e51b815260206004820152602c60248201527f4552433732313a20617070726f76656420717565727920666f72206e6f6e657860448201526b34b9ba32b73a103a37b5b2b760a11b60648201526084015b60405180910390fd5b506000908152600460205260409020546001600160a01b031690565b600061095282611f30565b9050806001600160a01b0316836001600160a01b031614156109c05760405162461bcd60e51b815260206004820152602160248201527f4552433732313a20617070726f76616c20746f2063757272656e74206f776e656044820152603960f91b6064820152608401610922565b336001600160a01b03821614806109dc57506109dc81336106ff565b610a4e5760405162461bcd60e51b815260206004820152603860248201527f4552433732313a20617070726f76652063616c6c6572206973206e6f74206f7760448201527f6e6572206e6f7220617070726f76656420666f7220616c6c00000000000000006064820152608401610922565b610a588383611fa7565b505050565b600a546000906001600160a01b03163314610a8a5760405162461bcd60e51b81526004016109229061321d565b504790565b610a993382612015565b610ab55760405162461bcd60e51b815260040161092290613252565b610a5883838361210c565b600a546001600160a01b03163314610aea5760405162461bcd60e51b81526004016109229061321d565b80471015610b455760405162461bcd60e51b815260206004820152602260248201527f5468652070726963652069732067726561746572207468616e2062616c616e63604482015261652160f01b6064820152608401610922565b6040513390600090829084908381818185875af1925050503d8060008114610b89576040519150601f19603f3d011682016040523d82523d6000602084013e610b8e565b606091505b5050905080610a585760405162461bcd60e51b815260206004820152602960248201527f5472616e73616374696f6e206661696c65642c20636f756c64206e6f742073656044820152686e642066756e64732160b81b6064820152608401610922565b6000818152600e60205260409020548190610c1e5760405162461bcd60e51b8152600401610922906132a3565b6000828152600f60205260409020543414610c3857600080fd5b6000610c4383611386565b90506000816001600160a01b03163460405160006040518083038185875af1925050503d8060008114610c92576040519150601f19603f3d011682016040523d82523d6000602084013e610c97565b606091505b5050905080610cd95760405162461bcd60e51b815260206004820152600e60248201526d11985a5b1959081d1bc81cd95b9960921b6044820152606401610922565b610ce482338661210c565b6001600160a01b0382166000908152601160205260408120805491610d0883613301565b90915550506000848152600d6020908152604080832080546001600160a01b03191633908117909155835260119091528120805491610d4683613318565b9190505550610d54846114ee565b50505050565b6000610d65836113c0565b8210610dc75760405162461bcd60e51b815260206004820152602b60248201527f455243373231456e756d657261626c653a206f776e657220696e646578206f7560448201526a74206f6620626f756e647360a81b6064820152608401610922565b506001600160a01b03919091166000908152600660209081526040808320938352929052205490565b600a546001600160a01b03163314610e1a5760405162461bcd60e51b81526004016109229061321d565b601755565b6014546000828152600c60205260409020600301548291904290610e539083906201000090046001600160401b0316613333565b1115610ea15760405162461bcd60e51b815260206004820152601c60248201527f436f6f6c646f776e20706572696f64206973206e6f74206f76657221000000006044820152606401610922565b6017546000848152600c60205260409020600301548490610100900460ff168211610f0e5760405162461bcd60e51b815260206004820152601d60248201527f506c61796572206861732072656163686564206d6178206c6576656c210000006044820152606401610922565b6000858152600d602052604090205485906001600160a01b0316610f445760405162461bcd60e51b81526004016109229061334b565b610f4d81611386565b6001600160a01b0316336001600160a01b031614610f7d5760405162461bcd60e51b81526004016109229061337a565b601554341015610fcf5760405162461bcd60e51b815260206004820152601960248201527f526571756972656420666565206973206e6f742073656e7421000000000000006044820152606401610922565b6000868152600c602052604090206003018054610100900460ff16906001610ff6836133a2565b82546101009290920a60ff818102199093169190921691909102179055506000868152600c60205260408120600301805469ffffffffffffffff0000191662010000426001600160401b03160217905560168054349290611058908490613333565b90915550506040518681527f6a1b6f91db361bdf7356d3942ed64f2ee2fea430979dbba7ea23f44e8b2110079060200160405180910390a1505050505050565b610a58838383604051806020016040528060008152506114bc565b60006110be60085490565b82106111215760405162461bcd60e51b815260206004820152602c60248201527f455243373231456e756d657261626c653a20676c6f62616c20696e646578206f60448201526b7574206f6620626f756e647360a01b6064820152608401610922565b60088281548110611134576111346133c2565b90600052602060002001549050919050565b600a546001600160a01b031633146111705760405162461bcd60e51b81526004016109229061321d565b601455565b6000828152600d602052604090205482906001600160a01b03166111ab5760405162461bcd60e51b81526004016109229061334b565b6111b481611386565b6001600160a01b0316336001600160a01b0316146111e45760405162461bcd60e51b81526004016109229061337a565b6000838152600e60205260409020548390156112575760405162461bcd60e51b815260206004820152602c60248201527f5468697320706c6179657220697320616c7265616479206c6973746564206f6e60448201526b20746865206d61726b65742160a01b6064820152608401610922565b60005b600b8110156112f85733600090815260106020526040812082600b8110611283576112836133c2565b01549050858114156112e55760405162461bcd60e51b815260206004820152602560248201527f506c6179657220697320696e20746865206c696e6575702c2063616e6e6f74206044820152646c6973742160d81b6064820152608401610922565b50806112f081613318565b91505061125a565b50601280546001810182557fbb8a6a4669ba250d26cd7a459eca9d215f8307e33aebe50379bc5a3617ec3444018590556000858152600f602090815260408083208790559254600e9091529082902055517ff3ecdc9ffda52c5ad69793c567cb456f83bba2d14f196542e0be80c919a8bda3906113789086815260200190565b60405180910390a150505050565b60006107c682611f30565b600a546001600160a01b031633146113bb5760405162461bcd60e51b81526004016109229061321d565b601555565b60006001600160a01b03821661142b5760405162461bcd60e51b815260206004820152602a60248201527f4552433732313a2062616c616e636520717565727920666f7220746865207a65604482015269726f206164647265737360b01b6064820152608401610922565b506001600160a01b031660009081526003602052604090205490565b600a546001600160a01b031633146114715760405162461bcd60e51b81526004016109229061321d565b61147b60006122b3565b565b6012818154811061148d57600080fd5b600091825260209091200154905081565b606060018054610833906131e2565b6114b8338383612305565b5050565b6114c63383612015565b6114e25760405162461bcd60e51b815260040161092290613252565b610d54848484846123d4565b6000818152600d602052604090205481906001600160a01b03166115245760405162461bcd60e51b81526004016109229061334b565b61152d81611386565b6001600160a01b0316336001600160a01b03161461155d5760405162461bcd60e51b81526004016109229061337a565b6000828152600e6020526040902054829061158a5760405162461bcd60e51b8152600401610922906132a3565b6000838152600e60205260409020546012906115a8906001906133d8565b815481106115b8576115b86133c2565b6000918252602080832091909101829055848252600e81526040808320839055600f82528083209290925590518481527f6318005f6dc5a71d3e4ad5b4d1fe455ef3402d62b64573777af55bb6bfe3daab910160405180910390a1505050565b6000818152600260205260409020546060906001600160a01b03166116975760405162461bcd60e51b815260206004820152602f60248201527f4552433732314d657461646174613a2055524920717565727920666f72206e6f60448201526e3732bc34b9ba32b73a103a37b5b2b760891b6064820152608401610922565b60006116ae60408051602081019091526000815290565b905060008151116116ce57604051806020016040528060008152506116f9565b806116d884612407565b6040516020016116e99291906133ef565b6040516020818303038152906040525b9392505050565b611757604051806101000160405280606081526020016060815260200160008152602001600060ff168152602001600060ff16815260200160006001600160401b0316815260200160608152602001606081525090565b6000828152600c60205260409081902081516101008101909252805482908290611780906131e2565b80601f01602080910402602001604051908101604052809291908181526020018280546117ac906131e2565b80156117f95780601f106117ce576101008083540402835291602001916117f9565b820191906000526020600020905b8154815290600101906020018083116117dc57829003601f168201915b50505050508152602001600182018054611812906131e2565b80601f016020809104026020016040519081016040528092919081815260200182805461183e906131e2565b801561188b5780601f106118605761010080835404028352916020019161188b565b820191906000526020600020905b81548152906001019060200180831161186e57829003601f168201915b50505091835250506002820154602080830191909152600383015460ff80821660408086019190915261010083049091166060850152620100009091046001600160401b0316608084015260048401805482518185028101850190935280835260a090940193919290919060009084015b828210156119a857838290600052602060002001805461191b906131e2565b80601f0160208091040260200160405190810160405280929190818152602001828054611947906131e2565b80156119945780601f1061196957610100808354040283529160200191611994565b820191906000526020600020905b81548152906001019060200180831161197757829003601f168201915b5050505050815260200190600101906118fc565b5050505081526020016005820180546119c0906131e2565b80601f01602080910402602001604051908101604052809291908181526020018280546119ec906131e2565b8015611a395780601f10611a0e57610100808354040283529160200191611a39565b820191906000526020600020905b815481529060010190602001808311611a1c57829003601f168201915b5050505050815250509050919050565b6001600160a01b038116600090815260116020526040812054606091906001600160401b03811115611a7d57611a7d612d32565b604051908082528060200260200182016040528015611aa6578160200160208202803683370190505b5090506000805b601354811015611b9a57846001600160a01b0316600d600060138481548110611ad857611ad86133c2565b600091825260208083209091015483528201929092526040019020546001600160a01b0316148015611b3a5750600e600060138381548110611b1c57611b1c6133c2565b90600052602060002001548152602001908152602001600020546000145b15611b885760138181548110611b5257611b526133c2565b9060005260206000200154838381518110611b6f57611b6f6133c2565b602090810291909101015281611b8481613318565b9250505b80611b9281613318565b915050611aad565b50909392505050565b600a546001600160a01b03163314611bcd5760405162461bcd60e51b81526004016109229061321d565b6040808201516000908152600d60205220546001600160a01b031615611c265760405162461bcd60e51b815260206004820152600e60248201526d506c61796572204578697374732160901b6044820152606401610922565b6040808201516000908152600c6020908152919020825180518493611c4f9284929101906129f3565b506020828101518051611c6892600185019201906129f3565b50604082015160028201556060820151600382018054608085015160a08601516001600160401b0316620100000269ffffffffffffffff00001960ff9283166101000261ffff199094169290951691909117919091179290921691909117905560c08201518051611ce3916004840191602090910190612a77565b5060e08201518051611cff9160058401916020909101906129f3565b505050604080820180516013805460018101825560009182527f66de8ffda797e3de9c05e8fc57b3bf0ec28a930d40b0d285d93c06501cf6a090019190915590518152600d602090815282822080546001600160a01b03191633908117909155825260119052908120805491611d7483613318565b9190505550611d87338260400151612504565b7f5af403e238a3f8f7d43c05ff2fac53c833e031e8fb8ec011b3c8e073d870ad7b8160400151604051611dbc91815260200190565b60405180910390a150565b600a546001600160a01b03163314611df15760405162461bcd60e51b81526004016109229061321d565b6001600160a01b038116611e565760405162461bcd60e51b815260206004820152602660248201527f4f776e61626c653a206e6577206f776e657220697320746865207a65726f206160448201526564647265737360d01b6064820152608401610922565b611e5f816122b3565b50565b6010602052600090815260409020601681018054611e7f906131e2565b80601f0160208091040260200160405190810160405280929190818152602001828054611eab906131e2565b8015611ef85780601f10611ecd57610100808354040283529160200191611ef8565b820191906000526020600020905b815481529060010190602001808311611edb57829003601f168201915b5050506017909301549192505060ff1682565b60006001600160e01b0319821663780e9d6360e01b14806107c657506107c682612652565b6000818152600260205260408120546001600160a01b0316806107c65760405162461bcd60e51b815260206004820152602960248201527f4552433732313a206f776e657220717565727920666f72206e6f6e657869737460448201526832b73a103a37b5b2b760b91b6064820152608401610922565b600081815260046020526040902080546001600160a01b0319166001600160a01b0384169081179091558190611fdc82611f30565b6001600160a01b03167f8c5be1e5ebec7d5bd14f71427d1e84f3dd0314c0f7b2291e5b200ac8c7c3b92560405160405180910390a45050565b6000818152600260205260408120546001600160a01b031661208e5760405162461bcd60e51b815260206004820152602c60248201527f4552433732313a206f70657261746f7220717565727920666f72206e6f6e657860448201526b34b9ba32b73a103a37b5b2b760a11b6064820152608401610922565b600061209983611f30565b9050806001600160a01b0316846001600160a01b031614806120d45750836001600160a01b03166120c9846108ad565b6001600160a01b0316145b8061210457506001600160a01b0380821660009081526005602090815260408083209388168352929052205460ff165b949350505050565b826001600160a01b031661211f82611f30565b6001600160a01b0316146121835760405162461bcd60e51b815260206004820152602560248201527f4552433732313a207472616e736665722066726f6d20696e636f72726563742060448201526437bbb732b960d91b6064820152608401610922565b6001600160a01b0382166121e55760405162461bcd60e51b8152602060048201526024808201527f4552433732313a207472616e7366657220746f20746865207a65726f206164646044820152637265737360e01b6064820152608401610922565b6121f08383836126a2565b6121fb600082611fa7565b6001600160a01b03831660009081526003602052604081208054600192906122249084906133d8565b90915550506001600160a01b0382166000908152600360205260408120805460019290612252908490613333565b909155505060008181526002602052604080822080546001600160a01b0319166001600160a01b0386811691821790925591518493918716917fddf252ad1be2c89b69c2b068fc378daa952ba7f163c4a11628f55a4df523b3ef91a4505050565b600a80546001600160a01b038381166001600160a01b0319831681179093556040519116919082907f8be0079c531659141344cd1fd0a4f28419497f9722a3daafe3b4186f6b6457e090600090a35050565b816001600160a01b0316836001600160a01b031614156123675760405162461bcd60e51b815260206004820152601960248201527f4552433732313a20617070726f766520746f2063616c6c6572000000000000006044820152606401610922565b6001600160a01b03838116600081815260056020908152604080832094871680845294825291829020805460ff191686151590811790915591519182527f17307eab39ab6107e8899845ad3d59bd9653f200f220920489ca2b5937696c31910160405180910390a3505050565b6123df84848461210c565b6123eb848484846126ad565b610d545760405162461bcd60e51b81526004016109229061341e565b60608161242b5750506040805180820190915260018152600360fc1b602082015290565b8160005b8115612455578061243f81613318565b915061244e9050600a83613486565b915061242f565b6000816001600160401b0381111561246f5761246f612d32565b6040519080825280601f01601f191660200182016040528015612499576020820181803683370190505b5090505b8415612104576124ae6001836133d8565b91506124bb600a8661349a565b6124c6906030613333565b60f81b8183815181106124db576124db6133c2565b60200101906001600160f81b031916908160001a9053506124fd600a86613486565b945061249d565b6001600160a01b03821661255a5760405162461bcd60e51b815260206004820181905260248201527f4552433732313a206d696e7420746f20746865207a65726f20616464726573736044820152606401610922565b6000818152600260205260409020546001600160a01b0316156125bf5760405162461bcd60e51b815260206004820152601c60248201527f4552433732313a20746f6b656e20616c7265616479206d696e746564000000006044820152606401610922565b6125cb600083836126a2565b6001600160a01b03821660009081526003602052604081208054600192906125f4908490613333565b909155505060008181526002602052604080822080546001600160a01b0319166001600160a01b03861690811790915590518392907fddf252ad1be2c89b69c2b068fc378daa952ba7f163c4a11628f55a4df523b3ef908290a45050565b60006001600160e01b031982166380ac58cd60e01b148061268357506001600160e01b03198216635b5e139f60e01b145b806107c657506301ffc9a760e01b6001600160e01b03198316146107c6565b610a588383836127ab565b60006001600160a01b0384163b156127a057604051630a85bd0160e11b81526001600160a01b0385169063150b7a02906126f19033908990889088906004016134ae565b6020604051808303816000875af192505050801561272c575060408051601f3d908101601f19168201909252612729918101906134e1565b60015b612786573d80801561275a576040519150601f19603f3d011682016040523d82523d6000602084013e61275f565b606091505b50805161277e5760405162461bcd60e51b81526004016109229061341e565b805181602001fd5b6001600160e01b031916630a85bd0160e11b149050612104565b506001949350505050565b6001600160a01b0383166128065761280181600880546000838152600960205260408120829055600182018355919091527ff3f7a9fe364faab93b216da50a3214154f22a0a2b415b23a84c8169e8b636ee30155565b612829565b816001600160a01b0316836001600160a01b031614612829576128298382612863565b6001600160a01b03821661284057610a5881612900565b826001600160a01b0316826001600160a01b031614610a5857610a5882826129af565b60006001612870846113c0565b61287a91906133d8565b6000838152600760205260409020549091508082146128cd576001600160a01b03841660009081526006602090815260408083208584528252808320548484528184208190558352600790915290208190555b5060009182526007602090815260408084208490556001600160a01b039094168352600681528383209183525290812055565b600854600090612912906001906133d8565b6000838152600960205260408120546008805493945090928490811061293a5761293a6133c2565b90600052602060002001549050806008838154811061295b5761295b6133c2565b6000918252602080832090910192909255828152600990915260408082208490558582528120556008805480612993576129936134fe565b6001900381819060005260206000200160009055905550505050565b60006129ba836113c0565b6001600160a01b039093166000908152600660209081526040808320868452825280832085905593825260079052919091209190915550565b8280546129ff906131e2565b90600052602060002090601f016020900481019282612a215760008555612a67565b82601f10612a3a57805160ff1916838001178555612a67565b82800160010185558215612a67579182015b82811115612a67578251825591602001919060010190612a4c565b50612a73929150612ad0565b5090565b828054828255906000526020600020908101928215612ac4579160200282015b82811115612ac45782518051612ab49184916020909101906129f3565b5091602001919060010190612a97565b50612a73929150612ae5565b5b80821115612a735760008155600101612ad1565b80821115612a73576000612af98282612b02565b50600101612ae5565b508054612b0e906131e2565b6000825580601f10612b1e575050565b601f016020900490600052602060002090810190611e5f9190612ad0565b6001600160e01b031981168114611e5f57600080fd5b600060208284031215612b6457600080fd5b81356116f981612b3c565b6020808252825182820181905260009190848201906040850190845b81811015612ba757835183529284019291840191600101612b8b565b50909695505050505050565b60005b83811015612bce578181015183820152602001612bb6565b83811115610d545750506000910152565b60008151808452612bf7816020860160208601612bb3565b601f01601f19169290920160200192915050565b6020815260006116f96020830184612bdf565b600060208284031215612c3057600080fd5b5035919050565b80356001600160a01b0381168114612c4e57600080fd5b919050565b60008060408385031215612c6657600080fd5b612c6f83612c37565b946020939093013593505050565b600080600060608486031215612c9257600080fd5b612c9b84612c37565b9250612ca960208501612c37565b9150604084013590509250925092565b60008060408385031215612ccc57600080fd5b50508035926020909101359150565b600060208284031215612ced57600080fd5b6116f982612c37565b60008060408385031215612d0957600080fd5b612d1283612c37565b915060208301358015158114612d2757600080fd5b809150509250929050565b634e487b7160e01b600052604160045260246000fd5b60405161010081016001600160401b0381118282101715612d6b57612d6b612d32565b60405290565b604051601f8201601f191681016001600160401b0381118282101715612d9957612d99612d32565b604052919050565b60006001600160401b03831115612dba57612dba612d32565b612dcd601f8401601f1916602001612d71565b9050828152838383011115612de157600080fd5b828260208301376000602084830101529392505050565b60008060008060808587031215612e0e57600080fd5b612e1785612c37565b9350612e2560208601612c37565b92506040850135915060608501356001600160401b03811115612e4757600080fd5b8501601f81018713612e5857600080fd5b612e6787823560208401612da1565b91505092959194509250565b600081518084526020808501808196508360051b8101915082860160005b85811015612ebb578284038952612ea9848351612bdf565b98850198935090840190600101612e91565b5091979650505050505050565b6020815260008251610100806020850152612ee7610120850183612bdf565b91506020850151601f1980868503016040870152612f058483612bdf565b93506040870151606087015260608701519150612f27608087018360ff169052565b608087015160ff811660a0880152915060a08701516001600160401b03811660c0880152915060c08701519150808685030160e0870152612f688483612e73565b935060e0870151915080868503018387015250612f858382612bdf565b9695505050505050565b60008060408385031215612fa257600080fd5b612fab83612c37565b9150612fb960208401612c37565b90509250929050565b600082601f830112612fd357600080fd5b6116f983833560208501612da1565b803560ff81168114612c4e57600080fd5b80356001600160401b0381168114612c4e57600080fd5b600082601f83011261301b57600080fd5b813560206001600160401b038083111561303757613037612d32565b8260051b613046838201612d71565b938452858101830193838101908886111561306057600080fd5b84880192505b8583101561309c5782358481111561307e5760008081fd5b61308c8a87838c0101612fc2565b8352509184019190840190613066565b98975050505050505050565b6000602082840312156130ba57600080fd5b81356001600160401b03808211156130d157600080fd5b9083019061010082860312156130e657600080fd5b6130ee612d48565b8235828111156130fd57600080fd5b61310987828601612fc2565b82525060208301358281111561311e57600080fd5b61312a87828601612fc2565b6020830152506040830135604082015261314660608401612fe2565b606082015261315760808401612fe2565b608082015261316860a08401612ff3565b60a082015260c08301358281111561317f57600080fd5b61318b8782860161300a565b60c08301525060e0830135828111156131a357600080fd5b6131af87828601612fc2565b60e08301525095945050505050565b6040815260006131d16040830185612bdf565b905082151560208301529392505050565b600181811c908216806131f657607f821691505b6020821081141561321757634e487b7160e01b600052602260045260246000fd5b50919050565b6020808252818101527f4f776e61626c653a2063616c6c6572206973206e6f7420746865206f776e6572604082015260600190565b60208082526031908201527f4552433732313a207472616e736665722063616c6c6572206973206e6f74206f6040820152701ddb995c881b9bdc88185c1c1c9bdd9959607a1b606082015260800190565b60208082526028908201527f5468697320706c61796572206973206e6f74206c6973746564206f6e20746865604082015267206d61726b65742160c01b606082015260800190565b634e487b7160e01b600052601160045260246000fd5b600081613310576133106132eb565b506000190190565b600060001982141561332c5761332c6132eb565b5060010190565b60008219821115613346576133466132eb565b500190565b602080825260159082015274141b185e595c88191bd95cc81b9bdd08195e1a5cdd605a1b604082015260600190565b6020808252600e908201526d4e6f7420746865206f776e65722160901b604082015260600190565b600060ff821660ff8114156133b9576133b96132eb565b60010192915050565b634e487b7160e01b600052603260045260246000fd5b6000828210156133ea576133ea6132eb565b500390565b60008351613401818460208801612bb3565b835190830190613415818360208801612bb3565b01949350505050565b60208082526032908201527f4552433732313a207472616e7366657220746f206e6f6e20455243373231526560408201527131b2b4bb32b91034b6b83632b6b2b73a32b960711b606082015260800190565b634e487b7160e01b600052601260045260246000fd5b60008261349557613495613470565b500490565b6000826134a9576134a9613470565b500690565b6001600160a01b0385811682528416602082015260408101839052608060608201819052600090612f8590830184612bdf565b6000602082840312156134f357600080fd5b81516116f981612b3c565b634e487b7160e01b600052603160045260246000fdfea264697066735822122000d6cf81cf5fab83bb1f5b52324c47be357acd4870f146c732cf16bae5c267bb64736f6c634300080c0033",
  "linkReferences": {},
  "deployedLinkReferences": {}
}