{
  "_format": "hh-sol-artifact-1",
  "contractName": "FutNFTTraining",
  "sourceName": "contracts/FutNFTTraining.sol",
  "abi": [
    {
      "anonymous": false,
      "inputs": [
        {
          "indexed": true,
          "internalType": "address",
          "name": "owner",
          "type": "address"
        },
        {
          "indexed": true,
          "internalType": "address",
          "name": "approved",
          "type": "address"
        },
        {
          "indexed": true,
          "internalType": "uint256",
          "name": "tokenId",
          "type": "uint256"
        }
      ],
      "name": "Approval",
      "type": "event"
    },
    {
      "anonymous": false,
      "inputs": [
        {
          "indexed": true,
          "internalType": "address",
          "name": "owner",
          "type": "address"
        },
        {
          "indexed": true,
          "internalType": "address",
          "name": "operator",
          "type": "address"
        },
        {
          "indexed": false,
          "internalType": "bool",
          "name": "approved",
          "type": "bool"
        }
      ],
      "name": "ApprovalForAll",
      "type": "event"
    },
    {
      "anonymous": false,
      "inputs": [
        {
          "indexed": false,
          "internalType": "uint256",
          "name": "playerId",
          "type": "uint256"
        }
      ],
      "name": "LevelUp",
      "type": "event"
    },
    {
      "anonymous": false,
      "inputs": [
        {
          "indexed": true,
          "internalType": "address",
          "name": "previousOwner",
          "type": "address"
        },
        {
          "indexed": true,
          "internalType": "address",
          "name": "newOwner",
          "type": "address"
        }
      ],
      "name": "OwnershipTransferred",
      "type": "event"
    },
    {
      "anonymous": false,
      "inputs": [
        {
          "indexed": false,
          "internalType": "uint256",
          "name": "playerId",
          "type": "uint256"
        }
      ],
      "name": "PlayerAdded",
      "type": "event"
    },
    {
      "anonymous": false,
      "inputs": [
        {
          "indexed": true,
          "internalType": "address",
          "name": "from",
          "type": "address"
        },
        {
          "indexed": true,
          "internalType": "address",
          "name": "to",
          "type": "address"
        },
        {
          "indexed": true,
          "internalType": "uint256",
          "name": "tokenId",
          "type": "uint256"
        }
      ],
      "name": "Transfer",
      "type": "event"
    },
    {
      "inputs": [
        {
          "internalType": "address",
          "name": "to",
          "type": "address"
        },
        {
          "internalType": "uint256",
          "name": "tokenId",
          "type": "uint256"
        }
      ],
      "name": "approve",
      "outputs": [],
      "stateMutability": "nonpayable",
      "type": "function"
    },
    {
      "inputs": [
        {
          "internalType": "address",
          "name": "owner",
          "type": "address"
        }
      ],
      "name": "balanceOf",
      "outputs": [
        {
          "internalType": "uint256",
          "name": "",
          "type": "uint256"
        }
      ],
      "stateMutability": "view",
      "type": "function"
    },
    {
      "inputs": [],
      "name": "cooldown",
      "outputs": [
        {
          "internalType": "uint256",
          "name": "",
          "type": "uint256"
        }
      ],
      "stateMutability": "view",
      "type": "function"
    },
    {
      "inputs": [],
      "name": "earnedThroughTraining",
      "outputs": [
        {
          "internalType": "uint256",
          "name": "",
          "type": "uint256"
        }
      ],
      "stateMutability": "view",
      "type": "function"
    },
    {
      "inputs": [],
      "name": "fee",
      "outputs": [
        {
          "internalType": "uint256",
          "name": "",
          "type": "uint256"
        }
      ],
      "stateMutability": "view",
      "type": "function"
    },
    {
      "inputs": [
        {
          "internalType": "uint256",
          "name": "tokenId",
          "type": "uint256"
        }
      ],
      "name": "getApproved",
      "outputs": [
        {
          "internalType": "address",
          "name": "",
          "type": "address"
        }
      ],
      "stateMutability": "view",
      "type": "function"
    },
    {
      "inputs": [],
      "name": "getBalance",
      "outputs": [
        {
          "internalType": "uint256",
          "name": "",
          "type": "uint256"
        }
      ],
      "stateMutability": "view",
      "type": "function"
    },
    {
      "inputs": [],
      "name": "getListedPlayers",
      "outputs": [
        {
          "internalType": "uint256[]",
          "name": "",
          "type": "uint256[]"
        }
      ],
      "stateMutability": "view",
      "type": "function"
    },
    {
      "inputs": [
        {
          "internalType": "uint256",
          "name": "_id",
          "type": "uint256"
        }
      ],
      "name": "getPlayer",
      "outputs": [
        {
          "components": [
            {
              "internalType": "string",
              "name": "name",
              "type": "string"
            },
            {
              "internalType": "string",
              "name": "preferredPosition",
              "type": "string"
            },
            {
              "internalType": "uint256",
              "name": "id",
              "type": "uint256"
            },
            {
              "internalType": "uint8",
              "name": "age",
              "type": "uint8"
            },
            {
              "internalType": "uint8",
              "name": "level",
              "type": "uint8"
            },
            {
              "internalType": "uint64",
              "name": "lastUpgrade",
              "type": "uint64"
            },
            {
              "internalType": "string[]",
              "name": "suitablePositions",
              "type": "string[]"
            },
            {
              "internalType": "string",
              "name": "imageURI",
              "type": "string"
            }
          ],
          "internalType": "struct FutNFT.Player",
          "name": "",
          "type": "tuple"
        }
      ],
      "stateMutability": "view",
      "type": "function"
    },
    {
      "inputs": [
        {
          "internalType": "uint256",
          "name": "_id",
          "type": "uint256"
        }
      ],
      "name": "getPlayerExists",
      "outputs": [
        {
          "internalType": "bool",
          "name": "",
          "type": "bool"
        }
      ],
      "stateMutability": "view",
      "type": "function"
    },
    {
      "inputs": [
        {
          "internalType": "address",
          "name": "_owner",
          "type": "address"
        }
      ],
      "name": "getPlayersByOwner",
      "outputs": [
        {
          "internalType": "uint256[]",
          "name": "",
          "type": "uint256[]"
        }
      ],
      "stateMutability": "view",
      "type": "function"
    },
    {
      "inputs": [
        {
          "internalType": "address",
          "name": "owner",
          "type": "address"
        },
        {
          "internalType": "address",
          "name": "operator",
          "type": "address"
        }
      ],
      "name": "isApprovedForAll",
      "outputs": [
        {
          "internalType": "bool",
          "name": "",
          "type": "bool"
        }
      ],
      "stateMutability": "view",
      "type": "function"
    },
    {
      "inputs": [
        {
          "internalType": "address",
          "name": "",
          "type": "address"
        }
      ],
      "name": "lineUps",
      "outputs": [
        {
          "internalType": "string",
          "name": "formation",
          "type": "string"
        },
        {
          "internalType": "bool",
          "name": "isValid",
          "type": "bool"
        }
      ],
      "stateMutability": "view",
      "type": "function"
    },
    {
      "inputs": [
        {
          "internalType": "uint256",
          "name": "",
          "type": "uint256"
        }
      ],
      "name": "listedPlayers",
      "outputs": [
        {
          "internalType": "uint256",
          "name": "",
          "type": "uint256"
        }
      ],
      "stateMutability": "view",
      "type": "function"
    },
    {
      "inputs": [
        {
          "internalType": "uint256",
          "name": "",
          "type": "uint256"
        }
      ],
      "name": "listedPlayersPrices",
      "outputs": [
        {
          "internalType": "uint256",
          "name": "",
          "type": "uint256"
        }
      ],
      "stateMutability": "view",
      "type": "function"
    },
    {
      "inputs": [],
      "name": "maxLevel",
      "outputs": [
        {
          "internalType": "uint256",
          "name": "",
          "type": "uint256"
        }
      ],
      "stateMutability": "view",
      "type": "function"
    },
    {
      "inputs": [
        {
          "components": [
            {
              "internalType": "string",
              "name": "name",
              "type": "string"
            },
            {
              "internalType": "string",
              "name": "preferredPosition",
              "type": "string"
            },
            {
              "internalType": "uint256",
              "name": "id",
              "type": "uint256"
            },
            {
              "internalType": "uint8",
              "name": "age",
              "type": "uint8"
            },
            {
              "internalType": "uint8",
              "name": "level",
              "type": "uint8"
            },
            {
              "internalType": "uint64",
              "name": "lastUpgrade",
              "type": "uint64"
            },
            {
              "internalType": "string[]",
              "name": "suitablePositions",
              "type": "string[]"
            },
            {
              "internalType": "string",
              "name": "imageURI",
              "type": "string"
            }
          ],
          "internalType": "struct FutNFT.Player",
          "name": "_player",
          "type": "tuple"
        }
      ],
      "name": "mint",
      "outputs": [],
      "stateMutability": "nonpayable",
      "type": "function"
    },
    {
      "inputs": [],
      "name": "name",
      "outputs": [
        {
          "internalType": "string",
          "name": "",
          "type": "string"
        }
      ],
      "stateMutability": "view",
      "type": "function"
    },
    {
      "inputs": [],
      "name": "owner",
      "outputs": [
        {
          "internalType": "address",
          "name": "",
          "type": "address"
        }
      ],
      "stateMutability": "view",
      "type": "function"
    },
    {
      "inputs": [
        {
          "internalType": "uint256",
          "name": "tokenId",
          "type": "uint256"
        }
      ],
      "name": "ownerOf",
      "outputs": [
        {
          "internalType": "address",
          "name": "",
          "type": "address"
        }
      ],
      "stateMutability": "view",
      "type": "function"
    },
    {
      "inputs": [
        {
          "internalType": "uint256",
          "name": "",
          "type": "uint256"
        }
      ],
      "name": "playerToOwner",
      "outputs": [
        {
          "internalType": "address",
          "name": "",
          "type": "address"
        }
      ],
      "stateMutability": "view",
      "type": "function"
    },
    {
      "inputs": [],
      "name": "renounceOwnership",
      "outputs": [],
      "stateMutability": "nonpayable",
      "type": "function"
    },
    {
      "inputs": [
        {
          "internalType": "address",
          "name": "from",
          "type": "address"
        },
        {
          "internalType": "address",
          "name": "to",
          "type": "address"
        },
        {
          "internalType": "uint256",
          "name": "tokenId",
          "type": "uint256"
        }
      ],
      "name": "safeTransferFrom",
      "outputs": [],
      "stateMutability": "nonpayable",
      "type": "function"
    },
    {
      "inputs": [
        {
          "internalType": "address",
          "name": "from",
          "type": "address"
        },
        {
          "internalType": "address",
          "name": "to",
          "type": "address"
        },
        {
          "internalType": "uint256",
          "name": "tokenId",
          "type": "uint256"
        },
        {
          "internalType": "bytes",
          "name": "_data",
          "type": "bytes"
        }
      ],
      "name": "safeTransferFrom",
      "outputs": [],
      "stateMutability": "nonpayable",
      "type": "function"
    },
    {
      "inputs": [
        {
          "internalType": "address",
          "name": "operator",
          "type": "address"
        },
        {
          "internalType": "bool",
          "name": "approved",
          "type": "bool"
        }
      ],
      "name": "setApprovalForAll",
      "outputs": [],
      "stateMutability": "nonpayable",
      "type": "function"
    },
    {
      "inputs": [
        {
          "internalType": "uint256",
          "name": "_cooldown",
          "type": "uint256"
        }
      ],
      "name": "setCooldown",
      "outputs": [],
      "stateMutability": "nonpayable",
      "type": "function"
    },
    {
      "inputs": [
        {
          "internalType": "uint256",
          "name": "_fee",
          "type": "uint256"
        }
      ],
      "name": "setFee",
      "outputs": [],
      "stateMutability": "nonpayable",
      "type": "function"
    },
    {
      "inputs": [
        {
          "internalType": "uint256",
          "name": "_level",
          "type": "uint256"
        }
      ],
      "name": "setMaxLevel",
      "outputs": [],
      "stateMutability": "nonpayable",
      "type": "function"
    },
    {
      "inputs": [
        {
          "internalType": "bytes4",
          "name": "interfaceId",
          "type": "bytes4"
        }
      ],
      "name": "supportsInterface",
      "outputs": [
        {
          "internalType": "bool",
          "name": "",
          "type": "bool"
        }
      ],
      "stateMutability": "view",
      "type": "function"
    },
    {
      "inputs": [],
      "name": "symbol",
      "outputs": [
        {
          "internalType": "string",
          "name": "",
          "type": "string"
        }
      ],
      "stateMutability": "view",
      "type": "function"
    },
    {
      "inputs": [
        {
          "internalType": "uint256",
          "name": "index",
          "type": "uint256"
        }
      ],
      "name": "tokenByIndex",
      "outputs": [
        {
          "internalType": "uint256",
          "name": "",
          "type": "uint256"
        }
      ],
      "stateMutability": "view",
      "type": "function"
    },
    {
      "inputs": [
        {
          "internalType": "address",
          "name": "owner",
          "type": "address"
        },
        {
          "internalType": "uint256",
          "name": "index",
          "type": "uint256"
        }
      ],
      "name": "tokenOfOwnerByIndex",
      "outputs": [
        {
          "internalType": "uint256",
          "name": "",
          "type": "uint256"
        }
      ],
      "stateMutability": "view",
      "type": "function"
    },
    {
      "inputs": [
        {
          "internalType": "uint256",
          "name": "tokenId",
          "type": "uint256"
        }
      ],
      "name": "tokenURI",
      "outputs": [
        {
          "internalType": "string",
          "name": "",
          "type": "string"
        }
      ],
      "stateMutability": "view",
      "type": "function"
    },
    {
      "inputs": [],
      "name": "totalSupply",
      "outputs": [
        {
          "internalType": "uint256",
          "name": "",
          "type": "uint256"
        }
      ],
      "stateMutability": "view",
      "type": "function"
    },
    {
      "inputs": [
        {
          "internalType": "uint256",
          "name": "_playerId",
          "type": "uint256"
        }
      ],
      "name": "train",
      "outputs": [],
      "stateMutability": "payable",
      "type": "function"
    },
    {
      "inputs": [
        {
          "internalType": "address",
          "name": "from",
          "type": "address"
        },
        {
          "internalType": "address",
          "name": "to",
          "type": "address"
        },
        {
          "internalType": "uint256",
          "name": "tokenId",
          "type": "uint256"
        }
      ],
      "name": "transferFrom",
      "outputs": [],
      "stateMutability": "nonpayable",
      "type": "function"
    },
    {
      "inputs": [
        {
          "internalType": "address",
          "name": "newOwner",
          "type": "address"
        }
      ],
      "name": "transferOwnership",
      "outputs": [],
      "stateMutability": "nonpayable",
      "type": "function"
    },
    {
      "inputs": [
        {
          "internalType": "uint256",
          "name": "_price",
          "type": "uint256"
        }
      ],
      "name": "withdraw",
      "outputs": [],
      "stateMutability": "nonpayable",
      "type": "function"
    }
  ],
  "bytecode": "0x608060405261a8c06014556729a2241af62c0000601555600060165560646017553480156200002d57600080fd5b506040805180820182526006815265119d5d13919560d21b6020808301918252835180850190945260048452631193919560e21b908401528151919291620000789160009162000107565b5080516200008e90600190602084019062000107565b505050620000ab620000a5620000b160201b60201c565b620000b5565b620001ea565b3390565b600a80546001600160a01b038381166001600160a01b0319831681179093556040519116919082907f8be0079c531659141344cd1fd0a4f28419497f9722a3daafe3b4186f6b6457e090600090a35050565b8280546200011590620001ad565b90600052602060002090601f01602090048101928262000139576000855562000184565b82601f106200015457805160ff191683800117855562000184565b8280016001018555821562000184579182015b828111156200018457825182559160200191906001019062000167565b506200019292915062000196565b5090565b5b8082111562000192576000815560010162000197565b600181811c90821680620001c257607f821691505b60208210811415620001e457634e487b7160e01b600052602260045260246000fd5b50919050565b612fa980620001fa6000396000f3fe6080604052600436106102255760003560e01c806369fe0e2d11610123578063c87b56dd116100ab578063e985e9c51161006f578063e985e9c514610670578063eef2fc1f146106b9578063f2eeb536146106d9578063f2fde38b146106f9578063fd32f9181461071957600080fd5b8063c87b56dd146105e1578063cc06c35914610601578063ddca3f4314610617578063e1a51a621461062d578063e55ae4e81461064357600080fd5b80638da5cb5b116100f25780638da5cb5b1461054e578063923e5c6a1461056c57806395d89b411461058c578063a22cb465146105a1578063b88d4fde146105c157600080fd5b806369fe0e2d146104e357806370a0823114610503578063715018a614610523578063787a08a61461053857600080fd5b80632e1a7d4d116101b15780634f6ccce7116101755780634f6ccce71461041e5780634fc3f41a1461043e578063580adaa31461045e5780636352211e1461049657806364332285146104b657600080fd5b80632e1a7d4d1461038b5780632f745c59146103ab578063344f1ba5146103cb578063368004ed146103eb57806342842e0e146103fe57600080fd5b8063095ea7b3116101f8578063095ea7b3146102db57806312065fe0146102fd57806318160ddd1461032057806319b90d271461033557806323b872dd1461036b57600080fd5b806301ffc9a71461022a57806305901e891461025f57806306fdde0314610281578063081812fc146102a3575b600080fd5b34801561023657600080fd5b5061024a610245366004612689565b610747565b60405190151581526020015b60405180910390f35b34801561026b57600080fd5b50610274610758565b60405161025691906126a6565b34801561028d57600080fd5b506102966107b0565b6040516102569190612742565b3480156102af57600080fd5b506102c36102be366004612755565b610839565b6040516001600160a01b039091168152602001610256565b3480156102e757600080fd5b506102fb6102f636600461278a565b6108d3565b005b34801561030957600080fd5b506103126109e9565b604051908152602001610256565b34801561032c57600080fd5b50600854610312565b34801561034157600080fd5b506102c3610350366004612755565b600d602052600090815260409020546001600160a01b031681565b34801561037757600080fd5b506102fb6103863660046127b4565b610a1b565b34801561039757600080fd5b506102fb6103a6366004612755565b610a4c565b3480156103b757600080fd5b506103126103c636600461278a565b610b7d565b3480156103d757600080fd5b506102fb6103e6366004612755565b610c13565b6102fb6103f9366004612755565b610c42565b34801561040a57600080fd5b506102fb6104193660046127b4565b610f04565b34801561042a57600080fd5b50610312610439366004612755565b610f1f565b34801561044a57600080fd5b506102fb610459366004612755565b610fb2565b34801561046a57600080fd5b5061024a610479366004612755565b6000908152600d60205260409020546001600160a01b0316151590565b3480156104a257600080fd5b506102c36104b1366004612755565b610fe1565b3480156104c257600080fd5b506103126104d1366004612755565b600f6020526000908152604090205481565b3480156104ef57600080fd5b506102fb6104fe366004612755565b610fec565b34801561050f57600080fd5b5061031261051e3660046127f0565b61101b565b34801561052f57600080fd5b506102fb6110a2565b34801561054457600080fd5b5061031260145481565b34801561055a57600080fd5b50600a546001600160a01b03166102c3565b34801561057857600080fd5b50610312610587366004612755565b6110d8565b34801561059857600080fd5b506102966110f9565b3480156105ad57600080fd5b506102fb6105bc36600461280b565b611108565b3480156105cd57600080fd5b506102fb6105dc36600461290d565b611117565b3480156105ed57600080fd5b506102966105fc366004612755565b61114f565b34801561060d57600080fd5b5061031260175481565b34801561062357600080fd5b5061031260155481565b34801561063957600080fd5b5061031260165481565b34801561064f57600080fd5b5061066361065e366004612755565b611237565b60405161025691906129dd565b34801561067c57600080fd5b5061024a61068b366004612aa4565b6001600160a01b03918216600090815260056020908152604080832093909416825291909152205460ff1690565b3480156106c557600080fd5b506102746106d43660046127f0565b611580565b3480156106e557600080fd5b506102fb6106f4366004612bbd565b6116da565b34801561070557600080fd5b506102fb6107143660046127f0565b6118fe565b34801561072557600080fd5b506107396107343660046127f0565b611999565b604051610256929190612cd3565b600061075282611a42565b92915050565b606060128054806020026020016040519081016040528092919081815260200182805480156107a657602002820191906000526020600020905b815481526020019060010190808311610792575b5050505050905090565b6060600080546107bf90612cf7565b80601f01602080910402602001604051908101604052809291908181526020018280546107eb90612cf7565b80156107a65780601f1061080d576101008083540402835291602001916107a6565b820191906000526020600020905b81548152906001019060200180831161081b57509395945050505050565b6000818152600260205260408120546001600160a01b03166108b75760405162461bcd60e51b815260206004820152602c60248201527f4552433732313a20617070726f76656420717565727920666f72206e6f6e657860448201526b34b9ba32b73a103a37b5b2b760a11b60648201526084015b60405180910390fd5b506000908152600460205260409020546001600160a01b031690565b60006108de82611a67565b9050806001600160a01b0316836001600160a01b0316141561094c5760405162461bcd60e51b815260206004820152602160248201527f4552433732313a20617070726f76616c20746f2063757272656e74206f776e656044820152603960f91b60648201526084016108ae565b336001600160a01b03821614806109685750610968813361068b565b6109da5760405162461bcd60e51b815260206004820152603860248201527f4552433732313a20617070726f76652063616c6c6572206973206e6f74206f7760448201527f6e6572206e6f7220617070726f76656420666f7220616c6c000000000000000060648201526084016108ae565b6109e48383611ade565b505050565b600a546000906001600160a01b03163314610a165760405162461bcd60e51b81526004016108ae90612d32565b504790565b610a253382611b4c565b610a415760405162461bcd60e51b81526004016108ae90612d67565b6109e4838383611c43565b600a546001600160a01b03163314610a765760405162461bcd60e51b81526004016108ae90612d32565b80471015610ad15760405162461bcd60e51b815260206004820152602260248201527f5468652070726963652069732067726561746572207468616e2062616c616e63604482015261652160f01b60648201526084016108ae565b6040513390600090829084908381818185875af1925050503d8060008114610b15576040519150601f19603f3d011682016040523d82523d6000602084013e610b1a565b606091505b50509050806109e45760405162461bcd60e51b815260206004820152602960248201527f5472616e73616374696f6e206661696c65642c20636f756c64206e6f742073656044820152686e642066756e64732160b81b60648201526084016108ae565b6000610b888361101b565b8210610bea5760405162461bcd60e51b815260206004820152602b60248201527f455243373231456e756d657261626c653a206f776e657220696e646578206f7560448201526a74206f6620626f756e647360a81b60648201526084016108ae565b506001600160a01b03919091166000908152600660209081526040808320938352929052205490565b600a546001600160a01b03163314610c3d5760405162461bcd60e51b81526004016108ae90612d32565b601755565b6014546000828152600c60205260409020600301548291904290610c769083906201000090046001600160401b0316612dce565b1115610cc45760405162461bcd60e51b815260206004820152601c60248201527f436f6f6c646f776e20706572696f64206973206e6f74206f766572210000000060448201526064016108ae565b6017546000848152600c60205260409020600301548490610100900460ff168211610d315760405162461bcd60e51b815260206004820152601d60248201527f506c61796572206861732072656163686564206d6178206c6576656c2100000060448201526064016108ae565b6000858152600d602052604090205485906001600160a01b0316610d8f5760405162461bcd60e51b8152602060048201526015602482015274141b185e595c88191bd95cc81b9bdd08195e1a5cdd605a1b60448201526064016108ae565b610d9881610fe1565b6001600160a01b0316336001600160a01b031614610de95760405162461bcd60e51b815260206004820152600e60248201526d4e6f7420746865206f776e65722160901b60448201526064016108ae565b601554341015610e3b5760405162461bcd60e51b815260206004820152601960248201527f526571756972656420666565206973206e6f742073656e74210000000000000060448201526064016108ae565b6000868152600c602052604090206003018054610100900460ff16906001610e6283612de6565b82546101009290920a60ff818102199093169190921691909102179055506000868152600c60205260408120600301805469ffffffffffffffff0000191662010000426001600160401b03160217905560168054349290610ec4908490612dce565b90915550506040518681527f6a1b6f91db361bdf7356d3942ed64f2ee2fea430979dbba7ea23f44e8b2110079060200160405180910390a1505050505050565b6109e483838360405180602001604052806000815250611117565b6000610f2a60085490565b8210610f8d5760405162461bcd60e51b815260206004820152602c60248201527f455243373231456e756d657261626c653a20676c6f62616c20696e646578206f60448201526b7574206f6620626f756e647360a01b60648201526084016108ae565b60088281548110610fa057610fa0612e06565b90600052602060002001549050919050565b600a546001600160a01b03163314610fdc5760405162461bcd60e51b81526004016108ae90612d32565b601455565b600061075282611a67565b600a546001600160a01b031633146110165760405162461bcd60e51b81526004016108ae90612d32565b601555565b60006001600160a01b0382166110865760405162461bcd60e51b815260206004820152602a60248201527f4552433732313a2062616c616e636520717565727920666f7220746865207a65604482015269726f206164647265737360b01b60648201526084016108ae565b506001600160a01b031660009081526003602052604090205490565b600a546001600160a01b031633146110cc5760405162461bcd60e51b81526004016108ae90612d32565b6110d66000611dea565b565b601281815481106110e857600080fd5b600091825260209091200154905081565b6060600180546107bf90612cf7565b611113338383611e3c565b5050565b6111213383611b4c565b61113d5760405162461bcd60e51b81526004016108ae90612d67565b61114984848484611f0b565b50505050565b6000818152600260205260409020546060906001600160a01b03166111ce5760405162461bcd60e51b815260206004820152602f60248201527f4552433732314d657461646174613a2055524920717565727920666f72206e6f60448201526e3732bc34b9ba32b73a103a37b5b2b760891b60648201526084016108ae565b60006111e560408051602081019091526000815290565b905060008151116112055760405180602001604052806000815250611230565b8061120f84611f3e565b604051602001611220929190612e1c565b6040516020818303038152906040525b9392505050565b61128e604051806101000160405280606081526020016060815260200160008152602001600060ff168152602001600060ff16815260200160006001600160401b0316815260200160608152602001606081525090565b6000828152600c602052604090819020815161010081019092528054829082906112b790612cf7565b80601f01602080910402602001604051908101604052809291908181526020018280546112e390612cf7565b80156113305780601f1061130557610100808354040283529160200191611330565b820191906000526020600020905b81548152906001019060200180831161131357829003601f168201915b5050505050815260200160018201805461134990612cf7565b80601f016020809104026020016040519081016040528092919081815260200182805461137590612cf7565b80156113c25780601f10611397576101008083540402835291602001916113c2565b820191906000526020600020905b8154815290600101906020018083116113a557829003601f168201915b50505091835250506002820154602080830191909152600383015460ff80821660408086019190915261010083049091166060850152620100009091046001600160401b0316608084015260048401805482518185028101850190935280835260a090940193919290919060009084015b828210156114df57838290600052602060002001805461145290612cf7565b80601f016020809104026020016040519081016040528092919081815260200182805461147e90612cf7565b80156114cb5780601f106114a0576101008083540402835291602001916114cb565b820191906000526020600020905b8154815290600101906020018083116114ae57829003601f168201915b505050505081526020019060010190611433565b5050505081526020016005820180546114f790612cf7565b80601f016020809104026020016040519081016040528092919081815260200182805461152390612cf7565b80156115705780601f1061154557610100808354040283529160200191611570565b820191906000526020600020905b81548152906001019060200180831161155357829003601f168201915b5050505050815250509050919050565b6001600160a01b038116600090815260116020526040812054606091906001600160401b038111156115b4576115b4612847565b6040519080825280602002602001820160405280156115dd578160200160208202803683370190505b5090506000805b6013548110156116d157846001600160a01b0316600d60006013848154811061160f5761160f612e06565b600091825260208083209091015483528201929092526040019020546001600160a01b03161480156116715750600e60006013838154811061165357611653612e06565b90600052602060002001548152602001908152602001600020546000145b156116bf576013818154811061168957611689612e06565b90600052602060002001548383815181106116a6576116a6612e06565b6020908102919091010152816116bb81612e4b565b9250505b806116c981612e4b565b9150506115e4565b50909392505050565b600a546001600160a01b031633146117045760405162461bcd60e51b81526004016108ae90612d32565b6040808201516000908152600d60205220546001600160a01b03161561175d5760405162461bcd60e51b815260206004820152600e60248201526d506c61796572204578697374732160901b60448201526064016108ae565b6040808201516000908152600c602090815291902082518051849361178692849291019061252a565b50602082810151805161179f926001850192019061252a565b50604082015160028201556060820151600382018054608085015160a08601516001600160401b0316620100000269ffffffffffffffff00001960ff9283166101000261ffff199094169290951691909117919091179290921691909117905560c0820151805161181a9160048401916020909101906125ae565b5060e0820151805161183691600584019160209091019061252a565b505050604080820180516013805460018101825560009182527f66de8ffda797e3de9c05e8fc57b3bf0ec28a930d40b0d285d93c06501cf6a090019190915590518152600d602090815282822080546001600160a01b031916339081179091558252601190529081208054916118ab83612e4b565b91905055506118be33826040015161203b565b7f5af403e238a3f8f7d43c05ff2fac53c833e031e8fb8ec011b3c8e073d870ad7b81604001516040516118f391815260200190565b60405180910390a150565b600a546001600160a01b031633146119285760405162461bcd60e51b81526004016108ae90612d32565b6001600160a01b03811661198d5760405162461bcd60e51b815260206004820152602660248201527f4f776e61626c653a206e6577206f776e657220697320746865207a65726f206160448201526564647265737360d01b60648201526084016108ae565b61199681611dea565b50565b60106020526000908152604090206016810180546119b690612cf7565b80601f01602080910402602001604051908101604052809291908181526020018280546119e290612cf7565b8015611a2f5780601f10611a0457610100808354040283529160200191611a2f565b820191906000526020600020905b815481529060010190602001808311611a1257829003601f168201915b5050506017909301549192505060ff1682565b60006001600160e01b0319821663780e9d6360e01b1480610752575061075282612189565b6000818152600260205260408120546001600160a01b0316806107525760405162461bcd60e51b815260206004820152602960248201527f4552433732313a206f776e657220717565727920666f72206e6f6e657869737460448201526832b73a103a37b5b2b760b91b60648201526084016108ae565b600081815260046020526040902080546001600160a01b0319166001600160a01b0384169081179091558190611b1382611a67565b6001600160a01b03167f8c5be1e5ebec7d5bd14f71427d1e84f3dd0314c0f7b2291e5b200ac8c7c3b92560405160405180910390a45050565b6000818152600260205260408120546001600160a01b0316611bc55760405162461bcd60e51b815260206004820152602c60248201527f4552433732313a206f70657261746f7220717565727920666f72206e6f6e657860448201526b34b9ba32b73a103a37b5b2b760a11b60648201526084016108ae565b6000611bd083611a67565b9050806001600160a01b0316846001600160a01b03161480611c0b5750836001600160a01b0316611c0084610839565b6001600160a01b0316145b80611c3b57506001600160a01b0380821660009081526005602090815260408083209388168352929052205460ff165b949350505050565b826001600160a01b0316611c5682611a67565b6001600160a01b031614611cba5760405162461bcd60e51b815260206004820152602560248201527f4552433732313a207472616e736665722066726f6d20696e636f72726563742060448201526437bbb732b960d91b60648201526084016108ae565b6001600160a01b038216611d1c5760405162461bcd60e51b8152602060048201526024808201527f4552433732313a207472616e7366657220746f20746865207a65726f206164646044820152637265737360e01b60648201526084016108ae565b611d278383836121d9565b611d32600082611ade565b6001600160a01b0383166000908152600360205260408120805460019290611d5b908490612e66565b90915550506001600160a01b0382166000908152600360205260408120805460019290611d89908490612dce565b909155505060008181526002602052604080822080546001600160a01b0319166001600160a01b0386811691821790925591518493918716917fddf252ad1be2c89b69c2b068fc378daa952ba7f163c4a11628f55a4df523b3ef91a4505050565b600a80546001600160a01b038381166001600160a01b0319831681179093556040519116919082907f8be0079c531659141344cd1fd0a4f28419497f9722a3daafe3b4186f6b6457e090600090a35050565b816001600160a01b0316836001600160a01b03161415611e9e5760405162461bcd60e51b815260206004820152601960248201527f4552433732313a20617070726f766520746f2063616c6c65720000000000000060448201526064016108ae565b6001600160a01b03838116600081815260056020908152604080832094871680845294825291829020805460ff191686151590811790915591519182527f17307eab39ab6107e8899845ad3d59bd9653f200f220920489ca2b5937696c31910160405180910390a3505050565b611f16848484611c43565b611f22848484846121e4565b6111495760405162461bcd60e51b81526004016108ae90612e7d565b606081611f625750506040805180820190915260018152600360fc1b602082015290565b8160005b8115611f8c5780611f7681612e4b565b9150611f859050600a83612ee5565b9150611f66565b6000816001600160401b03811115611fa657611fa6612847565b6040519080825280601f01601f191660200182016040528015611fd0576020820181803683370190505b5090505b8415611c3b57611fe5600183612e66565b9150611ff2600a86612ef9565b611ffd906030612dce565b60f81b81838151811061201257612012612e06565b60200101906001600160f81b031916908160001a905350612034600a86612ee5565b9450611fd4565b6001600160a01b0382166120915760405162461bcd60e51b815260206004820181905260248201527f4552433732313a206d696e7420746f20746865207a65726f206164647265737360448201526064016108ae565b6000818152600260205260409020546001600160a01b0316156120f65760405162461bcd60e51b815260206004820152601c60248201527f4552433732313a20746f6b656e20616c7265616479206d696e7465640000000060448201526064016108ae565b612102600083836121d9565b6001600160a01b038216600090815260036020526040812080546001929061212b908490612dce565b909155505060008181526002602052604080822080546001600160a01b0319166001600160a01b03861690811790915590518392907fddf252ad1be2c89b69c2b068fc378daa952ba7f163c4a11628f55a4df523b3ef908290a45050565b60006001600160e01b031982166380ac58cd60e01b14806121ba57506001600160e01b03198216635b5e139f60e01b145b8061075257506301ffc9a760e01b6001600160e01b0319831614610752565b6109e48383836122e2565b60006001600160a01b0384163b156122d757604051630a85bd0160e11b81526001600160a01b0385169063150b7a0290612228903390899088908890600401612f0d565b6020604051808303816000875af1925050508015612263575060408051601f3d908101601f1916820190925261226091810190612f40565b60015b6122bd573d808015612291576040519150601f19603f3d011682016040523d82523d6000602084013e612296565b606091505b5080516122b55760405162461bcd60e51b81526004016108ae90612e7d565b805181602001fd5b6001600160e01b031916630a85bd0160e11b149050611c3b565b506001949350505050565b6001600160a01b03831661233d5761233881600880546000838152600960205260408120829055600182018355919091527ff3f7a9fe364faab93b216da50a3214154f22a0a2b415b23a84c8169e8b636ee30155565b612360565b816001600160a01b0316836001600160a01b03161461236057612360838261239a565b6001600160a01b038216612377576109e481612437565b826001600160a01b0316826001600160a01b0316146109e4576109e482826124e6565b600060016123a78461101b565b6123b19190612e66565b600083815260076020526040902054909150808214612404576001600160a01b03841660009081526006602090815260408083208584528252808320548484528184208190558352600790915290208190555b5060009182526007602090815260408084208490556001600160a01b039094168352600681528383209183525290812055565b60085460009061244990600190612e66565b6000838152600960205260408120546008805493945090928490811061247157612471612e06565b90600052602060002001549050806008838154811061249257612492612e06565b60009182526020808320909101929092558281526009909152604080822084905585825281205560088054806124ca576124ca612f5d565b6001900381819060005260206000200160009055905550505050565b60006124f18361101b565b6001600160a01b039093166000908152600660209081526040808320868452825280832085905593825260079052919091209190915550565b82805461253690612cf7565b90600052602060002090601f016020900481019282612558576000855561259e565b82601f1061257157805160ff191683800117855561259e565b8280016001018555821561259e579182015b8281111561259e578251825591602001919060010190612583565b506125aa929150612607565b5090565b8280548282559060005260206000209081019282156125fb579160200282015b828111156125fb57825180516125eb91849160209091019061252a565b50916020019190600101906125ce565b506125aa92915061261c565b5b808211156125aa5760008155600101612608565b808211156125aa5760006126308282612639565b5060010161261c565b50805461264590612cf7565b6000825580601f10612655575050565b601f0160209004906000526020600020908101906119969190612607565b6001600160e01b03198116811461199657600080fd5b60006020828403121561269b57600080fd5b813561123081612673565b6020808252825182820181905260009190848201906040850190845b818110156126de578351835292840192918401916001016126c2565b50909695505050505050565b60005b838110156127055781810151838201526020016126ed565b838111156111495750506000910152565b6000815180845261272e8160208601602086016126ea565b601f01601f19169290920160200192915050565b6020815260006112306020830184612716565b60006020828403121561276757600080fd5b5035919050565b80356001600160a01b038116811461278557600080fd5b919050565b6000806040838503121561279d57600080fd5b6127a68361276e565b946020939093013593505050565b6000806000606084860312156127c957600080fd5b6127d28461276e565b92506127e06020850161276e565b9150604084013590509250925092565b60006020828403121561280257600080fd5b6112308261276e565b6000806040838503121561281e57600080fd5b6128278361276e565b91506020830135801515811461283c57600080fd5b809150509250929050565b634e487b7160e01b600052604160045260246000fd5b60405161010081016001600160401b038111828210171561288057612880612847565b60405290565b604051601f8201601f191681016001600160401b03811182821017156128ae576128ae612847565b604052919050565b60006001600160401b038311156128cf576128cf612847565b6128e2601f8401601f1916602001612886565b90508281528383830111156128f657600080fd5b828260208301376000602084830101529392505050565b6000806000806080858703121561292357600080fd5b61292c8561276e565b935061293a6020860161276e565b92506040850135915060608501356001600160401b0381111561295c57600080fd5b8501601f8101871361296d57600080fd5b61297c878235602084016128b6565b91505092959194509250565b600081518084526020808501808196508360051b8101915082860160005b858110156129d05782840389526129be848351612716565b988501989350908401906001016129a6565b5091979650505050505050565b60208152600082516101008060208501526129fc610120850183612716565b91506020850151601f1980868503016040870152612a1a8483612716565b93506040870151606087015260608701519150612a3c608087018360ff169052565b608087015160ff811660a0880152915060a08701516001600160401b03811660c0880152915060c08701519150808685030160e0870152612a7d8483612988565b935060e0870151915080868503018387015250612a9a8382612716565b9695505050505050565b60008060408385031215612ab757600080fd5b612ac08361276e565b9150612ace6020840161276e565b90509250929050565b600082601f830112612ae857600080fd5b611230838335602085016128b6565b803560ff8116811461278557600080fd5b80356001600160401b038116811461278557600080fd5b600082601f830112612b3057600080fd5b813560206001600160401b0380831115612b4c57612b4c612847565b8260051b612b5b838201612886565b9384528581018301938381019088861115612b7557600080fd5b84880192505b85831015612bb157823584811115612b935760008081fd5b612ba18a87838c0101612ad7565b8352509184019190840190612b7b565b98975050505050505050565b600060208284031215612bcf57600080fd5b81356001600160401b0380821115612be657600080fd5b908301906101008286031215612bfb57600080fd5b612c0361285d565b823582811115612c1257600080fd5b612c1e87828601612ad7565b825250602083013582811115612c3357600080fd5b612c3f87828601612ad7565b60208301525060408301356040820152612c5b60608401612af7565b6060820152612c6c60808401612af7565b6080820152612c7d60a08401612b08565b60a082015260c083013582811115612c9457600080fd5b612ca087828601612b1f565b60c08301525060e083013582811115612cb857600080fd5b612cc487828601612ad7565b60e08301525095945050505050565b604081526000612ce66040830185612716565b905082151560208301529392505050565b600181811c90821680612d0b57607f821691505b60208210811415612d2c57634e487b7160e01b600052602260045260246000fd5b50919050565b6020808252818101527f4f776e61626c653a2063616c6c6572206973206e6f7420746865206f776e6572604082015260600190565b60208082526031908201527f4552433732313a207472616e736665722063616c6c6572206973206e6f74206f6040820152701ddb995c881b9bdc88185c1c1c9bdd9959607a1b606082015260800190565b634e487b7160e01b600052601160045260246000fd5b60008219821115612de157612de1612db8565b500190565b600060ff821660ff811415612dfd57612dfd612db8565b60010192915050565b634e487b7160e01b600052603260045260246000fd5b60008351612e2e8184602088016126ea565b835190830190612e428183602088016126ea565b01949350505050565b6000600019821415612e5f57612e5f612db8565b5060010190565b600082821015612e7857612e78612db8565b500390565b60208082526032908201527f4552433732313a207472616e7366657220746f206e6f6e20455243373231526560408201527131b2b4bb32b91034b6b83632b6b2b73a32b960711b606082015260800190565b634e487b7160e01b600052601260045260246000fd5b600082612ef457612ef4612ecf565b500490565b600082612f0857612f08612ecf565b500690565b6001600160a01b0385811682528416602082015260408101839052608060608201819052600090612a9a90830184612716565b600060208284031215612f5257600080fd5b815161123081612673565b634e487b7160e01b600052603160045260246000fdfea2646970667358221220f6deee404d92a36f1f6919c81da45c7fe2442bbace241694f40c9a62bc5e5d7164736f6c634300080c0033",
  "linkReferences": {},
  "deployedLinkReferences": {}
}