{
  "_format": "hh-sol-artifact-1",
  "contractName": "FutNFTTraining",
  "sourceName": "contracts/FutNFTTraining.sol",
  "abi": [
    {
      "anonymous": false,
      "inputs": [
        {
          "indexed": true,
          "internalType": "address",
          "name": "owner",
          "type": "address"
        },
        {
          "indexed": true,
          "internalType": "address",
          "name": "approved",
          "type": "address"
        },
        {
          "indexed": true,
          "internalType": "uint256",
          "name": "tokenId",
          "type": "uint256"
        }
      ],
      "name": "Approval",
      "type": "event"
    },
    {
      "anonymous": false,
      "inputs": [
        {
          "indexed": true,
          "internalType": "address",
          "name": "owner",
          "type": "address"
        },
        {
          "indexed": true,
          "internalType": "address",
          "name": "operator",
          "type": "address"
        },
        {
          "indexed": false,
          "internalType": "bool",
          "name": "approved",
          "type": "bool"
        }
      ],
      "name": "ApprovalForAll",
      "type": "event"
    },
    {
      "anonymous": false,
      "inputs": [
        {
          "indexed": false,
          "internalType": "uint256",
          "name": "playerId",
          "type": "uint256"
        }
      ],
      "name": "LevelUp",
      "type": "event"
    },
    {
      "anonymous": false,
      "inputs": [
        {
          "indexed": true,
          "internalType": "address",
          "name": "previousOwner",
          "type": "address"
        },
        {
          "indexed": true,
          "internalType": "address",
          "name": "newOwner",
          "type": "address"
        }
      ],
      "name": "OwnershipTransferred",
      "type": "event"
    },
    {
      "anonymous": false,
      "inputs": [
        {
          "indexed": false,
          "internalType": "uint256",
          "name": "playerId",
          "type": "uint256"
        }
      ],
      "name": "PlayerAdded",
      "type": "event"
    },
    {
      "anonymous": false,
      "inputs": [
        {
          "indexed": true,
          "internalType": "address",
          "name": "from",
          "type": "address"
        },
        {
          "indexed": true,
          "internalType": "address",
          "name": "to",
          "type": "address"
        },
        {
          "indexed": true,
          "internalType": "uint256",
          "name": "tokenId",
          "type": "uint256"
        }
      ],
      "name": "Transfer",
      "type": "event"
    },
    {
      "inputs": [
        {
          "internalType": "address",
          "name": "to",
          "type": "address"
        },
        {
          "internalType": "uint256",
          "name": "tokenId",
          "type": "uint256"
        }
      ],
      "name": "approve",
      "outputs": [],
      "stateMutability": "nonpayable",
      "type": "function"
    },
    {
      "inputs": [
        {
          "internalType": "address",
          "name": "owner",
          "type": "address"
        }
      ],
      "name": "balanceOf",
      "outputs": [
        {
          "internalType": "uint256",
          "name": "",
          "type": "uint256"
        }
      ],
      "stateMutability": "view",
      "type": "function"
    },
    {
      "inputs": [],
      "name": "cooldown",
      "outputs": [
        {
          "internalType": "uint256",
          "name": "",
          "type": "uint256"
        }
      ],
      "stateMutability": "view",
      "type": "function"
    },
    {
      "inputs": [],
      "name": "earnedThroughTraining",
      "outputs": [
        {
          "internalType": "uint256",
          "name": "",
          "type": "uint256"
        }
      ],
      "stateMutability": "view",
      "type": "function"
    },
    {
      "inputs": [],
      "name": "fee",
      "outputs": [
        {
          "internalType": "uint256",
          "name": "",
          "type": "uint256"
        }
      ],
      "stateMutability": "view",
      "type": "function"
    },
    {
      "inputs": [
        {
          "internalType": "uint256",
          "name": "tokenId",
          "type": "uint256"
        }
      ],
      "name": "getApproved",
      "outputs": [
        {
          "internalType": "address",
          "name": "",
          "type": "address"
        }
      ],
      "stateMutability": "view",
      "type": "function"
    },
    {
      "inputs": [],
      "name": "getBalance",
      "outputs": [
        {
          "internalType": "uint256",
          "name": "",
          "type": "uint256"
        }
      ],
      "stateMutability": "view",
      "type": "function"
    },
    {
      "inputs": [],
      "name": "getListedPlayers",
      "outputs": [
        {
          "internalType": "uint256[]",
          "name": "",
          "type": "uint256[]"
        }
      ],
      "stateMutability": "view",
      "type": "function"
    },
    {
      "inputs": [
        {
          "internalType": "uint256",
          "name": "_id",
          "type": "uint256"
        }
      ],
      "name": "getPlayer",
      "outputs": [
        {
          "components": [
            {
              "internalType": "string",
              "name": "name",
              "type": "string"
            },
            {
              "internalType": "string",
              "name": "preferredPosition",
              "type": "string"
            },
            {
              "internalType": "uint256",
              "name": "id",
              "type": "uint256"
            },
            {
              "internalType": "uint8",
              "name": "age",
              "type": "uint8"
            },
            {
              "internalType": "uint8",
              "name": "level",
              "type": "uint8"
            },
            {
              "internalType": "uint64",
              "name": "lastUpgrade",
              "type": "uint64"
            },
            {
              "internalType": "string[]",
              "name": "suitablePositions",
              "type": "string[]"
            },
            {
              "internalType": "string",
              "name": "imageURI",
              "type": "string"
            }
          ],
          "internalType": "struct FutNFT.Player",
          "name": "",
          "type": "tuple"
        }
      ],
      "stateMutability": "view",
      "type": "function"
    },
    {
      "inputs": [
        {
          "internalType": "uint256",
          "name": "_id",
          "type": "uint256"
        }
      ],
      "name": "getPlayerExists",
      "outputs": [
        {
          "internalType": "bool",
          "name": "",
          "type": "bool"
        }
      ],
      "stateMutability": "view",
      "type": "function"
    },
    {
      "inputs": [
        {
          "internalType": "address",
          "name": "_owner",
          "type": "address"
        }
      ],
      "name": "getPlayersByOwner",
      "outputs": [
        {
          "internalType": "uint256[]",
          "name": "",
          "type": "uint256[]"
        }
      ],
      "stateMutability": "view",
      "type": "function"
    },
    {
      "inputs": [
        {
          "internalType": "address",
          "name": "owner",
          "type": "address"
        },
        {
          "internalType": "address",
          "name": "operator",
          "type": "address"
        }
      ],
      "name": "isApprovedForAll",
      "outputs": [
        {
          "internalType": "bool",
          "name": "",
          "type": "bool"
        }
      ],
      "stateMutability": "view",
      "type": "function"
    },
    {
      "inputs": [
        {
          "internalType": "address",
          "name": "",
          "type": "address"
        }
      ],
      "name": "lineUps",
      "outputs": [
        {
          "internalType": "string",
          "name": "formation",
          "type": "string"
        },
        {
          "internalType": "bool",
          "name": "isValid",
          "type": "bool"
        }
      ],
      "stateMutability": "view",
      "type": "function"
    },
    {
      "inputs": [
        {
          "internalType": "uint256",
          "name": "",
          "type": "uint256"
        }
      ],
      "name": "listedPlayers",
      "outputs": [
        {
          "internalType": "uint256",
          "name": "",
          "type": "uint256"
        }
      ],
      "stateMutability": "view",
      "type": "function"
    },
    {
      "inputs": [
        {
          "internalType": "uint256",
          "name": "",
          "type": "uint256"
        }
      ],
      "name": "listedPlayersPrices",
      "outputs": [
        {
          "internalType": "uint256",
          "name": "",
          "type": "uint256"
        }
      ],
      "stateMutability": "view",
      "type": "function"
    },
    {
      "inputs": [],
      "name": "maxLevel",
      "outputs": [
        {
          "internalType": "uint256",
          "name": "",
          "type": "uint256"
        }
      ],
      "stateMutability": "view",
      "type": "function"
    },
    {
      "inputs": [
        {
          "components": [
            {
              "internalType": "string",
              "name": "name",
              "type": "string"
            },
            {
              "internalType": "string",
              "name": "preferredPosition",
              "type": "string"
            },
            {
              "internalType": "uint256",
              "name": "id",
              "type": "uint256"
            },
            {
              "internalType": "uint8",
              "name": "age",
              "type": "uint8"
            },
            {
              "internalType": "uint8",
              "name": "level",
              "type": "uint8"
            },
            {
              "internalType": "uint64",
              "name": "lastUpgrade",
              "type": "uint64"
            },
            {
              "internalType": "string[]",
              "name": "suitablePositions",
              "type": "string[]"
            },
            {
              "internalType": "string",
              "name": "imageURI",
              "type": "string"
            }
          ],
          "internalType": "struct FutNFT.Player",
          "name": "_player",
          "type": "tuple"
        }
      ],
      "name": "mint",
      "outputs": [],
      "stateMutability": "nonpayable",
      "type": "function"
    },
    {
      "inputs": [],
      "name": "name",
      "outputs": [
        {
          "internalType": "string",
          "name": "",
          "type": "string"
        }
      ],
      "stateMutability": "view",
      "type": "function"
    },
    {
      "inputs": [],
      "name": "owner",
      "outputs": [
        {
          "internalType": "address",
          "name": "",
          "type": "address"
        }
      ],
      "stateMutability": "view",
      "type": "function"
    },
    {
      "inputs": [
        {
          "internalType": "uint256",
          "name": "tokenId",
          "type": "uint256"
        }
      ],
      "name": "ownerOf",
      "outputs": [
        {
          "internalType": "address",
          "name": "",
          "type": "address"
        }
      ],
      "stateMutability": "view",
      "type": "function"
    },
    {
      "inputs": [
        {
          "internalType": "uint256",
          "name": "",
          "type": "uint256"
        }
      ],
      "name": "playerToOwner",
      "outputs": [
        {
          "internalType": "address",
          "name": "",
          "type": "address"
        }
      ],
      "stateMutability": "view",
      "type": "function"
    },
    {
      "inputs": [],
      "name": "renounceOwnership",
      "outputs": [],
      "stateMutability": "nonpayable",
      "type": "function"
    },
    {
      "inputs": [
        {
          "internalType": "address",
          "name": "from",
          "type": "address"
        },
        {
          "internalType": "address",
          "name": "to",
          "type": "address"
        },
        {
          "internalType": "uint256",
          "name": "tokenId",
          "type": "uint256"
        }
      ],
      "name": "safeTransferFrom",
      "outputs": [],
      "stateMutability": "nonpayable",
      "type": "function"
    },
    {
      "inputs": [
        {
          "internalType": "address",
          "name": "from",
          "type": "address"
        },
        {
          "internalType": "address",
          "name": "to",
          "type": "address"
        },
        {
          "internalType": "uint256",
          "name": "tokenId",
          "type": "uint256"
        },
        {
          "internalType": "bytes",
          "name": "_data",
          "type": "bytes"
        }
      ],
      "name": "safeTransferFrom",
      "outputs": [],
      "stateMutability": "nonpayable",
      "type": "function"
    },
    {
      "inputs": [
        {
          "internalType": "address",
          "name": "operator",
          "type": "address"
        },
        {
          "internalType": "bool",
          "name": "approved",
          "type": "bool"
        }
      ],
      "name": "setApprovalForAll",
      "outputs": [],
      "stateMutability": "nonpayable",
      "type": "function"
    },
    {
      "inputs": [
        {
          "internalType": "uint256",
          "name": "_cooldown",
          "type": "uint256"
        }
      ],
      "name": "setCooldown",
      "outputs": [],
      "stateMutability": "nonpayable",
      "type": "function"
    },
    {
      "inputs": [
        {
          "internalType": "uint256",
          "name": "_size",
          "type": "uint256"
        }
      ],
      "name": "setDefaultArraySize",
      "outputs": [],
      "stateMutability": "nonpayable",
      "type": "function"
    },
    {
      "inputs": [
        {
          "internalType": "uint256",
          "name": "_fee",
          "type": "uint256"
        }
      ],
      "name": "setFee",
      "outputs": [],
      "stateMutability": "nonpayable",
      "type": "function"
    },
    {
      "inputs": [
        {
          "internalType": "uint256",
          "name": "_level",
          "type": "uint256"
        }
      ],
      "name": "setMaxLevel",
      "outputs": [],
      "stateMutability": "nonpayable",
      "type": "function"
    },
    {
      "inputs": [
        {
          "internalType": "bytes4",
          "name": "interfaceId",
          "type": "bytes4"
        }
      ],
      "name": "supportsInterface",
      "outputs": [
        {
          "internalType": "bool",
          "name": "",
          "type": "bool"
        }
      ],
      "stateMutability": "view",
      "type": "function"
    },
    {
      "inputs": [],
      "name": "symbol",
      "outputs": [
        {
          "internalType": "string",
          "name": "",
          "type": "string"
        }
      ],
      "stateMutability": "view",
      "type": "function"
    },
    {
      "inputs": [
        {
          "internalType": "uint256",
          "name": "index",
          "type": "uint256"
        }
      ],
      "name": "tokenByIndex",
      "outputs": [
        {
          "internalType": "uint256",
          "name": "",
          "type": "uint256"
        }
      ],
      "stateMutability": "view",
      "type": "function"
    },
    {
      "inputs": [
        {
          "internalType": "address",
          "name": "owner",
          "type": "address"
        },
        {
          "internalType": "uint256",
          "name": "index",
          "type": "uint256"
        }
      ],
      "name": "tokenOfOwnerByIndex",
      "outputs": [
        {
          "internalType": "uint256",
          "name": "",
          "type": "uint256"
        }
      ],
      "stateMutability": "view",
      "type": "function"
    },
    {
      "inputs": [
        {
          "internalType": "uint256",
          "name": "tokenId",
          "type": "uint256"
        }
      ],
      "name": "tokenURI",
      "outputs": [
        {
          "internalType": "string",
          "name": "",
          "type": "string"
        }
      ],
      "stateMutability": "view",
      "type": "function"
    },
    {
      "inputs": [],
      "name": "totalSupply",
      "outputs": [
        {
          "internalType": "uint256",
          "name": "",
          "type": "uint256"
        }
      ],
      "stateMutability": "view",
      "type": "function"
    },
    {
      "inputs": [
        {
          "internalType": "uint256",
          "name": "_playerId",
          "type": "uint256"
        }
      ],
      "name": "train",
      "outputs": [],
      "stateMutability": "payable",
      "type": "function"
    },
    {
      "inputs": [
        {
          "internalType": "address",
          "name": "from",
          "type": "address"
        },
        {
          "internalType": "address",
          "name": "to",
          "type": "address"
        },
        {
          "internalType": "uint256",
          "name": "tokenId",
          "type": "uint256"
        }
      ],
      "name": "transferFrom",
      "outputs": [],
      "stateMutability": "nonpayable",
      "type": "function"
    },
    {
      "inputs": [
        {
          "internalType": "address",
          "name": "newOwner",
          "type": "address"
        }
      ],
      "name": "transferOwnership",
      "outputs": [],
      "stateMutability": "nonpayable",
      "type": "function"
    },
    {
      "inputs": [
        {
          "internalType": "uint256",
          "name": "_price",
          "type": "uint256"
        }
      ],
      "name": "withdraw",
      "outputs": [],
      "stateMutability": "nonpayable",
      "type": "function"
    }
  ],
  "bytecode": "0x6080604052606460135561a8c06014556729a2241af62c0000601555600060165560646017553480156200003257600080fd5b506040805180820182526006815265119d5d13919560d21b6020808301918252835180850190945260048452631193919560e21b9084015281519192916200007d916000916200010c565b508051620000939060019060208401906200010c565b505050620000b0620000aa620000b660201b60201c565b620000ba565b620001ef565b3390565b600a80546001600160a01b038381166001600160a01b0319831681179093556040519116919082907f8be0079c531659141344cd1fd0a4f28419497f9722a3daafe3b4186f6b6457e090600090a35050565b8280546200011a90620001b2565b90600052602060002090601f0160209004810192826200013e576000855562000189565b82601f106200015957805160ff191683800117855562000189565b8280016001018555821562000189579182015b82811115620001895782518255916020019190600101906200016c565b50620001979291506200019b565b5090565b5b808211156200019757600081556001016200019c565b600181811c90821680620001c757607f821691505b60208210811415620001e957634e487b7160e01b600052602260045260246000fd5b50919050565b612fcd80620001ff6000396000f3fe6080604052600436106102305760003560e01c806369fe0e2d1161012e578063c87b56dd116100ab578063e985e9c51161006f578063e985e9c51461069b578063eef2fc1f146106e4578063f2eeb53614610704578063f2fde38b14610724578063fd32f9181461074457600080fd5b8063c87b56dd1461060c578063cc06c3591461062c578063ddca3f4314610642578063e1a51a6214610658578063e55ae4e81461066e57600080fd5b8063923e5c6a116100f2578063923e5c6a1461057757806395d89b4114610597578063a22cb465146105ac578063b1bcaec2146105cc578063b88d4fde146105ec57600080fd5b806369fe0e2d146104ee57806370a082311461050e578063715018a61461052e578063787a08a6146105435780638da5cb5b1461055957600080fd5b80632e1a7d4d116101bc5780634f6ccce7116101805780634f6ccce7146104295780634fc3f41a14610449578063580adaa3146104695780636352211e146104a157806364332285146104c157600080fd5b80632e1a7d4d146103965780632f745c59146103b6578063344f1ba5146103d6578063368004ed146103f657806342842e0e1461040957600080fd5b8063095ea7b311610203578063095ea7b3146102e657806312065fe01461030857806318160ddd1461032b57806319b90d271461034057806323b872dd1461037657600080fd5b806301ffc9a71461023557806305901e891461026a57806306fdde031461028c578063081812fc146102ae575b600080fd5b34801561024157600080fd5b506102556102503660046126ad565b610772565b60405190151581526020015b60405180910390f35b34801561027657600080fd5b5061027f610783565b60405161026191906126ca565b34801561029857600080fd5b506102a16107db565b6040516102619190612766565b3480156102ba57600080fd5b506102ce6102c9366004612779565b610864565b6040516001600160a01b039091168152602001610261565b3480156102f257600080fd5b506103066103013660046127ae565b6108fe565b005b34801561031457600080fd5b5061031d610a14565b604051908152602001610261565b34801561033757600080fd5b5060085461031d565b34801561034c57600080fd5b506102ce61035b366004612779565b600d602052600090815260409020546001600160a01b031681565b34801561038257600080fd5b506103066103913660046127d8565b610a46565b3480156103a257600080fd5b506103066103b1366004612779565b610a77565b3480156103c257600080fd5b5061031d6103d13660046127ae565b610ba9565b3480156103e257600080fd5b506103066103f1366004612779565b610c3f565b610306610404366004612779565b610c6e565b34801561041557600080fd5b506103066104243660046127d8565b610f30565b34801561043557600080fd5b5061031d610444366004612779565b610f4b565b34801561045557600080fd5b50610306610464366004612779565b610fde565b34801561047557600080fd5b50610255610484366004612779565b6000908152600d60205260409020546001600160a01b0316151590565b3480156104ad57600080fd5b506102ce6104bc366004612779565b61100d565b3480156104cd57600080fd5b5061031d6104dc366004612779565b600f6020526000908152604090205481565b3480156104fa57600080fd5b50610306610509366004612779565b611018565b34801561051a57600080fd5b5061031d610529366004612814565b611047565b34801561053a57600080fd5b506103066110ce565b34801561054f57600080fd5b5061031d60145481565b34801561056557600080fd5b50600a546001600160a01b03166102ce565b34801561058357600080fd5b5061031d610592366004612779565b611104565b3480156105a357600080fd5b506102a1611125565b3480156105b857600080fd5b506103066105c736600461282f565b611134565b3480156105d857600080fd5b506103066105e7366004612779565b61113f565b3480156105f857600080fd5b50610306610607366004612931565b61116e565b34801561061857600080fd5b506102a1610627366004612779565b6111a6565b34801561063857600080fd5b5061031d60175481565b34801561064e57600080fd5b5061031d60155481565b34801561066457600080fd5b5061031d60165481565b34801561067a57600080fd5b5061068e610689366004612779565b61128e565b6040516102619190612a01565b3480156106a757600080fd5b506102556106b6366004612ac8565b6001600160a01b03918216600090815260056020908152604080832093909416825291909152205460ff1690565b3480156106f057600080fd5b5061027f6106ff366004612814565b6115d7565b34801561071057600080fd5b5061030661071f366004612be1565b61171b565b34801561073057600080fd5b5061030661073f366004612814565b611922565b34801561075057600080fd5b5061076461075f366004612814565b6119bd565b604051610261929190612cf7565b600061077d82611a66565b92915050565b606060118054806020026020016040519081016040528092919081815260200182805480156107d157602002820191906000526020600020905b8154815260200190600101908083116107bd575b5050505050905090565b6060600080546107ea90612d1b565b80601f016020809104026020016040519081016040528092919081815260200182805461081690612d1b565b80156107d15780601f10610838576101008083540402835291602001916107d1565b820191906000526020600020905b81548152906001019060200180831161084657509395945050505050565b6000818152600260205260408120546001600160a01b03166108e25760405162461bcd60e51b815260206004820152602c60248201527f4552433732313a20617070726f76656420717565727920666f72206e6f6e657860448201526b34b9ba32b73a103a37b5b2b760a11b60648201526084015b60405180910390fd5b506000908152600460205260409020546001600160a01b031690565b600061090982611a8b565b9050806001600160a01b0316836001600160a01b031614156109775760405162461bcd60e51b815260206004820152602160248201527f4552433732313a20617070726f76616c20746f2063757272656e74206f776e656044820152603960f91b60648201526084016108d9565b336001600160a01b0382161480610993575061099381336106b6565b610a055760405162461bcd60e51b815260206004820152603860248201527f4552433732313a20617070726f76652063616c6c6572206973206e6f74206f7760448201527f6e6572206e6f7220617070726f76656420666f7220616c6c000000000000000060648201526084016108d9565b610a0f8383611b02565b505050565b600a546000906001600160a01b03163314610a415760405162461bcd60e51b81526004016108d990612d56565b504790565b610a503382611b70565b610a6c5760405162461bcd60e51b81526004016108d990612d8b565b610a0f838383611c67565b600a546001600160a01b03163314610aa15760405162461bcd60e51b81526004016108d990612d56565b804711610afb5760405162461bcd60e51b815260206004820152602260248201527f5468652070726963652069732067726561746572207468616e2062616c616e63604482015261652160f01b60648201526084016108d9565b604051600090339083908381818185875af1925050503d8060008114610b3d576040519150601f19603f3d011682016040523d82523d6000602084013e610b42565b606091505b5050905080610ba55760405162461bcd60e51b815260206004820152602960248201527f5472616e73616374696f6e206661696c65642c20636f756c64206e6f742073656044820152686e642066756e64732160b81b60648201526084016108d9565b5050565b6000610bb483611047565b8210610c165760405162461bcd60e51b815260206004820152602b60248201527f455243373231456e756d657261626c653a206f776e657220696e646578206f7560448201526a74206f6620626f756e647360a81b60648201526084016108d9565b506001600160a01b03919091166000908152600660209081526040808320938352929052205490565b600a546001600160a01b03163314610c695760405162461bcd60e51b81526004016108d990612d56565b601755565b6014546000828152600c60205260409020600301548291904290610ca29083906201000090046001600160401b0316612df2565b1115610cf05760405162461bcd60e51b815260206004820152601c60248201527f436f6f6c646f776e20706572696f64206973206e6f74206f766572210000000060448201526064016108d9565b6017546000848152600c60205260409020600301548490610100900460ff168211610d5d5760405162461bcd60e51b815260206004820152601d60248201527f506c61796572206861732072656163686564206d6178206c6576656c2100000060448201526064016108d9565b6000858152600d602052604090205485906001600160a01b0316610dbb5760405162461bcd60e51b8152602060048201526015602482015274141b185e595c88191bd95cc81b9bdd08195e1a5cdd605a1b60448201526064016108d9565b610dc48161100d565b6001600160a01b0316336001600160a01b031614610e155760405162461bcd60e51b815260206004820152600e60248201526d4e6f7420746865206f776e65722160901b60448201526064016108d9565b601554341015610e675760405162461bcd60e51b815260206004820152601960248201527f526571756972656420666565206973206e6f742073656e74210000000000000060448201526064016108d9565b6000868152600c602052604090206003018054610100900460ff16906001610e8e83612e0a565b82546101009290920a60ff818102199093169190921691909102179055506000868152600c60205260408120600301805469ffffffffffffffff0000191662010000426001600160401b03160217905560168054349290610ef0908490612df2565b90915550506040518681527f6a1b6f91db361bdf7356d3942ed64f2ee2fea430979dbba7ea23f44e8b2110079060200160405180910390a1505050505050565b610a0f8383836040518060200160405280600081525061116e565b6000610f5660085490565b8210610fb95760405162461bcd60e51b815260206004820152602c60248201527f455243373231456e756d657261626c653a20676c6f62616c20696e646578206f60448201526b7574206f6620626f756e647360a01b60648201526084016108d9565b60088281548110610fcc57610fcc612e2a565b90600052602060002001549050919050565b600a546001600160a01b031633146110085760405162461bcd60e51b81526004016108d990612d56565b601455565b600061077d82611a8b565b600a546001600160a01b031633146110425760405162461bcd60e51b81526004016108d990612d56565b601555565b60006001600160a01b0382166110b25760405162461bcd60e51b815260206004820152602a60248201527f4552433732313a2062616c616e636520717565727920666f7220746865207a65604482015269726f206164647265737360b01b60648201526084016108d9565b506001600160a01b031660009081526003602052604090205490565b600a546001600160a01b031633146110f85760405162461bcd60e51b81526004016108d990612d56565b6111026000611e0e565b565b6011818154811061111457600080fd5b600091825260209091200154905081565b6060600180546107ea90612d1b565b610ba5338383611e60565b600a546001600160a01b031633146111695760405162461bcd60e51b81526004016108d990612d56565b601355565b6111783383611b70565b6111945760405162461bcd60e51b81526004016108d990612d8b565b6111a084848484611f2f565b50505050565b6000818152600260205260409020546060906001600160a01b03166112255760405162461bcd60e51b815260206004820152602f60248201527f4552433732314d657461646174613a2055524920717565727920666f72206e6f60448201526e3732bc34b9ba32b73a103a37b5b2b760891b60648201526084016108d9565b600061123c60408051602081019091526000815290565b9050600081511161125c5760405180602001604052806000815250611287565b8061126684611f62565b604051602001611277929190612e40565b6040516020818303038152906040525b9392505050565b6112e5604051806101000160405280606081526020016060815260200160008152602001600060ff168152602001600060ff16815260200160006001600160401b0316815260200160608152602001606081525090565b6000828152600c6020526040908190208151610100810190925280548290829061130e90612d1b565b80601f016020809104026020016040519081016040528092919081815260200182805461133a90612d1b565b80156113875780601f1061135c57610100808354040283529160200191611387565b820191906000526020600020905b81548152906001019060200180831161136a57829003601f168201915b505050505081526020016001820180546113a090612d1b565b80601f01602080910402602001604051908101604052809291908181526020018280546113cc90612d1b565b80156114195780601f106113ee57610100808354040283529160200191611419565b820191906000526020600020905b8154815290600101906020018083116113fc57829003601f168201915b50505091835250506002820154602080830191909152600383015460ff80821660408086019190915261010083049091166060850152620100009091046001600160401b0316608084015260048401805482518185028101850190935280835260a090940193919290919060009084015b828210156115365783829060005260206000200180546114a990612d1b565b80601f01602080910402602001604051908101604052809291908181526020018280546114d590612d1b565b80156115225780601f106114f757610100808354040283529160200191611522565b820191906000526020600020905b81548152906001019060200180831161150557829003601f168201915b50505050508152602001906001019061148a565b50505050815260200160058201805461154e90612d1b565b80601f016020809104026020016040519081016040528092919081815260200182805461157a90612d1b565b80156115c75780601f1061159c576101008083540402835291602001916115c7565b820191906000526020600020905b8154815290600101906020018083116115aa57829003601f168201915b5050505050815250509050919050565b606060006013546001600160401b038111156115f5576115f561286b565b60405190808252806020026020018201604052801561161e578160200160208202803683370190505b5090506000805b60125481101561171257846001600160a01b0316600d60006012848154811061165057611650612e2a565b600091825260208083209091015483528201929092526040019020546001600160a01b03161480156116b25750600e60006012838154811061169457611694612e2a565b90600052602060002001548152602001908152602001600020546000145b1561170057601281815481106116ca576116ca612e2a565b90600052602060002001548383815181106116e7576116e7612e2a565b6020908102919091010152816116fc81612e6f565b9250505b8061170a81612e6f565b915050611625565b50909392505050565b600a546001600160a01b031633146117455760405162461bcd60e51b81526004016108d990612d56565b6040808201516000908152600d60205220546001600160a01b03161561179e5760405162461bcd60e51b815260206004820152600e60248201526d506c61796572204578697374732160901b60448201526064016108d9565b6040808201516000908152600c60209081529190208251805184936117c792849291019061254e565b5060208281015180516117e0926001850192019061254e565b50604082015160028201556060820151600382018054608085015160a08601516001600160401b0316620100000269ffffffffffffffff00001960ff9283166101000261ffff199094169290951691909117919091179290921691909117905560c0820151805161185b9160048401916020909101906125d2565b5060e0820151805161187791600584019160209091019061254e565b505050604080820180516012805460018101825560009182527fbb8a6a4669ba250d26cd7a459eca9d215f8307e33aebe50379bc5a3617ec3444019190915581518152600d6020529190912080546001600160a01b0319163390811790915590516118e2919061205f565b7f5af403e238a3f8f7d43c05ff2fac53c833e031e8fb8ec011b3c8e073d870ad7b816040015160405161191791815260200190565b60405180910390a150565b600a546001600160a01b0316331461194c5760405162461bcd60e51b81526004016108d990612d56565b6001600160a01b0381166119b15760405162461bcd60e51b815260206004820152602660248201527f4f776e61626c653a206e6577206f776e657220697320746865207a65726f206160448201526564647265737360d01b60648201526084016108d9565b6119ba81611e0e565b50565b60106020526000908152604090206016810180546119da90612d1b565b80601f0160208091040260200160405190810160405280929190818152602001828054611a0690612d1b565b8015611a535780601f10611a2857610100808354040283529160200191611a53565b820191906000526020600020905b815481529060010190602001808311611a3657829003601f168201915b5050506017909301549192505060ff1682565b60006001600160e01b0319821663780e9d6360e01b148061077d575061077d826121ad565b6000818152600260205260408120546001600160a01b03168061077d5760405162461bcd60e51b815260206004820152602960248201527f4552433732313a206f776e657220717565727920666f72206e6f6e657869737460448201526832b73a103a37b5b2b760b91b60648201526084016108d9565b600081815260046020526040902080546001600160a01b0319166001600160a01b0384169081179091558190611b3782611a8b565b6001600160a01b03167f8c5be1e5ebec7d5bd14f71427d1e84f3dd0314c0f7b2291e5b200ac8c7c3b92560405160405180910390a45050565b6000818152600260205260408120546001600160a01b0316611be95760405162461bcd60e51b815260206004820152602c60248201527f4552433732313a206f70657261746f7220717565727920666f72206e6f6e657860448201526b34b9ba32b73a103a37b5b2b760a11b60648201526084016108d9565b6000611bf483611a8b565b9050806001600160a01b0316846001600160a01b03161480611c2f5750836001600160a01b0316611c2484610864565b6001600160a01b0316145b80611c5f57506001600160a01b0380821660009081526005602090815260408083209388168352929052205460ff165b949350505050565b826001600160a01b0316611c7a82611a8b565b6001600160a01b031614611cde5760405162461bcd60e51b815260206004820152602560248201527f4552433732313a207472616e736665722066726f6d20696e636f72726563742060448201526437bbb732b960d91b60648201526084016108d9565b6001600160a01b038216611d405760405162461bcd60e51b8152602060048201526024808201527f4552433732313a207472616e7366657220746f20746865207a65726f206164646044820152637265737360e01b60648201526084016108d9565b611d4b8383836121fd565b611d56600082611b02565b6001600160a01b0383166000908152600360205260408120805460019290611d7f908490612e8a565b90915550506001600160a01b0382166000908152600360205260408120805460019290611dad908490612df2565b909155505060008181526002602052604080822080546001600160a01b0319166001600160a01b0386811691821790925591518493918716917fddf252ad1be2c89b69c2b068fc378daa952ba7f163c4a11628f55a4df523b3ef91a4505050565b600a80546001600160a01b038381166001600160a01b0319831681179093556040519116919082907f8be0079c531659141344cd1fd0a4f28419497f9722a3daafe3b4186f6b6457e090600090a35050565b816001600160a01b0316836001600160a01b03161415611ec25760405162461bcd60e51b815260206004820152601960248201527f4552433732313a20617070726f766520746f2063616c6c65720000000000000060448201526064016108d9565b6001600160a01b03838116600081815260056020908152604080832094871680845294825291829020805460ff191686151590811790915591519182527f17307eab39ab6107e8899845ad3d59bd9653f200f220920489ca2b5937696c31910160405180910390a3505050565b611f3a848484611c67565b611f4684848484612208565b6111a05760405162461bcd60e51b81526004016108d990612ea1565b606081611f865750506040805180820190915260018152600360fc1b602082015290565b8160005b8115611fb05780611f9a81612e6f565b9150611fa99050600a83612f09565b9150611f8a565b6000816001600160401b03811115611fca57611fca61286b565b6040519080825280601f01601f191660200182016040528015611ff4576020820181803683370190505b5090505b8415611c5f57612009600183612e8a565b9150612016600a86612f1d565b612021906030612df2565b60f81b81838151811061203657612036612e2a565b60200101906001600160f81b031916908160001a905350612058600a86612f09565b9450611ff8565b6001600160a01b0382166120b55760405162461bcd60e51b815260206004820181905260248201527f4552433732313a206d696e7420746f20746865207a65726f206164647265737360448201526064016108d9565b6000818152600260205260409020546001600160a01b03161561211a5760405162461bcd60e51b815260206004820152601c60248201527f4552433732313a20746f6b656e20616c7265616479206d696e7465640000000060448201526064016108d9565b612126600083836121fd565b6001600160a01b038216600090815260036020526040812080546001929061214f908490612df2565b909155505060008181526002602052604080822080546001600160a01b0319166001600160a01b03861690811790915590518392907fddf252ad1be2c89b69c2b068fc378daa952ba7f163c4a11628f55a4df523b3ef908290a45050565b60006001600160e01b031982166380ac58cd60e01b14806121de57506001600160e01b03198216635b5e139f60e01b145b8061077d57506301ffc9a760e01b6001600160e01b031983161461077d565b610a0f838383612306565b60006001600160a01b0384163b156122fb57604051630a85bd0160e11b81526001600160a01b0385169063150b7a029061224c903390899088908890600401612f31565b6020604051808303816000875af1925050508015612287575060408051601f3d908101601f1916820190925261228491810190612f64565b60015b6122e1573d8080156122b5576040519150601f19603f3d011682016040523d82523d6000602084013e6122ba565b606091505b5080516122d95760405162461bcd60e51b81526004016108d990612ea1565b805181602001fd5b6001600160e01b031916630a85bd0160e11b149050611c5f565b506001949350505050565b6001600160a01b0383166123615761235c81600880546000838152600960205260408120829055600182018355919091527ff3f7a9fe364faab93b216da50a3214154f22a0a2b415b23a84c8169e8b636ee30155565b612384565b816001600160a01b0316836001600160a01b0316146123845761238483826123be565b6001600160a01b03821661239b57610a0f8161245b565b826001600160a01b0316826001600160a01b031614610a0f57610a0f828261250a565b600060016123cb84611047565b6123d59190612e8a565b600083815260076020526040902054909150808214612428576001600160a01b03841660009081526006602090815260408083208584528252808320548484528184208190558352600790915290208190555b5060009182526007602090815260408084208490556001600160a01b039094168352600681528383209183525290812055565b60085460009061246d90600190612e8a565b6000838152600960205260408120546008805493945090928490811061249557612495612e2a565b9060005260206000200154905080600883815481106124b6576124b6612e2a565b60009182526020808320909101929092558281526009909152604080822084905585825281205560088054806124ee576124ee612f81565b6001900381819060005260206000200160009055905550505050565b600061251583611047565b6001600160a01b039093166000908152600660209081526040808320868452825280832085905593825260079052919091209190915550565b82805461255a90612d1b565b90600052602060002090601f01602090048101928261257c57600085556125c2565b82601f1061259557805160ff19168380011785556125c2565b828001600101855582156125c2579182015b828111156125c25782518255916020019190600101906125a7565b506125ce92915061262b565b5090565b82805482825590600052602060002090810192821561261f579160200282015b8281111561261f578251805161260f91849160209091019061254e565b50916020019190600101906125f2565b506125ce929150612640565b5b808211156125ce576000815560010161262c565b808211156125ce576000612654828261265d565b50600101612640565b50805461266990612d1b565b6000825580601f10612679575050565b601f0160209004906000526020600020908101906119ba919061262b565b6001600160e01b0319811681146119ba57600080fd5b6000602082840312156126bf57600080fd5b813561128781612697565b6020808252825182820181905260009190848201906040850190845b81811015612702578351835292840192918401916001016126e6565b50909695505050505050565b60005b83811015612729578181015183820152602001612711565b838111156111a05750506000910152565b6000815180845261275281602086016020860161270e565b601f01601f19169290920160200192915050565b602081526000611287602083018461273a565b60006020828403121561278b57600080fd5b5035919050565b80356001600160a01b03811681146127a957600080fd5b919050565b600080604083850312156127c157600080fd5b6127ca83612792565b946020939093013593505050565b6000806000606084860312156127ed57600080fd5b6127f684612792565b925061280460208501612792565b9150604084013590509250925092565b60006020828403121561282657600080fd5b61128782612792565b6000806040838503121561284257600080fd5b61284b83612792565b91506020830135801515811461286057600080fd5b809150509250929050565b634e487b7160e01b600052604160045260246000fd5b60405161010081016001600160401b03811182821017156128a4576128a461286b565b60405290565b604051601f8201601f191681016001600160401b03811182821017156128d2576128d261286b565b604052919050565b60006001600160401b038311156128f3576128f361286b565b612906601f8401601f19166020016128aa565b905082815283838301111561291a57600080fd5b828260208301376000602084830101529392505050565b6000806000806080858703121561294757600080fd5b61295085612792565b935061295e60208601612792565b92506040850135915060608501356001600160401b0381111561298057600080fd5b8501601f8101871361299157600080fd5b6129a0878235602084016128da565b91505092959194509250565b600081518084526020808501808196508360051b8101915082860160005b858110156129f45782840389526129e284835161273a565b988501989350908401906001016129ca565b5091979650505050505050565b6020815260008251610100806020850152612a2061012085018361273a565b91506020850151601f1980868503016040870152612a3e848361273a565b93506040870151606087015260608701519150612a60608087018360ff169052565b608087015160ff811660a0880152915060a08701516001600160401b03811660c0880152915060c08701519150808685030160e0870152612aa184836129ac565b935060e0870151915080868503018387015250612abe838261273a565b9695505050505050565b60008060408385031215612adb57600080fd5b612ae483612792565b9150612af260208401612792565b90509250929050565b600082601f830112612b0c57600080fd5b611287838335602085016128da565b803560ff811681146127a957600080fd5b80356001600160401b03811681146127a957600080fd5b600082601f830112612b5457600080fd5b813560206001600160401b0380831115612b7057612b7061286b565b8260051b612b7f8382016128aa565b9384528581018301938381019088861115612b9957600080fd5b84880192505b85831015612bd557823584811115612bb75760008081fd5b612bc58a87838c0101612afb565b8352509184019190840190612b9f565b98975050505050505050565b600060208284031215612bf357600080fd5b81356001600160401b0380821115612c0a57600080fd5b908301906101008286031215612c1f57600080fd5b612c27612881565b823582811115612c3657600080fd5b612c4287828601612afb565b825250602083013582811115612c5757600080fd5b612c6387828601612afb565b60208301525060408301356040820152612c7f60608401612b1b565b6060820152612c9060808401612b1b565b6080820152612ca160a08401612b2c565b60a082015260c083013582811115612cb857600080fd5b612cc487828601612b43565b60c08301525060e083013582811115612cdc57600080fd5b612ce887828601612afb565b60e08301525095945050505050565b604081526000612d0a604083018561273a565b905082151560208301529392505050565b600181811c90821680612d2f57607f821691505b60208210811415612d5057634e487b7160e01b600052602260045260246000fd5b50919050565b6020808252818101527f4f776e61626c653a2063616c6c6572206973206e6f7420746865206f776e6572604082015260600190565b60208082526031908201527f4552433732313a207472616e736665722063616c6c6572206973206e6f74206f6040820152701ddb995c881b9bdc88185c1c1c9bdd9959607a1b606082015260800190565b634e487b7160e01b600052601160045260246000fd5b60008219821115612e0557612e05612ddc565b500190565b600060ff821660ff811415612e2157612e21612ddc565b60010192915050565b634e487b7160e01b600052603260045260246000fd5b60008351612e5281846020880161270e565b835190830190612e6681836020880161270e565b01949350505050565b6000600019821415612e8357612e83612ddc565b5060010190565b600082821015612e9c57612e9c612ddc565b500390565b60208082526032908201527f4552433732313a207472616e7366657220746f206e6f6e20455243373231526560408201527131b2b4bb32b91034b6b83632b6b2b73a32b960711b606082015260800190565b634e487b7160e01b600052601260045260246000fd5b600082612f1857612f18612ef3565b500490565b600082612f2c57612f2c612ef3565b500690565b6001600160a01b0385811682528416602082015260408101839052608060608201819052600090612abe9083018461273a565b600060208284031215612f7657600080fd5b815161128781612697565b634e487b7160e01b600052603160045260246000fdfea264697066735822122050ac5a2336814846f12eb9d83a29efef80e744c76a179fc53b1edae05b6937b964736f6c634300080c0033",
  "linkReferences": {},
  "deployedLinkReferences": {}
}